S02200006D6563726973702D7374656C6C617269732D6B6C32357A3132382E737265638F
S113000038F3FF1FD92B0000110400001104000075
S113001000000000000000000000000000000000DC
S113002000000000000000000000000011040000B7
S11300300000000000000000110400001B2B000061
S11300401104000011040000110400001104000058
S11300501104000011040000110400001104000048
S11300601104000011040000110400001104000038
S11300701104000011040000110400003F2B0000D3
S1130080632B00001104000011040000110400009F
S11300901104000011040000110400001104000008
S11300A011040000872B000011040000110400005B
S11300B01104000011040000AD2B0000D12B00003E
S11300C0FFFFFFFFFFFFFFFFFFFFFFFFFFFFFFFF3C
S11300D0FFFFFFFFFFFFFFFFFFFFFFFFFFFFFFFF2C
S11300E0FFFFFFFFFFFFFFFFFFFFFFFFFFFFFFFF1C
S11300F0FFFFFFFFFFFFFFFFFFFFFFFFFFFFFFFF0C
S113041000B500F02AFF16556E68616E646C656461
S113042020496E7465727275707420210A0000BDD3
S1130430004000000000056465707468E649C91B4B
S11304408908043F3E600E007047C0463004000037
S1130450610003647570043F3E6070474C04000003
S113046061000464726F700040CF70475C04000048
S11304706100043F64757000002E01D0043F3E60AB
S11304807047C0466C04000062000473776170001A
S113049039683E600E007047840400006200036EF9
S11304A0697004377047C046980400006200046F06
S11304B0766572003968043F3E600E007047C0469E
S11304C0A80400006200047475636B0001CF083F48
S11304D07E6038607047C046C00400006300037249
S11304E06F7403CF083F78603E600E007047C046CB
S11304F0D80400006300042D726F740003CF083F1A
S11305007E60396006007047F0040000200004702B
S113051069636B00B0003E587047C0460805000090
S11305202000023E720040B440CF70471C0500001A
S1130530200002723E00043F3E6040BC7047C0464B
S11305402C050000200002724000043F3E60009E23
S11305507047C04640050000600004747275650071
S1130560043F3E600026F6437047C0465405000031
S113057060000566616C7365043F3E600026704749
S11305806C0500006A0003616E6401CF0640704789
S11305900640C046800500006A000362696301CF1B
S11305A0B043060070478643940500006A00026F5A
S11305B0720001CF064370470643C046A8050000F9
S11305C04A0003786F7201CF464070474640C046E8
S11305D0BC0500006100036E6F74F6437047C046AB
S11305E0D0050000410003636C7A300006D0002679
S11305F0400002D001D20136FAE770472026704746
S1130600E005000061000373687276087047C04615
S11306100006000061000373686C76007047C046F2
S1130620100600006C00067273686966740001CFDE
S1130630F040060070473608200600004A000761B3
S113064072736869667401CF3041060070470641D1
S1130650380600006C00066C73686966740001CF8C
S1130660B0400600704736005006000061000230BA
S11306703D00013EB641704768060000610003304A
S11306803C3E013EB641F6437047C0467806000042
S1130690610002303C00F6177047C0468C0600002B
S11306A04200023E3D0001CFB04201DA002670470D
S11306B00026F6437047C0469C0600004200023CF8
S11306C03D0001CFB04201DD002670470026F6430D
S11306D07047C046B80600004200013C01CFB0425A
S11306E002DA0026F643704700267047D40600005D
S11306F04200013E01CFB04202DD0026F6437047BE
S113070000267047EC060000620003753E3D01CFF1
S1130710861BB641F6437047040700006200037568
S11307203C3D01CF361AB641F64370471807000026
S1130730620002753C0001CF861BB6417047C0467B
S11307402C070000620002753E0001CF361AB64144
S11307507047C046400700006B00023C3E0001CFDA
S1130760361A01D00026F6437047C04654070000ED
S11307706B00013D01CF361A013EB6417047C046B9
S11307806C0700006200036D696E01CFB04200DAAD
S113079006007047800700006200036D617801CF96
S11307A0B04200DB06007047940700006200047545
S11307B06D61780001CFB04200D306007047C04697
S11307C0A8070000620004756D696E0001CFB04295
S11307D000D806007047000038F2FF1FC007000071
S11307E00000046D6F7665000FB5324640CF314688
S11307F040CF304640CF002A07D0814205D003784D
S11308000B7001300131013AF9D10FBDDC07000052
S113081020000140366870470C0800006D0001217B
S113082003CF30600E0070470660016018080000B6
S11308302000022B210003CF3268121832600E0010
S11308407047C0462C08000020000268400036882B
S11308507047C046440800006D000268210003CFC1
S113086030800E00704706800180C04654080000A6
S1130870200003682B2103CF3288121832800E0027
S11308807047C0466C0800002000026340003678C0
S11308907047C046840800006D000263210003CF46
S11308A030700E00704706700170C0469408000056
S11308B0200003632B2103CF3278121832700E000C
S11308C07047C046AC080000200004626973210030
S11308D003CF3268024332600E007047C408000040
S11308E0200004626963210003CF326882433260CE
S11308F00E007047DC080000200004786F722100AD
S113090003CF3268424032600E007047F4080000A2
S1130910200004626974400001CF3668064001D0AB
S11309200026F6437047C0460C0900002000056805
S11309306269732103CF3288024332800E0070470C
S113094028090000200005686269632103CF32880A
S1130950824332800E007047400900002000056881
S1130960786F722103CF3288424032800E00704784
S113097058090000200005686269744001CF368878
S1130980064001D00026F6437047C04670090000B7
S1130990200005636269732103CF32780243327009
S11309A00E0070478C090000200005636269632112
S11309B003CF3278824332700E007047A4090000DE
S11309C020000563786F722103CF32784240327081
S11309D00E007047BC090000200005636269744082
S11309E001CF3678064001D00026F6437047C04652
S11309F0D4090000000006666C617368210030466B
S1130A0040CF314640CF854B984268D3844B9942BE
S1130A102ED0032202402CD102689A4246D1814A48
S1130A20137880221A40FAD030221A4002D07D4A2C
S1130A30302313707C4A062313707C4A1070000A1A
S1130A407B4A1070000A7B4A10707B4A1170090AB5
S1130A507A4A1170090A7A4A1170090A794A11709E
S1130A60704A802313706F4A137880221A40FAD098
S1130A70704700F0FAFB3041646472657373206858
S1130A80617320746F20626520342D616C69676E18
S1130A90656420666F722077726974696E67206678
S1130AA06C61736820210A0001F0E8FF00F0DDFBAF
S1130AB029466C617368206C6F636174696F6E2082
S1130AC063616E6E6F7420626520777269747465F9
S1130AD06E20747769636520210A01F0CFFF00F06E
S1130AE0C4FB1943616E6E6F74207772697465205C
S1130AF0696E746F20636F726520210A01F0BEFF76
S1130B00F009000000000E666C617368706167652F
S1130B106572617365000FB5304640CF3F4B984214
S1130B2020D3032398433F4A137880221A40FAD0F3
S1130B3030221A4002D03B4A302313703A4A092328
S1130B4013703A4A1070000A394A1070000A394A80
S1130B501070344A80231370324A137880221A406A
S1130B60FAD00FBD00F081FB1443616E6E6F7420E8
S1130B70657261736520636F726520210A0001F05C
S1130B807DFFC046000B000000000A6572617365BA
S1130B90666C617368002C4872B62C492C4A036851
S1130BA093421CD0043F3E600600043F3E6000F0C8
S1130BB05CFB10457261736520626C6F636B20612E
S1130BC07420200000F08EFB00F04FFB0C206672B6
S1130BD06F6D20466C6173680A00FFF79CFF043058
S1130BE08842DCD100F041FB1246696E6973686586
S1130BF0642E20526573657420210A0001F0ECFF15
S1130C00840B000000000E6572617365666C61738D
S1130C106866726F6D00304640CFBDE7004000004B
S1130C20FFFFFFFF000002400700024004000240F3
S1130C30050002400600024008000240090002408C
S1130C400A0002400B0002400040000000000200C5
S1130C50FFFFFFFF62486021002202800230013959
S1130C60FBD170475E4860210288002A18D000F04A
S1130C70FCFA28556E7061697265642031362D6204
S1130C80697420466C617368207772697465206C9E
S1130C9065667420616C6F6E652E0A0001F0EEFECD
S1130CA002300139E0D170474D4820210288438841
S1130CB01B041A43B24225D006300139F6D100F0A4
S1130CC0D4FA3C44657369726564206C6F63617423
S1130CD0696F6E206E6F7420666F756E6420696E26
S1130CE020466C61736820777269746520636F6C49
S1130CF06C656374696F6E207461626C652E0A00A2
S1130D0001F0BCFE86887047000C000000000768F4
S1130D10666C6173682130B5324640CF01201040C3
S1130D2013D000F0A2FA1E68666C61736821206E0D
S1130D3065656473206576656E20616464726573AD
S1130D407365732E0A0001F099FE02235340244870
S1130D502021048845882D042C439C422BD0063046
S1130D600139F6D11E482021048845882D042C43DE
S1130D70002C1AD006300139F6D100F076FA275447
S1130D806F6F206D616E7920756E70616972656434
S1130D902031362D62697420466C61736820777245
S1130DA0697465732E0A01F069FE0280120C428098
S1130DB0868040CF30BD0221114003D0023A8188A1
S1130DC0360401E0818809040E43043F3E601600A6
S1130DD00021018041808180FFF711FE30BD0000B9
S1130DE000F4FF1F080D00006900012B01CF361825
S1130DF0704736180036C046E40D00006900012D26
S1130E0001CF861B7047361A003EC046F80D00001D
S1130E10610002312D00013E7047C0460C0E0000F7
S1130E20610002312B0001367047C0461C0E0000E1
S1130E30610002322D00023E7047C0462C0E0000B5
S1130E40610002322B0002367047C0463C0E00009F
S1130E506100066E65676174650076427047C0463E
S1130E604C0E0000610003616273002E00D57642CF
S1130E707047C046600E0000420005752F6D6F6418
S1130E80314640CF002903D1043F3E60002670471D
S1130E90012200238E4206D9003104D452004900B5
S1130EA001D48E42FAD88E4201D3761A13434908EC
S1130EB05208F8D1043F3E601E007047740E0000D3
S1130EC04200042F6D6F640000B5304640CF002E01
S1130ED01CDA764200280CDA4042043F3E600600E9
S1130EE0FFF7CEFF304640CF7642043F3E60060017
S1130EF000BD043F3E600600FFF7C2FF304640CF0E
S1130F0040427642043F3E60060000BD002807DAF6
S1130F104042043F3E600600FFF7B2FF764200BD48
S1130F20043F3E600600FFF7ABFF00BDBC0E0000AF
S1130F304200012F00B5FFF7C7FF043700BDC046CC
S1130F402C0F00006200012A01CF46437047C046BF
S1130F50400F0000610002322A0076007047C0464C
S1130F60500F0000610002322F0076107047C04617
S1130F70600F00006100046576656E00012030405A
S1130F8036187047700F00004000046261736500FA
S1130F90043F3E60114E7047840F0000000006625B
S1130FA0696E617279000D48022101607047C04684
S1130FB0980F0000000007646563696D616C074861
S1130FC00A2101607047C046B00F000000000368AA
S1130FD065780248102101607047000010F0FF1F7F
S1130FE02D492E4801602E492E4801602E492F4874
S1130FF001602F492F4801602F48016000212F48CC
S113100001702F4801702F4801702F48017006218C
S11310102E48017000212E4801701A212D480170BC
S11310200C21264801707047C80F000000000465B9
S11310306D69740007B42848082101708022017882
S11310401140FCD02548314640CF017007BC7047A1
S1131050281000000000036B657907B41E480821BE
S11310600170202201781140FCD01C48043F3E60EE
S11310700678F6B207BC7047501000000000043F29
S11310806B657900043F3E600026134820220178F6
S1131090114000D0F6437047803F00003880044080
S11310A0300400F034800440000000040480044054
S11310B000020000049004400890044003A006408D
S11310C002A0064006A0064005A006400AA006406D
S11310D000A0064001A0064004A0064007A0064068
S11310E07810000000000571756572790FB5EB4842
S11310F000210170EA490022FFF7AFFF304640CFDC
S1131100202818D20A2822D00D2820D00828F3D16C
S1131110002AF1D000F0A9F803082008002AEBD037
S11311200B009B181878013A80230340E4D0402335
S11311300340F3D0E0E7C72ADED2043F3E60060056
S1131140FFF778FF01320B009B181870D4E70A7080
S113115000F044F80FBDC046E01000000000076333
S11311606F6D706172650FB5304640CF317802788B
S1131170914216D110E00136013032780378412AC9
S113118002D35B2A00D22032412B02D35B2B00D244
S113119020339A4205D101390029ECD10026F643C7
S11311A000E000260FBDC046581100000000026395
S11311B0720000B500F059F8010A00BDA811000042
S11311C0000002626C00043F3E6020267047C04667
S11311D0BC1100000000057370616365043F3E604C
S11311E0202627E7D01100005000065B6368617277
S11311F05D0005E0E4110000000004636861720012
S113120000B501F0B1F90136367800BDF4110000E3
S113121050000128043F3E60292606E00C1200001D
S11312205000015C043F3E60002600B501F0A8F9BF
S113123040CF00BD1C1200001000022E220099486D
S113124000B5043F3E60060000F0CCF9043F3E6068
S1131250222601F095F900F03AFD00BD3412000099
S11312601000027322009048EAE70EB47246013A75
S1131270043F3E60160013780121013319405B18C6
S11312807146C9188E460EBC16E00EB47246013A79
S1131290043F3E60160013780121013319405B18A6
S11312A07146C9188E460EBC7047C0465C120000D9
S11312B0000004747970650003B5314640CF0878A6
S11312C0002807D00131043F3E600E78FFF7B2FEDC
S11312D00138F7D103BDC046AC1200000000046819
S11312E065782E0007B5314640CF20200F22043800
S11312F0043F3E600E00C6401640092E01D9373621
S113130000E03036FFF796FE0028F0D1FFF766FFC5
S113131007BDC046D81200000000022E73000FB5AE
S11313206249C91B8908624A106803B40A20106024
S1131330FFF79BFF08537461636B3A205B00043F23
S11313403E600E0001F018FAFFF78FFF025D2000E7
S113135003BC574A106000290BD0564A106806B4E3
S1131360043F3E60060001F007FA06BC043A013966
S1131370F4D1FFF77AFF0620544F533A2000043F7C
S11313803E60360001F0F8F9FFF76FFF04202A3EB3
S11313900A000FBD1413000000000464756D700092
S11313A000B5304640CF2021FFF75FFF072064756A
S11313B06D703E0A043F3E600600FFF793FFFFF79F
S11313C054FF023A20000288043F3E601600FFF7F3
S11313D089FFFFF74AFF03203E0A02300139E9D1B1
S11313E000BDC04694130000000005776F7264735B
S11313F000B5FFF73AFF06776F7264730A0000F0D6
S113140074FD304640CF8179FF2945D0FFF72DFF89
S113141009416464726573733A20043F3E600600B8
S1131420FFF760FFFFF721FF064C696E6B3A20005F
S113143002680430043F3E601600FFF753FF018842
S11314400230FFF712FF07466C6167733A20043FCE
S11314503E600E00FFF746FF043F3E60060000F0CA
S113146051FDFFF702FF06436F64653A2000043F15
S11314703E600600FFF736FFFFF7F7FE064E616D8C
S1131480653A2000FFF718FFFFF7EFFE010A0A484C
S1131490824201D01000B6E700BD000000F0FF1F3B
S11314A070F0FF1F6A1200008A12000038F2FF1F5A
S11314B010F0FF1F34F2FF1FFFFFFFFFE4130000D3
S11314C000001072656769737465726C6974657283
S11314D0616C2C003FB5354640CF2900C900294333
S11314E02D0295480543FF2300223000D040984345
S11314F001D00132F9E73000D04018402843043FBE
S11315003E60060000F0ABFB8C4805431800904099
S1131510864310D000243000E040984301D00134C9
S1131520F9E7101B043F3E600E008001064300F003
S113153096FB2200DFE7002A06D0043F3E600E003F
S11315409201164300F08BFB40CF3FBD1FB53146DF
S113155040CF7B4C0C43C9000C434901304640CF7B
S1131560020EFF231A40744B0B431343043F3E60A7
S11315701E0000F074FB043F3E60260000F06FFB89
S1131580020CFF231A406F4B0B431343043F3E608E
S11315901E0000F064FB043F3E60260000F05FFB89
S11315A0020AFF231A40674B0B431343043F3E6078
S11315B01E0000F054FB043F3E60260000F04FFB89
S11315C00200FF231A405F4B0B431343043F3E606A
S11315D01E0000F044FB1FBDBC14000000000563A6
S11315E0616C6C2C0FB5330000F02EFD304640CFFB
S11315F01B1A043B5449194000290ED0534A914206
S11316000BD00136043F3E600026FFF763FF043F22
S11316103E604F4E00F023FB0FBD40CF5B084D48AA
S11316204D4919400843DB0A4C4919400904084351
S11316309B0A0121194089060843043F3E600600C5
S113164000F035FB0FBDC046D81500000000086C43
S113165069746572616C2C0008B5043F3E60404EAD
S113166000F0FDFA043F3E603E4E00F0F8FA3E4BB7
S11316703000184098420BD1F643043F3E600626E2
S1131680FFF728FF043F3E60384E00F0E8FA08BD3B
S1131690043F3E600626FFF71DFF08BD4816000004
S11316A0200005646F65733E16200002BB3080473E
S11316B0043F3E607646013E7047043F3E607646F6
S11316C0013E00F002F92A4A1368314640CF022055
S11316D0084000D10231023111600136043F3E60FE
S11316E00026FFF733FF043F3E60194E00F0B7FABF
S11316F0136000F0F4F900BD9C1600000000073CE4
S11317006275696C647300B500F077FB00F09CFCB3
S11317100220064040CF04D1043F3E60154E00F045
S11317209EFA043F3E60144E00F099FA043F3E6076
S1131730102600F0EBFA00BD0020000000100000AD
S113174000020000003000000100C0FF0000C0FFE4
S11317508047000000F800F0FF070000FF030000CE
S1131760043F00003E6000000000FFFFF64300005D
S113177004F0FF1F3600000000B50000F81600005A
S11317805000035B275D03E07C1700000000012785
S113179000B500F0E9FE304640CF017800290CD1B5
S11317A0FFF763FD102027206E65656473206E616A
S11317B06D6520210A0001F061F9043F3E600600D6
S11317C000F0B0FB40CF002E10D1B848043F3E607B
S11317D00600FFF771FDFFF748FD0C206E6F7420C3
S11317E0666F756E642E0A0001F048F900BDC046AC
S11317F088170000100008706F7374706F6E6500B6
S113180000B500F0B1FE00F08DFB304640CF002E55
S1131810DBD01021014010290ED0202101402029C5
S113182005D1FFF719FF043F3E60A14E04E0FFF726
S113183013FF043F3E609F4EFFF7D4FE00BDC04639
S1131840F0170000000007696E6C696E652C00B526
S113185099499A4A9A4B3088884208D0904208D0D5
S1131860984206D0043F3E60060000F0F8F90236C4
S1131870F1E740CF00BD0EB4904A914B018802308D
S1131880914201D09942F9D10EBC70474018000032
S11318900000047265742C00043F3E60874EDEE154
S11318A08C1800003000046578697400F4E7C046C1
S11318B0A01800003000077265637572736500B587
S11318C000F003F8FFF78EFE00BD0FB57D480068F9
S11318D006300178FF2909D1043F3E60060001B4B7
S11318E0FFF7E2F901BCFF21314040CF0131012271
S11318F00A4089184018043F3E6006000FBDC046E8
S1131900B01800004000057374617465043F3E60C4
S11319106D4E7047001900000000015D6A48002107
S1131920C94301607047C046141900001000015BF0
S11319306548002101607047281900000000013A41
S113194000B56248076000F058FA043F3E605A4E02
S113195000F085F95C480021C943016000BDC04620
S1131960381900003000013B00B558480168B942FD
S11319700ED0FFF77AFC1520537461636B206E6FF1
S1131980742062616C616E6365642E0A01F076F8FE
S1131990043F3E60494E00F062F900F0A0F84A4866
S11319A00021016000BDC046601900000000076509
S11319B0786563757465304640CF01308746C0460C
S11319C0A8190000100009696D6D6564696174658A
S11319D0043F3E601026B1E0C01900001000066903
S11319E06E6C696E6500043F3E602026A6E0C0462A
S11319F0D819000010000B636F6D70696C656F6E11
S1131A006C79043F3E60302698E0C046F01900002F
S1131A1010000A302D666F6C6461626C6500043FCF
S1131A203E6040268AE0C0460C1A000010000A31CD
S1131A302D666F6C6461626C6500043F3E604126F4
S1131A407CE0C046281A000010000A322D666F6C34
S1131A506461626C6500043F3E6042266EE0C046ED
S1131A60441A000010000A332D666F6C6461626CC6
S1131A706500043F3E60432660E0C046601A0000F3
S1131A80000008636F6E7374616E740000B500F03B
S1131A90B4F9FFF7E1FD043F3E60094E00F0DFF8C2
S1131AA0FFF7BDFF00F01BF800BD000038F3FF1F77
S1131AB04E180000E415000000B5000000BD000051
S1131AC07047000008F0FF1F0CF0FF1F1CF0FF1F01
S1131AD07C1A0000000006736D7564676500494850
S1131AE00168494A91421DD200B502390A88474B20
S1131AF09A4204D1043F3E60002600F0B0F800F0A2
S1131B009CF843480068043F3E6006004149096868
S1131B1004313C4A1368116000F0A1F81360FFF728
S1131B20A1F800BD043F3E60002607E0D01A000083
S1131B30000008736574666C6167730000B5314812
S1131B400168314A914205D231480168314301604C
S1131B5040CF00BD324640CF2E4800680430018893
S1131B602A4B994201D1110000E01143018000BDCC
S1131B702C1B00000000087661726961626C6500CC
S1131B8000B500F03AF91F4801681F4A914218D283
S1131B9021480168043901600E60043F3E600E0074
S1131BA0FFF75AFD043F3E601C4E00F058F800F069
S1131BB06FF8043F3E608126FFF7C0FFFFF78FFFF9
S1131BC000BD00F041FA0220064040CF04D1043F9A
S1131BD03E60134E00F043F8043F3E60114E00F0A7
S1131BE066F8043F3E60104E00F061F8043F3E602A
S1131BF00A4E00F034F800F04BF8FFF710FFFFF73F
S1131C006EFF00BD04F0FF1F00F0FF1FFFFF000088
S1131C1028F0FF1F08F0FF1F2CF0FF1F7047000083
S1131C20360000003E60043F02367E46701B000012
S1131C30000007616C69676E342C00B5CF480168F9
S1131C400220014004D0043F3E60002600F007F863
S1131C5000BDC0462C1C0000000002682C000FB51B
S1131C60C6480168C64A914205D2043F3E600E0050
S1131C70FFF751F802E0324640CF0A80043F3E604D
S1131C80022600F043F80FBD541C00000000012C94
S1131C9000B5043F3E60FFF7E2FF360CFFF7DFFFBD
S1131CA000BDC046881C00000000033E3C2C00B56B
S1131CB0043F3E60360CFFF7D2FFFFF7D0FF00BDB4
S1131CC0A41C0000000007737472696E672C07B5CA
S1131CD0304640CF01780131022909D30288043FFC
S1131CE03E601600FFF7BBFF0230023906D0F3E76F
S1131CF00278043F3E601600FFF7B1FF07BDC046FF
S1131D00C01C0000000005616C6C6F749B48016886
S1131D109B4A91420FD2324640CF8918994A914248
S1131D2019D3FFF7A2FA0B466C6173682066756CD1
S1131D306C0A00F0A3FE324640CF8918924A12681A
S1131D40914208D3FFF791FA0952616D2066756CD0
S1131D506C0A00F093FE01607047C046001D00004D
S1131D6000000C636F6D70696C65746F72616D0057
S1131D70824800688249884211D370475C1D000084
S1131D8000000E636F6D70696C65746F666C6173CF
S1131D9068007A4800687A49884200D270477B48D4
S1131DA07B4902680B680A600360744879490268D9
S1131DB00B680A60036074480068834215D300B559
S1131DC0FFF753FA23205661726961626C657320D0
S1131DD0636F6C6C696465207769746820646963F7
S1131DE074696F6E6172790A00BD70477C1D0000D2
S1131DF00000066372656174650000B500F0B4FB11
S1131E00304640CF017800290ED1FFF72EFA152075
S1131E10437265617465206E65656473206E616DDF
S1131E206520210A00F02AFE043F3E600600043FBC
S1131E303E6000F077F840CF304640CF00280ED007
S1131E40FFF713FA095265646566696E6520043FFD
S1131E503E60FFF731FAFFF708FA022E0A00FFF797
S1131E60ECFE00F0F1F845480068454988421DD26F
S1131E70494800210160043F3E600626FFF746FF03
S1131E8039683E600E46FFF722FF404801680A6841
S1131E90424B9A4207D1394A13681160043F3E60AD
S1131EA0FFF7F6FE1360066040CF00BD3748043FDD
S1131EB03E600668FFF7ECFE043F3E600026F643F2
S1131EC0FFF7CDFE3148314640CF0160FFF7FFFEFA
S1131ED000BDC046EC1D000000000F446963746936
S1131EE06F6E617279737461727424480068274B51
S1131EF01B682349043F3E60884201D2284E704744
S1131F001E00704706B40178013101220A40891885
S1131F10401806BC7047C046D41E0000000004668A
S1131F20696E64001FB53400FFF7DFFF304640CF11
S1131F30002600238179FF291CD08188194A914207
S1131F40026812D00630043F3E600600043F3E6043
S1131F502600FFF708F9002E40CF06D0FFF7D2FF86
S1131F6006000B000648864204D20C48824201D087
S1131F701000DFE7043F3E601E001FBD04F0FF1F9A
S1131F8000F0FF1F000002002CF0FF1F08F0FF1FED
S1131F9024F0FF1F20F0FF1F28F0FF1FFFFFFFFFAB
S1131FA0B42B0000FFFF0000181F000000000663B0
S1131FB06A756D702C00324640CF314640CF8B1B82
S1131FC0043B9A49194000290DD0994881420AD00E
S1131FD0FFF74BF90D4A756D7020746F6F206661C1
S1131FE0720A00F04BFD5B10FF210B4013433000DD
S1131FF01E0000B58F4A13681060FFF730FE1360AF
S113200000BDC046A81F00000000056A756D702C55
S1132010314640CF304640CF0B1A043B8649194025
S1132020002902D0854A9142D2D15B10844A1340E0
S1132030844A1343043F3E601E00DAE70420000094
S11320400000046865726500043F3E60794E36689E
S1132050704700B5043F3E607B4EFFF700FE043F2F
S11320603E607A4EFFF7FBFD00BDEDE700B500F0E2
S113207037F839683E600E46043F3E60744EFFF701
S11320809AFF00BD00B500F02BF839683E600E469B
S1132090043F3E606F4EFFF78EFF00BD00B5FFF7B3
S11320A0D8FF00F01DF839683E600E46043F3E60DC
S11320B0694EFFF780FF00BD00B500F011F83968E4
S11320C03E600E46FFF7A4FF00BD00B5FFF7C1FF59
S11320D0FFF7BAFF043F3E600226FFF717FE00BD7C
S11320E000B5FFF7B1FF043F3E600226FFF70EFE86
S11320F000BD00B5FFF7A8FFFFF78AFF00BD00B5DC
S1132100FFF7A2FF043F3E60534EFFF754FF00BDAC
S113211000B5FFF799FF043F3E604D4EFFF74BFFBC
S113212000BDC0463C2000003000047468656E00A9
S1132130052E01D140CFDCE7022E01D140CFDEE7EE
S1132140FFF793F81753747275637475726573208F
S1132150646F6E2774206D617463680A00F08EFCEE
S113216024210000300004656C73650000B5022E64
S1132170E6D140CFFFF7B4FF39683E600E46FFF763
S1132180BEFF043F3E60052600BDC046602100003E
S113219030000269660000B5FFF797FF043F3E6018
S11321A0022600BD8C210000300006726570656156
S11321B07400042EC4D140CF39683E600E4600B589
S11321C0FFF77AFFFFF79BFF00BDC046A421000084
S11321D03000057768696C65012EB1D140CF00B538
S11321E0FFF7D9FF023600BDCC2100003000057591
S11321F06E74696C012EA3D140CF4FE7E821000033
S1132200300005616761696E012E99D140CF53E7B3
S1132210FC210000300005626567696E00B5FFF7B8
S113222024FF043F3E60012600BD000001FFFFFFC4
S113223000FFFFFF04F0FF1F01F8FFFF00F8FFFF9E
S1132240FF07000000E00000002E000040CF000067
S113225000D1000000D7000000D0000010220000D0
S11322602000016B043F3E606E46083E36687047AE
S11322705C2200002000016A043F3E60009E70471B
S11322807022000020000169043F3E602600704770
S1132290802200003000056C6561766500B5504809
S11322A001683B00043F1A68043B1A60043304339A
S11322B08B42F8D103B4FFF713FF03BC334640CF7E
S11322C004390B60016004390A6801320A6000BDF8
S11322D090220000200006756E6C6F6F700030BC99
S11322E07047C046D02200003000052B6C6F6F7021
S11322F0032E00D024E740CF00B5043F3E60394EA2
S1132300FFF7A5FAFFF7BEFE1AE0802000060019C9
S1132310A419401B801940CF7047C046E422000036
S11323203000046C6F6F7000032E00D008E740CFBC
S113233000B5043F3E602C4EFFF789FAFFF796FE86
S113234000F0EEF82648314640CF0160043F3E607D
S1132350264EFFF77CFA00BD0134AC427047C046FC
S11323601C230000300002646F0000B5043F3E608F
S11323701F4EFFF76CFA1A480168043F3E600E00D6
S1132380043F3E6000260760FFF76FFE043F3E6097
S1132390032600BD30B4344640CF354640CF7047A5
S11323A0602300003000033F646F00B5043F3E60CB
S11323B0104EFFF74CFA0A480168043F3E600E00D5
S11323C0FFF78EFE0136043F3E6001260448076095
S11323D0DAE730B4344640CF354640CFAC4270479C
S11323E018F0FF1F0A23000058230000DE2200001B
S11323F094230000D2230000A023000030000463D3
S113240061736500043F3E600026043F3E60082679
S11324107047C046F82300003000033F6F664A4807
S11324200AE0013EB64140CF7047C0461424000084
S11324307800026F66004548082E00D080E640CF41
S113244000B5043F3E600600FFF701FAFFF748FEBF
S113245039683E600E460136043F3E600926043F5B
S11324603E603B4EFFF7FBFB00BD00B5304640CF5E
S1132470013B01B400F0E9FA01BC082E00D05FE68C
S113248040CFFF210140884207D132490843043F2D
S11324903E600600FFF7E3FBD8E7043F3E6006001A
S11324A0043F3E600026FFF715F8043F3E602A4EC5
S11324B0FFF7D5FBCAE7304640CFB0427047C0466D
S11324C02C240000300005656E646F66092E00D070
S11324D036E640CF00B540B440CFFFF701FE39687F
S11324E03E600E46FFF714FE043F3E6040BC043FCE
S11324F03E60082600BDC046C024000030000765C9
S11325006E6463617365082E00D019E640CF00B590
S1132510043F3E600E4EFFF7A2FB00F001F800BD41
S113252000B5304640CF00280DD003B4012131401E
S1132530002903D0013EFFF7E2FD01E0FFF7D9FDDA
S113254003BC0138EFE700BD22240000B6240000DC
S113255040CF0000002E0000B0420000F82400002C
S1132560000005746F6B656E2020043F3E6006001A
S113257006E0C0465C2500000000057061727365CA
S113258030B510480178104A1278104B0024801896
S1132590202E07D1914210D0013001320578B54286
S11325A0F8D006E0914208D0013001320578B542F6
S11325B003D0013301341D70F4E703480270034E65
S11325C0347030BD70F0FF1F00F0FF1F38F3FF1FA1
S11325D0742500000000056469676974714B1B6809
S11325E0303E0BD30A2E0BD3073E0A2E06D3242EDD
S11325F006D3203E0A2E01D3242E01D30026704791
S11326009E42FBD2043F3E600026F6437047C0461C
S1132610D02500000000066E756D626572001FB55E
S113262030000178002601225E4B1B68002920D06F
S11326300130013904782D2C02D10022D243F5E770
S1132640232C01D10A23F1E7242C01D11023EDE737
S1132650252C01D10223E9E7043F3E602600FFF761
S1132660BFFF002E40CF09D0344640CF5E43361919
S1132670DCE75643043F3E6001261FBD00261FBD14
S1132680102600000000062E6469676974000A2E93
S113269001D2303604E0242E01D2373600E023265E
S11326A07047C04680260000000004686F6C640018
S11326B0334640CF3C4801783F290DD201310170A7
S11326C04018012907D0013802780130027001381E
S11326D001390129F7D103707047C046A4260000D0
S11326E00000047369676E00002E01D440CF704768
S11326F02D26DDE7DC260000000002233E002A4EE2
S11327007047C046F426000000000223530000B5C1
S113271000F008F8002EFBD100BDC04604270000DD
S11327200000012300B5043F3E601E4E3668FEF7EC
S1132730A7FB39683E600E46FFF7A9FFFFF7B8FF15
S113274000BDC0461C2700000000023C23001648C0
S1132750002101707047C046442700000000027544
S11327602E0000B5FFF7F3FFFFF7D1FF00F013F8D9
S1132770582700000000012E00B5043F3E60002EE3
S113278000D57642FFF7E3FFFFF7C1FF39683E60EB
S11327900E46FFF7A9FFFFF7B2FFFEF78DFDFEF728
S11327A01DFD00BD10F0FF1F30F0FF1F702700005B
S11327B0000009696E7465727072657430B5BB4847
S11327C087420CD9FEF751FD10537461636B207579
S11327D06E646572666C6F770A0000F04FF9B44856
S11327E087420BD2FEF741FD0F537461636B206F78
S11327F0766572666C6F770A00F040F9FFF7B4FEF5
S1132800304640CF0178002900D130BDA94C25685D
S1132810002D01D13D002560043F3E600600FFF716
S113282081FB314640CF324640CF002A18D1043FC5
S11328303E600600FFF7F3FE324640CF002ABED1C9
S1132840043F3E600600FEF737FDFEF70EFD0C2048
S11328506E6F7420666F756E642E0A0000F00EF9B8
S1132860954B1B68002B1FD10025256030230B409E
S1132870302B12D1043F3E600600FEF71DFDFEF72B
S1132880F4FC1220697320636F6D70696C652D6FA1
S11328906E6C792E0A0000F0F1F8043F3E601600D9
S11328A0FFF789F8FFF78BFF80200840802810D0BD
S11328B0EB1B9B0840200840402810D1082008400A
S11328C0082802D1002B00D01FE00F2008408342CB
S11328D005D3043F3E601600FFF76DF86FE700F084
S11328E0B4F8043F3E60160010220A40102A02D1B8
S11328F0FFF761F863E720220A40202A02D1FEF79D
S1132900A6FF5CE7FEF76EFE59E7072001400129A8
S113291020D1012BDDD1334640CFFF20184098420F
S113292006D11000FEF7A7FF0230008818430BE021
S1132930043F3E601E00043F3E600026FEF7CAFDD1
S11329401000FEF798FF0088043F3E600600FFF782
S113295086F934E7022902D1012BBAD1EBE7032926
S113296024D1012BB5D1334640CFFF2018409842E3
S11329700DD152481843043F3E600600FFF76FF93B
S11329800432043F3E601600FEF761FF17E7043F80
S11329903E601E00043F3E600026FEF79BFD0232AF
S11329A0043F3E601600FEF752FF08E704291CD1DD
S11329B0012B8ED1334640CF002B00D1FFE61F20E0
S11329C01840984205D0043F3E603D4EFFF747F95A
S11329D0F5E61000FEF74FFF00889B011843043F03
S11329E03E600600FFF73BF9E9E6052927D1100010
S11329F0FEF741FF012B10D1043F3E600026FEF795
S1132A0069FD0088043F3E600600FFF728F9043F93
S1132A103E602C4EFFF723F9D1E6043F3E600026CA
S1132A20FEF758FD043F3E600126FEF753FD0230D9
S1132A300088043F3E600600FFF711F9BFE610006E
S1132A40FEF719FF01308047B9E600B5002B0BD023
S1132A50013B043F3E609E00BE59FEF7FDFD002B86
S1132A60F6D1043D2F0040CF0025256000BDC046AF
S1132A70AC27000000000471756974001248854693
S1132A800A4FFEF7E7F811480A2101600A480021BD
S1132A900160084800210160FEF728FBFFF78EFE65
S1132AA0FEF7E3FB05206F6B2E0AF5E738F2FF1FF4
S1132AB038F1FF1F14F0FF1F0CF0FF1F003E000051
S1132AC00026000040CF000038F3FF1F10F0FF1F66
S1132AD0702A000020000465696E740062B67047B5
S1132AE0D02A000020000464696E740072B6704736
S1132AF0E02A00000000036E6F707047F02A0000A7
S1132B0081000B6972712D7379737469636B043F6F
S1132B103E60754E7047FA2A000073480068013021
S1132B208746C046FC2A00008100076972712D6146
S1132B306463043F3E606D4E7047FA2A00006B48A0
S1132B40006801308746C046242B000081000769D5
S1132B5072712D636D70043F3E60654E7047FA2AB2
S1132B6000006348006801308746C046482B0000D7
S1132B708100076972712D646163043F3E605D4E9C
S1132B807047FA2A00005B48006801308746C04657
S1132B906C2B00008100096972712D706F72746171
S1132BA0043F3E60544E7047FA2A000052480068C1
S1132BB001308746902B00008100096972712D70E5
S1132BC06F727464043F3E604C4E7047FA2A0000F2
S1132BD04A48006801308746002149480160FEF7F1
S1132BE0FFF948488546484F2A2648484849016025
S1132BF04848494901604848484D04000268043087
S1132C0001880230464B994215D080230B4012D0E4
S1132C100F23194089006D1AFFF774F9FEF72BFE94
S1132C20043F3E600600043F3E602E00043F3E60C9
S1132C300E00FDF7D9FD3B48824205D01000063254
S1132C401278FF2A00D0D8E7374804603748056077
S1132C5037483849324A884204D0023803889342BC
S1132C60F9D0023034490860FDF7F4FFFEF7FDFAAD
S1132C70414D6563726973702D5374656C6C617238
S1132C80697320302E382077697468204D302063B2
S1132C906F726520666F72204B4C32355A31323870
S1132CA0206279204D61747468696173204B6F638D
S1132CB0680A22480A210160214800210160214854
S1132CC0002101602048043F3E600600FFF72AF916
S1132CD040CF002E02D0FEF76EFEDDE640CFCDE6FB
S1132CE004696E6974000000FC2F0020F82F002096
S1132CF0F42F0020F02F0020EC2F0020E82F0020DC
S1132D000081044038F3FF1F38F2FF1F04F0FF1F57
S1132D10C0F4FF1F08F0FF1FB42B00000030002098
S1132D20FFFF0000FFFFFFFF24F0FF1F2CF0FF1F39
S1132D30000002000040000020F0FF1F10F0FF1F01
S10F2D400CF0FF1F14F0FF1FE02C00003B
S9030000FC
