S02200006D6563726973702D7374656C6C617269732D6B6C32357A3132382E737265638F
S11300005CF3FF1F2949000031480000314800001B
S113001000000000000000000000000000000000DC
S11300200000000000000000000000005B48000029
S113003000000000000000005B4800000F480000C2
S11300405B4800005B4800005B4800005B48000020
S11300505B4800005B4800005B4800005B48000010
S11300605B4800005B4800005B4800005B48000000
S11300705B4800005B4800005B4800007B480000D0
S11300809B4800005B4800005B4800005B480000A0
S11300905B4800005B4800005B4800005B480000D0
S11300A05B480000BB4800005B4800005B48000060
S11300B05B4800005B480000DD4800000149000087
S11300C0FFFFFFFFFFFFFFFFFFFFFFFFFFFFFFFF3C
S11300D0FFFFFFFFFFFFFFFFFFFFFFFFFFFFFFFF2C
S11300E0FFFFFFFFFFFFFFFFFFFFFFFFFFFFFFFF1C
S11300F0FFFFFFFFFFFFFFFFFFFFFFFFFFFFFFFF0C
S1130410B4060000FFFF1E2D2D2D204D656372696B
S113042073702D5374656C6C6172697320436F72C1
S113043065202D2D2D0007B55048002B09D000F064
S11304402EF800F034F800F01EF842612821016112
S1130450F3E707BD07B549480169282905D1426971
S113046000F004F800F0F2F8F6E707BD03B5043F26
S11304703E601600043F3E601E0008B400F0E0FE3B
S113048008BC013303BD03B5013B043F3E601E00BD
S113049008B400F0BFFE08BC320040CF03BD03B572
S11304A0374801681E2901D000F016F803BD8169A0
S11304B0016201698161C16941624169C1611E21B1
S11304C0016170470FB52D4801691E2903D0FFF75C
S11304D0E6FFFFF7ECFF0FBD08B501681E220260BE
S11304E008290BD2043F3E60264E02F01AFF043F57
S11304F03E60254E0E4302F014FF08BD28290DD19D
S1130500043F3E601F4E02F00CFF436800F007F802
S1130510043F3E601C4E1E4302F003FF08BD07B5B6
S113052000F017F84360282101600023043F3E6077
S11305301E0002F05FFB07BD07B500F00AF8C360B8
S1130540282181600123043F3E601E0002F052FB1B
S113055007BD0A4801681E2904D04168994201D1A7
S1130560002307BD81681E2904D0C168994201D1C6
S1130570012307BD043F3E601E00704728F0FF1FA3
S113058048F0FF1F043F00003860000007B5214811
S113059001698269036A062905D0062A03D0062B5D
S11305A001D0062307BD032905D0032A03D0032B5A
S11305B001D0032307BD022307BD00B5FFF7E6FF03
S11305C0036001219940043F3E60134E0E4302F044
S11305D0A8FE00BD0FB50F4801691E2902D10F48BE
S11305E0FFF7EBFF0FBD0FB50A4881691E2904D13F
S11305F0FFF7F0FF0A48FFF7E0FF0FBD0FB505480E
S1130600016A1E2904D1FFF7EEFF0648FFF7D5FF64
S11306100FBD000028F0FF1F00CF000038F0FF1FBF
S113062040F0FF1F48F0FF1F00B50169282903D1DE
S11306304369FFF774FF190000BD00B581692829DB
S113064003D1C369FFF76BFF190000BD03B543482D
S113065081690161C169416101E003B53F48016AF3
S11306608161416AC1611E21016203BD0EB58269C7
S1130670036A9A420AD1072A08D8043F3E60D6008A
S1130680FFF784FF1E43836102F04BFE0EBD0EB5DF
S113069001698269036A914202D0994200D00EBD79
S11306A0043F3E60CE00FFF771FF1E43036102F07A
S11306B038FE0EBD60070000000009616C6C6F63BA
S11306C061746F720FB5100002F047FC0200043F22
S11306D03E601688090B2148032918D1FFF783FFD0
S11306E00169062901D100F099FC8269282A01D107
S11306F000F094FCFFF7BAFFFFF796FFC900826988
S11307000E43164302F00DFEFFF7A0FF0FBD0429B0
S11307101CD1FFF768FFFFF7A9FFFFF785FF826988
S1130720282A0BD1043F3E60C669FFF72FFF83617F
S1130730043F3E601E001A0002F05CFAC9000E433A
S1130740164302F0EEFDFFF781FF0FBD40CF0132EB
S113075090470FBD0FB5C1E70FB5DAE728F0FF1FCB
S1130760100800000000097469647975702D7261C5
S113077000B500F005F800F008F800F00BF800BD33
S11307800FB53048FFF7A8FE0FBD0FB52E48FFF791
S1130790A3FE0FBD0FB52D480169062202611E2973
S11307A005D1043F3E602A4E02F0BBFD2CE028290F
S11307B021D1436901681E2908D041688B4205D1C3
S11307C0043F3E60234E02F0ACFD1DE081681E290B
S11307D008D0C1688B4205D1043F3E601E4E02F032
S11307E0A0FD11E0043F3E601E00043F3E6006266B
S11307F002F000FA08E0062906D0043F3E60154ED8
S1130800C9000E4302F08DFD00F010F80FBDC04684
S11308105C080000000015696E697472656769738D
S1130820746572616C6C6F6361746F7207481E212A
S113083001608160016281610621016100218162A0
S11308407047000048F0FF1F40F0FF1F28F0FF1F13
S113085040CF0000064600000E460000800800005D
S113086042020432647570003868043F3E60043FFD
S11308703860704700B500F0FDFB00F0FBFB00BDE5
S1130880A00800006202053264726F70043740CF22
S1130890704700B500F09EFB00F09CFB00BDC04615
S11308A0C0080000440005327377617007CF043F2D
S11308B03860043F3E60043F3A600E007047C04613
S11308C0D4080000620004326E69700007CF043F50
S11308D038607047F0080000440005326F76657296
S11308E0B868043F3E60043F3860FE687047C04605
S11308F014090000440005327475636B07CF043F8C
S11309003860043F3E60043F3A60043F3960043F6E
S1130910386070473809000046000432726F740072
S11309203868B9683A69B86039613A6079687E6054
S1130930FE68F9607047C0465C0900004600053255
S11309402D726F743868B9683A6938613960BA6071
S1130950F968FE607E6879607047C04680090000CF
S1130960200203323E7201CF01B440B440CF70473D
S113097000B500F053FB00F0F7FB00F0F5FB00BD01
S1130980A809000020020332723E043F3E6040BCCE
S113099001BC043F3860704700B500F0FEFB00F076
S11309A0FCFB00F03BFB00BDD40900002002033235
S11309B07240043F3E60019E043F3E60009E7047CB
S11309C000B5043F3E600B4E03F0C3F903F0BEF9DB
S11309D000BDC046FC090000200206327264726F3A
S11309E0700002B0704700B5043F3E60024E02F052
S11309F098FC00BD0198000002B00000140A000039
S1130A0042000364322F3868F10776104008084327
S1130A1038607047280A000062000364322A38688C
S1130A200018764138607047440A000042000464AC
S1130A30736872003868F107760840080843386024
S1130A407047C0465C0A00006200046473686C006E
S1130A5038680018764138607047C046700A000054
S1130A604200046461627300002E08D47047C046DB
S1130A70900A0000420007646E6567617465386817
S1130A800021C043F64301304E4138607047C046F0
S1130A90A80A0000640002642D0007CF121AB141B5
S1130AA00E00043F3A607047C00A0000640002640C
S1130AB02B0007CF12184E41043F3A607047C046DE
S1130AC0D40A0000610003733E64043F3E60F617DD
S1130AD07047C046000B0000420003756D2A386859
S1130AE0030073433B60010C320C0B005343B6B25A
S1130AF080B24E4350433618360CF6187047C04641
S1130B00300B00004200026D2A003868C11705D07E
S1130B1040423860F01704D07642E0E7F017DED0A8
S1130B20764200B5FFF7DBFFFFF7A9FF00BDC04623
S1130B30700B000044000375642A07CF56434143F9
S1130B407618010C130C59437618010C80B292B23A
S1130B505143434350430022C91852411204B6186A
S1130B600A04090C80184E41043F38607047C0469F
S1130B70040C000044000475646D2A0010B50024C0
S1130B80043F3E607E68043F3E603E69FFF7A7FF76
S1130B90310040CF300040CF043F3E603E68043F08
S1130BA03E60FE6803B4FFF79AFF03BC330040CFF6
S1130BB0320040CF043F3E603E68043F3E603E69E1
S1130BC00FB4FFF78CFF0FBC9219634140CF891912
S1130BD06241634140CF043F3E607E68043F3E6013
S1130BE0FE680FB4FFF77BFF0FBC9219634140CF3F
S1130BF089196241634140CF1E003A607960B86050
S1130C0010BDC046280C00004300022A2F0000B586
S1130C1040B440CFFFF779FF043F3E6040BC00F092
S1130C204FF8043700BDC0464C0C00004300052AB1
S1130C302F6D6F6400B540B440CFFFF766FF043FEB
S1130C403E6040BC00F03CF800BDC046700C0000A3
S1130C50430003752A2F00B540B440CFFFF73FFF90
S1130C60043F3E6040BC00F01CF8043700BDC046A1
S1130C70940C0000430006752A2F6D6F640000B5C4
S1130C8040B440CFFFF72BFF043F3E6040BC00F070
S1130C9008F800BDB40C0000430006756D2F6D6F9D
S1130CA0640000B5043F3E60002600F01AF840CF0F
S1130CB0043700BDD40C00004300056D2F6D6F6434
S1130CC000B5043F3E60F61700F034F840CF043717
S1130CD000BDC046280D000044000675642F6D6FEA
S1130CE0640030B4002300227968B86835003C6899
S1130CF040264000494152415B41AB4202D804D3F3
S1130D00A24202D3121BAB410130013EF1D10E00CD
S1130D1038607B60BA6030BC704730B400237A68B6
S1130D20B9680020E2E7C046A00D00004400056455
S1130D302F6D6F6400B5F01719D0FFF7A0FEFFF711
S1130D40B5FDF0170CD0FFF79AFEFFF7AFFDFFF7E4
S1130D50C8FFFFF7ABFDFFF792FEFFF7A7FD00BD4D
S1130D60FFF7A4FDFFF7BDFFFFF789FE00BDFFF706
S1130D709DFDF0170ED0FFF782FEFFF797FDFFF7FA
S1130D80B0FFFFF77CFEFFF791FDFFF778FEFFF75A
S1130D908DFD00BDFFF78AFDFFF7A3FF00BDC04630
S1130DA0B80D0000440002642F0000B5FFF7C2FF35
S1130DB0FFF78CFD00BDC046000E00004400026633
S1130DC02A0000B5F0170DD0FFF759FEFFF76EFDAE
S1130DD0F0170DD0FFF753FEFFF7D0FE40CF01CF41
S1130DE0386000BDFFF762FDF017F5D0FFF747FE4E
S1130DF0FFF7C4FE40CF01CF3860FFF740FE00BDCF
S1130E004C0E0000440002662F0000B5F0170ED00F
S1130E10FFF735FEFFF74AFDF0170ED0FFF72FFE60
S1130E20FFF744FDFFF779FFFFF750FD00BDFFF723
S1130E303DFDF017F4D0FFF722FEFFF737FDFFF773
S1130E406CFFFFF71CFEFFF741FD00BD600E0000C4
S1130E5020000232210006CF3160726040CF70471B
S1130E60740E0000200002324000043F70683860B5
S1130E7036687047940E000044000364753C07CF45
S1130E808E4204D801D1904201D800267047002632
S1130E90F6437047B40E000044000364753E07CF68
S1130EA0B14204D801D1824201D8002670470026FD
S1130EB0F6437047D40E0000440002643C0007CFA0
S1130EC08E4204DC01D1904201DC002670470026EA
S1130ED0F6437047F40E0000440002643E0007CF5E
S1130EE0B14204DC01D1824201DC002670470026B5
S1130EF0F6437047040F000062000364303C04377B
S1130F00F6177047200F000042000364303D01CF04
S1130F10002801D000267047013EB6417047C04604
S1130F203C0F0000440003643C3E07CF904201D1D3
S1130F30761A01D00026F6437047C046580F0000C9
S1130F40440002643D0007CF904201D00026704760
S1130F50761A013EB64170476C0F000020000373FF
S1130F607040043F3E603E007047C0467C0F000066
S1130F70200003737021370040CF7047900F0000AA
S1130F80200003727040043F3E606E467047C046C6
S1130F90A00F0000200003727021B54640CF7047B7
S1130FA0C40F0000610203647570043F3E60704723
S1130FB006B5FFF70FFB01694269FFF783FA016188
S1130FC0426106BDF00F000061020464726F70009C
S1130FD040CF704700B501691E2905D1043F3E602A
S1130FE09E4E02F09EF900BDFFF730FB00BDC046E7
S1130FF0081000006100043F64757000002E01D0E9
S1131000043F3E607047C04634100000620204731F
S11310107761700039683E600E0070470CB5FFF7C9
S1131020E2FA02698369036182614269C3694361C7
S1131030C2610CBD601000006202036E6970043767
S1131040704700B5FFF7C6FA81691E2902D0FFF781
S113105004FB00BD043F3E60804E02F062F900BD17
S1131060881000006202046F76657200043F3E60DF
S11310707E68704700B5FFF7B6FA8169C269FFF769
S113108021FA0161426100BDB410000062020474DF
S113109075636B0001CF083F7E603860704700B510
S11310A0FFF7A1FAFFF7FBF90169016241694162A7
S11310B000BDC046EC100000630203726F7403CFDE
S11310C0083F78603E600E0070470EB5FFF796FA51
S11310D001698269036A8161026203614169C269CB
S11310E0436AC161426243610EBDC04610110000F3
S11310F06302042D726F740003CF083F7E60396071
S11311000600704700B5FFF7E0FFFFF7DEFF00BD04
S1131110241100002000047069636B00B0003E5885
S11311207047C0463C110000000005646570746897
S11311304B49C91B043F3E608E087047581100009C
S113114000000672646570746800043F3E606E4679
S11311504449891B8E087047881100002002023E12
S1131160720040B440CF704700B5FFF733FAFFF781
S11311705BFA043F3E603C4E01228A40164302F073
S1131180D0F8FFF763FA00BDB81100002002027224
S11311903E00043F3E6040BC704700B5FFF792F943
S11311A0FFF7F4F90361043F3E60304E01229A4098
S11311B0164302F0B6F800BDD411000020020272FA
S11311C04000043F3E60009E704700B502F0BEFD43
S11311D000BDC046F41100002002057264726F70F5
S11311E001B0704700B5043F3E60214E02F099F80B
S11311F000BDC04608120000200005727069636BD0
S1131200B6006E4436687047341200000000047261
S11312106F6C6C00002E01D140CF7047B00039587C
S1131220C019031F1A6802600438013EF9D104375B
S11312300E007047741200000000052D726F6C6C74
S1131240002E01D140CF7047386839464A680A6099
S11312500431013EFAD1086040CF704704370000E2
S11312605CF2FF1F5CF3FF1F00B4000000BC000031
S113127001B000008C1200006000047472756500F7
S1131280043F3E600026F6437047C046A0120000AB
S113129060000566616C7365043F3E60002670471C
S11312A0B4120000203203616E6401CF064070471F
S11312B00040C046C812000020420362696301CFA7
S11312C0B043060070478043DC1200002032026FF6
S11312D0720001CF064370470043C046F01200007D
S11312E0203203786F7201CF464070474040C046B9
S11312F010130000410003636C7A300006D000260E
S1131300400002D001D20136FAE770472026704728
S113131020130000610003726F720120C641704700
S113132034130000610003726F6C0020B61946414B
S11313307047C046681300006202076172736869EF
S1131340667401CF30410600704700B5043F3E602B
S1131350A54E043F3E60A54EFFF745F941691F299C
S113136028D91F21416125E0901300006202067212
S113137073686966740001CFF0400600704700B5D9
S1131380043F3E609A4E043F3E609A4E12E0C046CF
S11313901C1400006202066C73686966740001CF55
S11313A0B0400600704700B5043F3E60924E043FD3
S11313B03E600026FFF717F90169282903D040CFC2
S11313C0FFF7CAF900BD04374169FFF73FF9002967
S11313D001D140CF00BD1F290FD889010E430269F6
S11313E0D2001643FFF732F9FFF76CF8FFF7CEF897
S11313F003611E4301F095FF00BD40CFFFF726F9BE
S1131400FFF760F8FFF7C2F80361043F3E607B4ECC
S11314101B021E4301F085FF00BDC04640140000BE
S1131420610202303D00013EB641704700B500F054
S1131430A8FE043F3E60724E00F0EEFE00BDC046C2
S113144060140000610203303C3E013EB641F643A5
S1131450704700B5FFF7EAFF00F0F1FE00BDC0469B
S11314607C140000610202303C00F617704700B59E
S1131470043F3E60634E00F0CFFE00BDA4140000A4
S11314804202023E3D0001CFB04201DA002601E0F3
S11314900026F6437047043F3E605B4E043F3E60C7
S11314A05A4EC5E0CC1400004202023C3D0001CF7C
S11314B0B04201DD002601E00026F6437047043FF8
S11314C03E60534E043F3E60524EB1E0F4140000BF
S11314D04202013C01CFB04202DA0026F64300E0AA
S11314E000267047043F3E60484E043F3E60464E2F
S11314F09EE0C0461C1500004202013E01CFB042EE
S113150002DD0026F64300E000267047043F3E60FB
S1131510404E043F3E603E4E8AE0C0464015000007
S1131520620203753E3D01CF861BB641F643704708
S1131530043F3E60384E043F3E60384E78E0C0467B
S113154064150000620203753C3D01CF361AB641B2
S1131550F6437047043F3E60314E043F3E60314ED7
S113156066E0C04684150000620202753C0001CFAB
S1131570861BB6417047043F3E60284E043F3E60E0
S1131580254E55E0A4150000620202753E0001CF0D
S1131590361AB6417047043F3E60224E043F3E6017
S11315A01F4E45E0C81500006202023C3E0001CF18
S11315B0361A01D00026F6437047043F3E601A4EA7
S11315C0043F3E6034E0C046E81600006202013D7C
S11315D001CF361A013EB6417047043F3E60134EB8
S11315E0043F3E6024E000000041000000100000C1
S11315F0C0400000000800008040000000200000FF
S113160080410000C017000000DB000000DA000089
S113161000DC000000DD000000D3000000D2000068
S113162000D8000000D9000000D0000000D1000064
S113163000B5FEF7D8FF036A282B0AD1FEF7A6FFF0
S11316400362043F3E60466A043F3E601E0001F0B0
S1131650D1FA8269282A03D1FFF7E0FC043700E0BD
S113166040CF0169282909D14169FF2906D8043FDF
S11316703E60334E0E438169090206E0FEF7D4FF53
S1131680043F3E602F4ED20016430E4301F049FE44
S1131690FEF7DCFFFEF7DAFF866240CF00BD0FB530
S11316A02948816A00291DD0043F3E60866A0236BB
S11316B000218162FEF706FFFEF768FF036101F077
S11316C030FE043F3E60214E00F05EFD00F0B7FDA9
S11316D0043F3E601E4E01F024FE043F3E601B4E5C
S11316E000F052FD0FBDC046FC1600006200036D01
S11316F0696E01CFB04200DA06007047101700008F
S11317006200036D617801CFB04200DB06007047D0
S113171028170000620004756D61780001CFB042A3
S113172000D306007047C0465417000062000475D9
S11317306D696E0001CFB04200D80600704700000A
S1131740002800008042000028F0FF1F0020000055
S113175000E00000941700000000046D6F7665003F
S113176007B5310040CF320040CF00290FD0B2423C
S11317700DD006D3013E013A705C50540139FBD1BF
S113178005E030781070013601320139F9D140CFCB
S113179007BDC046B817000000000466696C6C0001
S11317A0300040CF310040CF002902D001397054BD
S11317B0FCD140CF7047C04604180000200201400D
S11317C03668704700B5FEF705FF043F3E609E4E45
S11317D00369282B08D143697C21194009010E4370
S11317E07C218B43FEF7A8FEDB001E43FEF72EFF91
S11317F0FEF768FEFEF7CAFE03611E4301F091FD89
S113180000BDC046581800002002012103CF3060FB
S11318100E00704700B5FEF7E6FE043F3E608B4EB7
S11318200369282B08D143697C21194009010E431F
S11318307C218B43FEF780FEDB001E438369282B4B
S113184002D1C369FEF76BFE1E4301F06AFDFEF789
S1131850FDFEFEF7FBFE00BD901800002002022BE7
S1131860210003CF3268121832600E00704700B5B1
S1131870FEF7B9FEFFF79CFBFFF7A4FFFFF725FC7B
S113188000F02BFCFFF7CAFBFFF7C4FF00BDC04606
S1131890DC1800002002026840003688704700B55A
S11318A0FEF798FE043F3E60694E0369282B08D179
S11318B043693E21194049010E433E218B43FEF703
S11318C03BFEDB001E43FEF7C1FEFEF7FBFDFEF709
S11318D05DFE03611E4301F024FD00BD34190000C8
S11318E020020268210003CF30800E00704700B54B
S11318F0FEF779FE043F3E60564E0369282B08D15B
S113190043693E21194049010E433E218B43FEF7B2
S113191013FEDB001E438369282B02D1C369FEF743
S1131920FEFD1E4301F0FDFCFEF790FEFEF78EFE69
S113193000BDC0466C190000200203682B2103CFB0
S11319403288121832800E00704700B5FEF74BFE45
S1131950FFF72EFBFFF7A3FFFFF7B7FB00F0BDFB7C
S1131960FFF75CFBFFF7C3FF00BDC046B8190000DA
S11319702002026340003678704700B5FEF72AFE65
S1131980043F3E60344E0369282B08D143691F216C
S1131990194089010E431F218B43FEF7CDFDDB0067
S11319A01E43FEF753FEFEF78DFDFEF7EFFD0361C8
S11319B01E4301F0B6FC00BD101A000020020263B1
S11319C0210003CF30700E00704700B5FEF70BFE08
S11319D0043F3E60214E0369282B08D143691F212F
S11319E0194089010E431F218B43FEF7A5FDDB003F
S11319F01E438369282B02D1C369FEF790FD1E4361
S1131A0001F08FFCFEF722FEFEF720FE00BDC0466B
S1131A10601A0000200203632B2103CF32781218CE
S1131A2032700E00704700B5FEF7DDFDFFF7C0FA17
S1131A30FFF7A3FFFFF749FB00F04FFBFFF7EEFAB8
S1131A40FFF7C3FF00BD0000006800000060000055
S1131A500088000000800000007800000070000092
S1131A60A01A0000200204626973210003CF3268C7
S1131A70024332600E00704700B5FEF7B4FDFFF775
S1131A8097FAFFF79FFEFFF720FB043F3E60AB4E43
S1131A90FEF760FEFFF7C2FAFFF7BCFE00BDC046CA
S1131AA0E01A0000200204626963210003CF326857
S1131AB0824332600E00704700B5FEF794FDFFF7D5
S1131AC077FAFFF77FFEFFF700FB043F3E609C4E72
S1131AD0FEF742FEFFF7A2FAFFF79CFE00BDC046E8
S1131AE0201B0000200204786F72210003CF3268AB
S1131AF0424032600E00704700B5FEF774FDFFF7F8
S1131B0057FAFFF75FFEFFF7E0FA043F3E608D4EA1
S1131B10FEF720FEFFF782FAFFF77CFE00BDC04609
S1131B20541B0000200204626974400001CF36682F
S1131B300640013EB641F643704700B5FEF753FD3B
S1131B40FFF740FE043F3E607F4EFEF703FEFFF7C3
S1131B5080FC00BD941B00002002056862697321AB
S1131B6003CF3288024332800E00704700B5FEF77F
S1131B703AFDFFF71DFAFFF792FEFFF7A6FA043FBE
S1131B803E606E4EFEF7E6FDFFF748FAFFF7AFFE44
S1131B9000BDC046D41B00002002056862696321B1
S1131BA003CF3288824332800E00704700B5FEF7BF
S1131BB01AFDFFF7FDF9FFF772FEFFF786FA043FFF
S1131BC03E605F4EFEF7C8FDFFF728FAFFF78FFE71
S1131BD000BDC046141C000020020568786F722105
S1131BE003CF3288424032800E00704700B5FEF7C2
S1131BF0FAFCFFF7DDF9FFF752FEFFF766FA043F40
S1131C003E60504EFEF7A6FDFFF708FAFFF76FFEA1
S1131C1000BDC046481C000020020568626974408B
S1131C2001CF36880640013EB641F643704700B501
S1131C30FEF7D9FCFFF733FE043F3E60424EFEF749
S1131C4089FDFFF706FC00BD881C00002002056327
S1131C506269732103CF3278024332700E007047F9
S1131C6000B5FEF7C0FCFFF7A3F9FFF786FEFFF708
S1131C702CFA043F3E60314EFEF76CFDFFF7CEF9BF
S1131C80FFF7A3FE00BDC046C81C00002002056388
S1131C906269632103CF3278824332700E00704749
S1131CA000B5FEF7A0FCFFF783F9FFF766FEFFF728
S1131CB00CFA043F3E60224EFEF74EFDFFF7AEF9EC
S1131CC0FFF783FE00BDC046081D00002002056327
S1131CD0786F722103CF3278424032700E00704721
S1131CE000B5FEF780FCFFF763F9FFF746FEFFF748
S1131CF0ECF9043F3E60134EFEF72CFDFFF78EF91E
S1131D00FFF763FE00BDC0464C1D000020020563C2
S1131D106269744001CF36780640013EB641F6430D
S1131D20704700B5FEF75FFCFFF727FE043F3E60F7
S1131D30054EFEF70FFDFFF78CFB00BD00430000CE
S1131D408043000040400000004000005C1E000092
S1131D50000006666C6173682100300040CF3100DA
S1131D6040CF854B984268D3844B99422ED00322AE
S1131D7002402CD102689A4246D1814A13788022CB
S1131D801A40FAD030221A4002D07D4A3023137010
S1131D907C4A062313707C4A1070000A7B4A107038
S1131DA0000A7B4A10707B4A1170090A7A4A117042
S1131DB0090A7A4A1170090A794A1170704A802313
S1131DC013706F4A137880221A40FAD0704700F0DB
S1131DD0BFFD30416464726573732068617320745D
S1131DE06F20626520342D616C69676E65642066BE
S1131DF06F722077726974696E6720666C617368AC
S1131E0020210A0002F05EFC00F0A2FD29466C616C
S1131E107368206C6F636174696F6E2063616E6EAA
S1131E206F74206265207772697474656E207477AC
S1131E3069636520210A02F045FC00F089FD19431D
S1131E40616E6E6F7420777269746520696E746F49
S1131E5020636F726520210A02F034FCE01E00004A
S1131E6000000E666C61736870616765657261730A
S1131E7065000FB5300040CF3F4B984220D3032379
S1131E8098433F4A137880221A40FAD030221A40ED
S1131E9002D03B4A302313703A4A092313703A4A5A
S1131EA01070000A394A1070000A394A1070344A16
S1131EB080231370324A137880221A40FAD00FBD5F
S1131EC000F046FD1443616E6E6F74206572617399
S1131ED06520636F726520210A0002F0F3FBC0469F
S1131EE05C1F000000000A6572617365666C6173B3
S1131EF06800214872B62B492B4A036893421CD0D0
S1131F00043F3E600600043F3E6000F021FD1045A2
S1131F107261736520626C6F636B206174202000B2
S1131F2000F08EFD00F014FD0C2066726F6D2046EB
S1131F306C6173680A00FFF79CFF04308842DCD1AF
S1131F4000F006FD1246696E69736865642E2052BE
S1131F506573657420210A0002F046FCF41F00003A
S1131F6000000E6572617365666C61736866726FFA
S1131F706D00300040CFBDE700600000FFFFFFFFB1
S1131F800000024007000240040002400500024035
S1131F900600024008000240090002400A00024014
S1131FA00B00024000000200FFFFFFFF46486021D3
S1131FB00022028002300139FBD17047424860217F
S1131FC00288002A12D000F0C3FC1D556E706169AE
S1131FD07265642031362D62697420466C617368C1
S1131FE02077726974652E0A02F06CFB02300139A5
S1131FF0E6D17047CC20000000000768666C61736E
S1132000682130B5320040CF500813D300F0A0FC53
S11320101E68666C61736821206E65656473206553
S113202076656E206164647265737365732E0A004D
S113203002F048FB022353402348202104884588AA
S11320402D042C439C422AD006300139F6D11E4877
S11320502021048845882D042C431AD006300139E8
S1132060F7D100F075FC27546F6F206D616E7920F5
S1132070756E7061697265642031362D62697420F1
S1132080466C617368207772697465732E0A02F076
S113209019FB0280120C4280868040CF30BD0221A1
S11320A0114003D0023A8188360401E08188090492
S11320B00E43043F3E601600002101804180818070
S11320C0FFF74BFE30BD00005CF3FF1FF82000005B
S11320D06202012B01CF3618704700B5FEF783FA70
S11320E0043F3E60D14E043F3E60D14E81692829B1
S11320F012D1FEF793FF0FE0742100006202012D5C
S113210001CF861B704700B5FEF76DFA043F3E60B1
S1132110C84E043F3E60C84E016928290ED141696A
S1132120FF290BD840CFFEF7A1FA0E4381690902BB
S11321300E4301F0F6F8FEF789FA00BD0437FEF706
S113214073FA8269282A03D1C369FEF7E8F91A00F1
S11321508901D2000E431643FEF778FAFEF776FAA9
S1132160FEF7B0F9FEF712FA03611E4301F0D9F845
S113217000BDC046A0210000610202312D00013ED5
S11321807047043F3E60AD4E00B5FEF723FAFEF7FC
S11321907EFA016909020E4301F0C3F800BDC0468E
S11321A0B821000061020563656C6C2B043670472E
S11321B0043F3E60A24EE7E7D021000061020231F5
S11321C02B0001367047043F3E609E4EDCE7C0465C
S11321D0E8210000610202322D00023E7047043FF4
S11321E03E60994ED0E7C0460022000061020232F0
S11321F02B0002367047043F3E60944EC4E7C0464D
S1132200302200006100066E6567617465007642E5
S11322107047043F3E608E4E00B5FEF7DBF9FEF7D3
S113222036FA01690E43C9000E4301F07AF800BD85
S1132230482200006102036E6F74F6437047043F46
S11322403E60844EE8E7C0466022000061020373EA
S1132250687276087047043F3E607F4EDCE7C046F4
S11322607022000061020373686C7600704706E018
S113227088220000610202322A0076007047043F7F
S11322803E604026C8E7C046A02200006102056304
S1132290656C6C73B6007047043F3E608026BBE7F4
S11322A0B8220000610202322F0076107047043F0A
S11322B03E606A4EB0E7C046CC2200006100036174
S11322C06273F017361846407047C0461423000066
S11322D0420005752F6D6F64310040CF002903D192
S11322E0043F3E6000267047012200238E4206D937
S11322F0003104D45200490001D48E42FAD88E42EF
S113230001D3761A134349085208F8D1043F3E60BA
S11323101E007047842300004200042F6D6F640088
S113232000B5300040CF002E1CDA764200280CDACB
S11323304042043F3E600600FFF7CEFF300040CF2E
S11323407642043F3E60060000BD043F3E60060046
S1132350FFF7C2FF300040CF40427642043F3E6068
S1132360060000BD002807DA4042043F3E60060034
S1132370FFF7B2FF764200BD043F3E600600FFF760
S1132380ABFF00BD982300004200036D6F6400B5ED
S1132390FFF7C6FF40CF00BDAC2300004200012F71
S11323A000B5FFF7BDFF043700BDC046BC230000E5
S11323B02032012A01CF464370474043D023000016
S11323C06100046576656E00012030403618704760
S11323D0E82300008100046261736500043F3E60ED
S11323E01F4E70470A00000000240000000006622F
S11323F0696E617279001A48022101607047C04613
S113240018240000000007646563696D616C14485A
S11324100A2101607047C046AC2400000000036834
S113242065780F48102101607047000000300000FB
S11324300018000000380000001A000001380000F5
S113244004300000013000000238000002300000B7
S113245040420000C043000040080000401000005B
S1132460FC2F002080498148016081498148016036
S11324708149824801608249824801608248016042
S113248000218248017082480170824801708248AC
S113249001700621814801700021814801701A21D0
S11324A0804801700C21794801707047C8240000ED
S11324B0810009686F6F6B2D656D6974043F3E6020
S11324C0794E7047BE250000E424000081000868AE
S11324D06F6F6B2D6B657900043F3E60734E7047E0
S11324E0E62500000425000081000A686F6F6B2D4B
S11324F0656D69743F00043F3E606D4E704714265D
S11325000000C04620250000810009686F6F6B2D14
S11325106B65793F043F3E60664E70474626000077
S11325204025000081000A686F6F6B2D7061757320
S11325306500043F3E60604E704796470000C04609
S113254058250000000004656D6974000FB55648F5
S113255000F029F80FBDC0466C2500000000036B95
S113256065790FB5514800F01EF80FBD80250000B5
S1132570000005656D69743F4D4800688746C04694
S1132580942500000000046B65793F004948006809
S11325908746C046AC250000000005706175736570
S11325A045480068874600688746C046D425000031
S11325B000000B73657269616C2D656D697400B5FB
S11325C000F028F8002E40CFFAD03C48067040CFE7
S11325D000BDC0460026000000000A7365726961F0
S11325E06C2D6B65790000B500F02DF8002E40CFFE
S11325F0FAD03248043F3E600678F6B200BDC046C9
S11326003426000000000C73657269616C2D656DE1
S113261069743F0000B5FFF7C3FF29480821017022
S1132620043F3E600026264880220178114000D0F5
S1132630F64300BDC426000000000B736572696197
S11326406C2D6B65793F00B5FFF7AAFF1C48082184
S11326500170043F3E600026194820220178114091
S113266000D0F64300BD0000803F000038800440E5
S1132670300400F03480044000000004048004406E
S113268000020000049004400890044003A00640A7
S113269002A0064006A0064005A006400AA0064087
S11326A000A0064001A00640F82F0020F42F0020CF
S11326B0F02F0020EC2F0020E82F002007A0064078
S11326C004A00640E82600000000076365787065F2
S11326D0637400B5386801B40130386000F00BF859
S11326E001BC067040CF00BD6027000000000661F9
S11326F063636570740000B502CF01390022FFF7EF
S113270030FF300040CF7F2809D0202819D2092873
S113271016D00A281FD00D281DD00828EFD1002A72
S1132720EDD000F015F903082008002AE7D0885CF2
S1132730013A80230340E2D040230340F5D0DEE792
S11327402020B242DBD2043F3E600600FFF7FEFECB
S113275001328854D3E7160000F0A8F800BDC04643
S113276074270000400003746962043F3E602B4EEE
S11327707047C0468C2700008100033E696E043F09
S11327803E60274E704700000000C046B42700009A
S113279082000E63757272656E742D736F75726349
S11327A06500043F3E601F4E70470000000094F037
S11327B0FF1FC046D0270000000009736574736FC3
S11327C075726365174802CF0660416040CF704759
S11327D0F0270000000006736F7572636500043F04
S11327E03E60104E043F7068386036687047C046DB
S11327F02828000000000571756572790FB5084836
S113280000210160FFF7B1FF043F3E60043F3E60DA
S1132810C826FFF770FFFFF7D5FF0FBD94F0FF1F29
S1132820E42F0020DC2F002078280000000007633C
S11328306F6D706172650FB5310040CF01CF884272
S113284002D040CF00260FBD02CF002810D001389F
S11328500A5C335C412A02D35B2A00D22032412B2A
S113286002D35B2B00D220339A42EED000260FBD58
S11328700026F6430FBDC0468C280000000002630A
S1132880720000B500F064F8010A00BDA028000041
S1132890000002626C00043F3E6020267047C04680
S11328A0B42800000000057370616365043F3E6056
S11328B020264BE6D428000000000673706163658F
S11328C0730000B5002E03DDFFF7F0FF013EFBD1DE
S11328D040CF00BDE42800005000065B63686172CD
S11328E05D0005E0FC2800000000046368617200DC
S11328F000B501F009FC40CF367800BD0C2900007A
S113290050040128043F3E60292606E028290000DF
S11329105004015C043F3E60002600B501F0FEFB5C
S1132920043740CF00BDC046702900001000022EBD
S11329302200A14800B5043F3E60060000F0E2F921
S1132940043F3E60222601F0E9FB00F024FD00BDB7
S11329500AB4043F3E607646013E337801210133D8
S113296019405B187146C9188E460ABC3CE0C04643
S1132970982900001000026322009048DAE7043F1F
S11329803E607646013E33780121013319405B18DD
S11329907146C9188E467047C4290000100002739E
S11329A022008748C6E7043F3E607646043F3E6007
S11329B0013E36780121731C19405B187146C91811
S11329C08E467047DC290000000005636F756E7445
S11329D00136043F3E60013E36787047042A000009
S11329E0000005637479706501B53078002807D05C
S11329F00136043F3E603678FFF7A8FD0138F7D171
S1132A0040CF01BD342A00000000047479706500D1
S1132A10310040CF300040CF00B5002908D000225B
S1132A20043F3E60865CFFF791FD01329142F7D18D
S1132A3000BDC046702A00000000046865782E00BE
S1132A4007B5310040CF20200F220438043F3E60F8
S1132A500E00C6401640092E01D9373600E0303644
S1132A60FFF774FD0028F0D1FFF720FF07BDC04633
S1132A70802A0000000003682E731FB5514C0EE03D
S1132A80902A0000000003752E731FB54E4C06E01B
S1132A90102B00000000022E73001FB54B4C4C4954
S1132AA0C91B89084B4A106803B40A201060FFF759
S1132AB04FFF08537461636B3A205B00043F3E6030
S1132AC00E0001F009FDFFF743FF025D200003BC87
S1132AD0404A106000290AD03F4A106806B4043FF7
S1132AE03E600600A04706BC043A0139F5D1FFF761
S1132AF02FFF0620544F533A2000043F3E60360017
S1132B00A047FFF725FF04202A3E0A001FBDC04648
S1132B10DC2B0000000005776F72647300B5FFF7CB
S1132B2017FF06776F7264730A0000F072FEFFF7F6
S1132B300FFF09416464726573733A20043F3E6079
S1132B40FFF77EFFFFF704FF064C696E6B3A200027
S1132B50043F3E603668FFF773FFFFF7F9FE074650
S1132B606C6167733A20043F3E60B688FFF768FFE4
S1132B70FFF7EEFE06436F64653A2000B01D00F0D7
S1132B8083FE043F3E600600FFF75AFFFFF7E0FEB6
S1132B90064E616D653A2000043F3E600636FFF73D
S1132BA023FFFFF7D5FE010A00F04BFE300040CFB3
S1132BB0BDD040CF00BD0000502900007E29000098
S1132BC0A6290000412A0000C7440000D94400009F
S1132BD05CF2FF1FFC2F002058F2FF1FF82C0000AE
S1132BE000001072656769737465726C697465724C
S1132BF0616C2C003FB5350040CF2900C900294342
S1132C002D029E480543FF2300223000D040984304
S1132C1001D00132F9E73000D04018402843043F86
S1132C203E60060000F07DFB954805431800904087
S1132C30864310D000243000E040984301D0013492
S1132C40F9E7101B043F3E600E008001064300F0CC
S1132C5068FB2200DFE7002A06D0043F3E600E0036
S1132C609201164300F05DFB40CF3FBD1FB531001C
S1132C7040CF844C0C43C9000C434901300040CF81
S1132C80020EFF231A407D4B0B431343043F3E6067
S1132C901E0000F046FB043F3E60260000F041FBAE
S1132CA0020CFF231A40784B0B431343043F3E604E
S1132CB01E0000F036FB043F3E60260000F031FBAE
S1132CC0020AFF231A40704B0B431343043F3E6038
S1132CD01E0000F026FB043F3E60260000F021FBAE
S1132CE00200FF231A40684B0B431343043F3E602A
S1132CF01E0000F016FB1FBD682D000000000563D8
S1132D00616C6C2C0FB5330000F062FE300040CFD4
S1132D101B1A043B5D49194000290ED05C4A9142BC
S1132D200BD00136043F3E600026FFF763FF043FEB
S1132D303E60584E00F0F5FA0FBD40CF5B08564890
S1132D40564919400843DB0A554919400904084308
S1132D509B0A0121194089060843043F3E6006008E
S1132D6000F009FB0FBDC046BC2D00000000086C3C
S1132D7069746572616C2C0008B5043F3E60494E6D
S1132D8000F0CFFA043F3E60474E00F0CAFA474BCA
S1132D903000184098420BD1F643043F3E600626AB
S1132DA0FFF728FF043F3E60414E00F0BAFA08BD29
S1132DB0043F3E600626FFF71DFF08BDE42D00001A
S1132DC00000066372656174650000B500F03DF8AB
S1132DD02E20000203308047043F3E607646013EC9
S1132DE000BDC0463C2E0000200005646F65733EA4
S1132DF02E20000203308047043F3E607646013EA9
S1132E007047043F3E607646013E2A4A13682A49C9
S1132E1009680220084000D10231023111600136F4
S1132E20043F3E600026FFF721FF043F3E60194E39
S1132E3000F077FA136000F0E0F900BDC02E000046
S1132E400000073C6275696C647300B500F06EFBAA
S1132E5000F0BEFD0220064040CF04D1043F3E6096
S1132E60362600F05EFA043F3E60144E00F059FA34
S1132E70043F3E60102600F0C1FA00BD00200000AF
S1132E800010000000020000003000000100C0FF3C
S1132E900000C0FF8047000000F800F0FF070000BA
S1132EA0FF030000043F00003E6000000000FFFF3D
S1132EB0F643000000F0FF1F14F0FF1F00B50000F0
S1132EC0CC2E00005000035B275D03E0E42E0000DD
S1132ED00000012700B501F017F900F014FD3000DF
S1132EE040CF00BD242F0000100008706F73747071
S1132EF06F6E650000B5FFF7EDFF102101400DD1A5
S1132F002021014005D0FFF737FF043F3E60E04E2B
S1132F1004E0FFF731FF043F3E60DE4EFFF7F2FEB0
S1132F2000BDC046702F0000000007696E6C696E1A
S1132F30652C00B5D849D94AD94B3088884208D085
S1132F40904208D0984206D0043F3E60060000F04C
S1132F50E8F90236F1E740CF00BD0EB4CF4AD04BBA
S1132F6001880230914201D09942F9D10EBC7047D8
S1132F70842F00000000047265742C00043F3E603E
S1132F80C64ECEE1942F00003000046578697400C9
S1132F90F4E7C046AC2F0000300007726563757219
S1132FA07365043F3E60BF4E3668ABE6C42F000035
S1132FB08100057374617465043F3E60BA4E7047C6
S1132FC000000000D82F00000000015DB648002179
S1132FD0C94301607047C046E82F00001000015B40
S1132FE0B148002101607047103000000000013A30
S1132FF000B5AE48076000F099FA043F3E60A64E63
S113300000F08FF9A8480021C943016000BDC04603
S1133010583000003000013B00B5A4480168B942B3
S11330200ED0FFF795FC1520537461636B206E6F0F
S1133030742062616C616E6365642E0A01F042FB68
S1133040043F3E60954E00F06CF900F0D6F89648C7
S11330500021016000BDC0466C300000000007651F
S1133060786563757465300040CF8746843000000E
S1133070100009696D6D656469617465043F3E60A3
S11330801026EBE09C300000100006696E6C696E3F
S11330906500043F3E602026E0E0C046B8300000F2
S11330A010000B636F6D70696C656F6E6C79043F13
S11330B03E603026D2E0C046D430000010000A3012
S11330C02D666F6C6461626C6500043F3E6040264F
S11330D0C4E0C046F030000010000A312D666F6C69
S11330E06461626C6500043F3E604126B6E0C04600
S11330F00C31000010000A322D666F6C6461626C42
S11331006500043F3E604226A8E0C0462831000026
S113311010000A332D666F6C6461626C6500043FB5
S11331203E6043269AE0C0464431000010000A3451
S11331302D666F6C6461626C6500043F3E604426DA
S11331408CE0C0466031000010000A352D666F6CBB
S11331506461626C6500043F3E6045267EE0C046C3
S11331607C31000010000A362D666F6C6461626C5D
S11331706500043F3E60462670E0C046983100007A
S113318010000A372D666F6C6461626C6500043F41
S11331903E60472662E0C046C83100000000086374
S11331A06F6E7374616E740000B500F0BFF9FFF7C1
S11331B0E3FD043F3E603A4E00F0B3F8FFF785FFAD
S11331C000F01BF800BDC046EC31000000000932DD
S11331D0636F6E7374616E7400B500F0A7F939689B
S11331E03E600E46FFF7C8FDE1E7C0464C320000E2
S11331F0000006736D756467650000B52C480168AE
S11332002B4A91421CD202390A882A4B9A4204D191
S1133210043F3E60284E00F084F800F070F8274820
S11332200068043F3E600600254909680431204ACD
S11332301368116000F075F81360FEF7BFFE00BD5F
S113324000F05DF8043F3E60002608E0C432000050
S1133250000008736574666C6167730000B51448F8
S11332600168134A914205D2144801683143016050
S113327040CF00BD320040CF1148006804300188BF
S11332800C4B994201D1110000E01143018000BDB3
S1133290322F0000042D000000B5000000BD000026
S11332A07047000014F0FF1FD82F002010F0FF1FFC
S11332B000F0FF1FFFFF00000000000020F0FF1FD0
S11332C004F0FF1FD4320000000005616C69676ED2
S11332D015E0C046F0320000410007616C69676E7A
S11332E0656401203040361802203040361870479B
S11332F018330000000007616C69676E342C00B558
S1133300804801680220014004D0043F3E6000264A
S113331000F007F800BDC04650330000000002680A
S11333202C000FB5B6B277480168764A914205D2AF
S1133330043F3E600E00FEF764FE02E0320040CF20
S11333400A80043F3E60022600F058F80FBDC046D4
S11333506C3300000000012C00B5043F3E60FFF711
S1133360E0FF360CFFF7DDFF00BDC04688330000E8
S11333700000033E3C2C00B5043F3E60360CFFF7D2
S1133380D0FFFFF7CEFF00BDF0330000000007734D
S11333907472696E672C07B5FF21314040CF30004D
S11333A040CF002905D1043F3E600026FFF7B9FF56
S11333B007BD043F3E60067836020E43FFF7B1FFB7
S11333C00130013902290AD3043F3E6046783602AF
S11333D002781643FFF7A5FF02300239F2E700290D
S11333E000D107BD043F3E600678FFF79AFF07BD92
S11333F04C340000000005616C6C6F744148016836
S1133400404A91420FD2320040CF89183E4A91423D
S113341019D3FFF79DFA0B466C6173682066756CCF
S11334206C0A01F04FF9320040CF8918374A12680C
S1133430914208D3FFF78CFA0952616D2066756CCE
S11334406C0A01F03FF901607047C0467434000013
S113345000000D636F6D70696C65746F72616D3F10
S1133460043F3E600026274800682649884248D326
S1133470F64370479434000000000C636F6D70696C
S11334806C65746F72616D001E4800681D49884246
S113349011D370471C35000000000E636F6D706916
S11334A06C65746F666C6173680016480068154932
S11334B0884200D270471648164902680B680A60B1
S11334C003601048144902680B680A6003600F48DF
S11334D00068834215D300B5FFF73AFA23205661FA
S11334E0726961626C657320636F6C6C69646520DA
S11334F0776974682064696374696F6E6172790AAC
S113350000BD704700F0FF1F0000020024F0FF1F01
S113351004F0FF1F1CF0FF1F18F0FF1F0836000007
S113352000000828637265617465290000B500F025
S1133530EBFD002E0ED1FFF70BFA152043726561E7
S11335407465206E65656473206E616D6520210A63
S113355001F0B8F83868043F3E60043F386000F07A
S1133560A3F940CF002E40CF11D03868043F3E600D
S1133570043F3860FFF7ECF9095265646566696ECB
S11335806520FFF745FAFFF7E3F9022E0A00FFF77B
S1133590B6FE00F01DFA8D4800688C4988421CD2A2
S11335A08B4800210160043F3E600626FFF726FF9A
S11335B0FDF7A2FDFFF7EFFE864801680A68864B17
S11335C09A4207D1814A13681160043F3E60FFF7B5
S11335D0C3FE1360066040CF10E07E48043F3E60A7
S11335E00668FFF7B9FE043F3E607C4EFFF799FE84
S11335F07848310040CF0160FFF7CDFE7348016881
S11336007748016000BDC0462036000000000876FF
S113361061726961626C6500043F3E60012613E0DB
S113362038360000000009327661726961626C65A7
S1133630043F3E60022607E0103700000000096ED8
S11336407661726961626C6500B5FFF76FFF5F4870
S113365001685E4A914233D20F200640B2006148AD
S11336600168891A604A91420BD2FFF771F90F4E33
S11336706F7420656E6F7567682052414D0A01F0C2
S113368021F80160043F3E600E00FFF775FB043F24
S11336903E60564EFFF745FE300040CF0200002842
S11336A005D00E600431FFF757FE0138F9D1043F0D
S11336B03E6080261643FFF7D1FDFFF79EFD00BD57
S11336C000F086F90220064040CF04D1043F3E605A
S11336D03626FFF726FE043F3E60454EFFF74BFEBD
S11336E0043F3E60434EFFF746FE043F3E603F4EBC
S11336F0FFF717FE300040CF002803D0FFF72CFE61
S11337000138FBD1FFF7E1FCFFF777FD00BDC046B0
S1133710FC3700000000076275666665723A00B502
S1133720FFF704FF012030403618022030403618DD
S113373026480168254A914226D22A480168891BF5
S1133740294A91420BD2FFF703F90F4E6F7420659B
S11337506E6F7567682052414D0A00F0B3FF016037
S1133760043F3E600E00FFF707FB043F3E601F4E20
S1133770FFF7D7FDFFF7F0FD043F3E601E4EFFF755
S11337806DFDFFF73AFD00BD00F022F9022006406E
S113379040CF04D1043F3E603626FFF7C2FD043F0C
S11337A03E60134EFFF7E7FD043F3E60114EFFF706
S11337B0E2FD043F3E600D4EFFF7B3FDFFF71EFE32
S11337C0FFF783FCFFF719FD00BD000000F0FF1FA9
S11337D020F0FF1F04F0FF1FFFFFFFFFFFFF0000AB
S11337E014F0FF1F24F0FF1F1CF4FF1F704700009C
S11337F03E60043F02367E46400100002C38000043
S113380000000F64696374696F6E61727973746127
S11338107274424800684149043F3E60884201D2C4
S11338203F4E70473F4E36687047C04668380000C8
S113383000000E64696374696F6E6172796E6578F5
S1133840740003B531683848814207D08879FF286D
S113385004D00E00043F3E60002603BD043F3E60DA
S11338600026F64303BDC0469C38000000000A73DE
S11338706B6970737472696E67003178013101226B
S11338800A4089187618704706B40178013101227C
S11338900A408918401806BC7047C04630390000F9
S11338A000000466696E64003FB500220023350001
S11338B040CF340040CFFFF7ACFF1C48B1888842AA
S11338C017D0043F3E600636FFF782F8043F3E609F
S11338D02600043F3E602E00FEF7ADFF002E40CFD1
S11338E007D0B01DFFF7D0FF02000B000B48824247
S11338F004D2FFF7A6FF300040CFDED01600043F0D
S11339003E601E003FBD00B531003868FFF7CCFFB4
S11339103A68002A01D100F055FE00BD00F0FF1FF7
S11339201004000004F0FF1FFFFFFFFFFFFF000073
S11339308C390000000006636A756D702C0032003B
S113394040CF310040CF8B1B043BE749194000298D
S11339500DD0E64881420AD0FEF7FAFF0D4A756D94
S11339607020746F6F206661720A00F0ABFE5B100A
S1133970FF210B40134330001E0000B5DC4A1368DE
S11339801060FFF7CEFC136000BDC046C4390000D0
S11339900000056A756D702C310040CF300040CFB7
S11339A00B1A043BD3491940002902D0D24A914250
S11339B0D2D15B10D14A1340D14A1343043F3E6035
S11339C01E00DAE7DC390000000004686572650057
S11339D0043F3E60C64E36687047C046183B000040
S11339E000000D666C6173687661722D686572659E
S11339F0043F3E60C34E3668704700B5043F3E60E6
S1133A00C14EFFF78EFC043F3E60C04EFFF789FCB9
S1133A1000BDDDE700B500F037F839683E600E46BA
S1133A20043F3E60BA4EFFF78AFF00BD00B500F0C8
S1133A302BF839683E600E46043F3E60B54EFFF7F2
S1133A407EFF00BD00B5FFF7D8FF00F01DF8396810
S1133A503E600E46043F3E60AF4EFFF770FF00BD70
S1133A6000B500F011F839683E600E46FFF794FF88
S1133A7000BD00B5FFF7C1FFFFF7AAFF043F3E609A
S1133A800226FFF7BBFC00BD00B5FFF7A1FF043F12
S1133A903E600226FFF7B2FC00BD00B5FFF798FFB9
S1133AA0FFF77AFF00BD00B5FFF792FF043F3E60C9
S1133AB0994EFFF744FF00BD00B5FFF789FF043FAF
S1133AC03E60934EFFF73BFF00BD00B5FCF782FD5F
S1133AD001694269FCF7BAFDFCF752FEFCF755FE9A
S1133AE00369282B02D14369FCF719FD282908D161
S1133AF0043F3E60894E002A00D00136FFF711FCD6
S1133B0006E0043F3E60864E09020E43FFF709FCBF
S1133B10FCF740FE00BDC046803B00003006026951
S1133B20660000B5FFF7A5FF043F3E607A4E043FF0
S1133B303E60022600BD00B5816A002910D002B49F
S1133B40FCF716FEFFF744FF043F3E600226FFF732
S1133B5055FC043F3E6040BC043F3E60022600BD6D
S1133B60FFF7B3FFFFF734FF043F3E600226FFF781
S1133B7045FC043F3E60684E043F3E60022600BDA3
S1133B80B43B0000300004656C73650000B5022E80
S1133B9026D140CFFFF778FFFDF7AEFAFFF718FF05
S1133BA039683E600E46FFF7CAFE043F3E600526B4
S1133BB000BDC046003C00003000047468656E001F
S1133BC0052E01D140CF68E7022E09D140CF00B5C0
S1133BD0FFF7FEFE39683E600E46FFF7B0FE00BDFB
S1133BE0FEF7B6FE175374727563747572657320AD
S1133BF0646F6E2774206D617463680A00F062FD5F
S1133C00303C000030000672657065617400042E5B
S1133C10E6D140CF00B5FDF752FAFFF721FFFFF7D9
S1133C20D7FE39683E600E46FFF789FE00BDC046E8
S1133C305C3C00003006057768696C65012ECFD1C5
S1133C4040CF00B5FFF76DFF023600BD012EC7D18E
S1133C5040CF00B5FFF76FFF023600BDB83C00004F
S1133C60300605756E74696C012EB9D140CFE9E652
S1133C707047012EB4D140CF00B5816A00290DD020
S1133C8002B4FCF775FDFFF7FFFE39683E600E468F
S1133C90043F3E6040BCFFF752FE00BDFFF715FF36
S1133CA0FFF7F2FE39683E600E46043F3E601A4E4E
S1133CB0FFF745FE00BDC046CC3C00003000056166
S1133CC06761696E012E8BD140CFC9E6243D0000A7
S1133CD0300005626567696E00B5FFF79AFE043F20
S1133CE03E60012600BD000001FFFFFF00FFFFFF53
S1133CF000F0FF1F01F8FFFF00F8FFFFFF070000BF
S1133D0000E0000024F0FF1F002E000040CF000060
S1133D1000D1000000D7000000D000000022000005
S1133D20002800003C3D00002002016B043F3E607F
S1133D30029E7047043F3E608B4E0AE0683D0000DF
S1133D402002016A043F3E60009E7047043F3E60CB
S1133D50864E00B5FCF7B6FBFCF718FC03611B02AA
S1133D601E43FFF7DEFA00BD943D00002002016906
S1133D70043F3E602600704700B5043F3E607C4E21
S1133D80FCF7A0FBFCF702FC03611E43FFF7C9FA32
S1133D9000BDC046D43D00003000056C6561766509
S1133DA000B5744801683B00043F1A68043B1A607C
S1133DB008338B42F9D103B4FFF766FE03BC33002A
S1133DC040CF04390B60016004390A6801320A608B
S1133DD000BDC046E83D0000200006756E6C6F6FA4
S1133DE0700030BC7047C046203E00003000052BF8
S1133DF06C6F6F70032E00D0F2E640CF00B5043F25
S1133E003E605D4EFFF795F8FFF710FE1AE0802044
S1133E1000060019A419401B801940CF7047C04602
S1133E20643E00003000046C6F6F7000032E00D0FD
S1133E30D6E640CF00B5043F3E60504EFFF779F818
S1133E40FFF7E8FD00F046F94A48310040CF016031
S1133E50043F3E604A4EFFF76CF800BD0134AC42AB
S1133E607047C046AC3E0000300202646F0000B5EB
S1133E70043F3E60434EFFF75CF83E480168043F50
S1133E803E600E00043F3E6000260760FFF7C1FD60
S1133E90043F3E60032600BD00B500F02EF8ECE7B9
S1133EA030B4340040CF350040CF7047983F000015
S1133EB03002033F646F00B5043F3E60314EFFF7AC
S1133EC038F8043F3E60304EFFF72BFA294801686A
S1133ED0043F3E600E00FFF7D7FD0136043F3E600D
S1133EE0012624480760FFF794FD043F3E60032643
S1133EF000BD00B500F001F8E3E700B5FCF773FB83
S1133F00FCF73EFC043F3E60204EFFF70AFA0169CD
S1133F10282907D0043F3E601D4EC9000E43FFF719
S1133F2000FA07E0043F3E604669043F3E60042611
S1133F30FEF760FE8169282907D0043F3E60154ED4
S1133F40C9000E43FFF7EDF907E0043F3E60C66980
S1133F50043F3E600526FEF74DFEFCF777FBFCF7B9
S1133F6075FBFCF717FC00BD0298000000980000E8
S1133F70200000000CF0FF1F0E3E00005C3E00001D
S1133F80E23D0000A03E0000AC42000030B400005E
S1133F900400000005000000B43F0000300004638A
S1133FA061736500043F3E600026043F3E600826BE
S1133FB07047C046CC3F00003000033F6F666A483C
S1133FC00AE0013EB64140CF7047C046744000004D
S1133FD03002026F66006548082E00D000E640CF2C
S1133FE000B5043F3E600600FEF7A3FFFFF74CFD5B
S1133FF039683E600E460136043F3E600926043FA0
S11340003E605B4EFFF78DF900BD082E00D0E7E55A
S113401040CF00B5FCF7E7FAFCF7B2FB043F3E6083
S1134020544EFCF70AFB0E430269282A15D1426953
S1134030FF2A07D840CF043F3E604F4E1643090283
S11340400E430CE0043F3E601600FCF79FFA1A0092
S1134050043F3E601E00FEF7CDFDD2001643FFF77D
S113406060F9FCF7F3FAFCF795FBBFE7300040CFAB
S1134070B0427047AC400000300005656E646F6666
S1134080092E00D0ACE540CF00B540B440CFFFF7D7
S1134090FBFC39683E600E46FFF70EFD043F3E60B0
S11340A040BC043F3E60082600BDC046FC40000002
S11340B0300007656E6463617365082E00D08FE578
S11340C040CF00B5043F3E60294EFFF72AF900F0C7
S11340D001F800BD00B5300040CF00280DD003B476
S11340E001213140002903D0013EFFF7DCFC01E04F
S11340F0FFF7D3FC03BC0138EFE700BD104100001B
S1134100000005746F6B656E043F3E60202605E079
S113411080410000000005706172736510B5FEF700
S11341205EFB310040CF300040CF144A126884183F
S1134130202E07D191420FD0835CB34202D10132C9
S11341408418F7E7914207D0835C0132B342F9D176
S11341508618361B013E01E08618361B043F3C607E
S11341600648026010BD0000C23F00006C40000021
S113417040CF00008042000000280000E42F00200F
S1134180C04100000000056469676974D44B1B6872
S1134190303E0BD30A2E0BD3073E0A2E06D3242E11
S11341A006D3203E0A2E01D3242E01D300267047C5
S11341B09E42FBD2043F3E600026F6437047C04651
S11341C0CC4200000000066E756D626572003FB55A
S11341D0310040CF701E0126012204B4C04B1B687D
S11341E00024002500293CD00130013902782D2A11
S11341F004D101B00022D24304B4F3E7232A01D14D
S11342000A23EFE7242A01D11023EBE7252A01D161
S11342100223E7E72E2A01D10226E3E72C2A36D02F
S1134220043F3E601600FFF7B3FF002E40CF2BD0B3
S1134230043F3E602600043F3E602E00043F3E6083
S11342401E00043F3E6000260FB4FCF776FC0FBC52
S1134250350040CF340040CF0022A419554140CF4F
S1134260C0E704BC002A04D50022E443ED43013432
S1134270554133002600012B02D0043F3E602E003E
S1134280043F3E601E003FBD01B000263FBD250037
S1134290002402260029E4D0425C01392E2AF9D0F8
S11342A0043F3E601600FFF773FF002E40CFEBD0B3
S11342B0043F3C60043F3E601E000FB4FCF7F1FC79
S11342C00FBC340040CF40CFE4E7C046F0420000CA
S11342D00000062E6469676974000A2E01D2303624
S11342E004E0242E01D2373600E023267047C0466E
S11342F028430000000004686F6C6400330040CF62
S1134300784801783F290DD2013101704018012904
S113431007D00138027801300270013801390129CF
S1134320F7D103707047C046484300000000056899
S11343306F6C643C330040CF6A4801783F2902D255
S1134340013101704354704760430000000004735E
S113435069676E00002E01D440CF70472D26CDE74B
S113436074430000000002233E005E4806780130DA
S1134370386070478C43000000000366235310B577
S1134380202400F008F8013CFBD110BDB04300002C
S113439000000266230000B5043F3E60504E3668BC
S11343A0FCF79DFBFFF799FFFFF7C4FF00BDC04674
S11343B0CC43000000000223530000B500F00AF8CB
S11343C0002EFBD138680028F8D100BDF843000066
S11343D00000012300B5043F3E60414E3668043FAF
S11343E03E600026FCF77DFCFCF760FA40CFFFF747
S11343F074FFFFF783FF00BD0C4400000000023C83
S113440023003848002101707047C0462044000052
S1134410000002662E00043F3E60202605E0C046F0
S113442070440000000003662E6E00B510B4340022
S113443040CFFCF72FFEFCF717FB043F3E6000263D
S1134440FFF7DFFFFFF7B9FF40CF2C26FFF772FF1E
S1134450002C03D0FFF79FFF013CFBD110BC40CFE1
S1134460FFF778FF043F3E60043F3E601EE0C04615
S11344708844000000000375642E00B5FFF7C1FFF7
S1134480FFF79BFF12E0C046BC440000000002643A
S11344902E0000B5FCF7FEFDFCF7E6FAFFF7B1FFCE
S11344A0FFF78BFFFCF70BFEFFF754FFFFF75DFFF1
S11344B0FEF7AEFAFEF7FAF900BDC046D04400009C
S11344C0000002752E00043F3E600026D5E7C0467A
S11344D0E84400000000012E043F3E60F617D8E7D0
S11344E0FC2F002054F0FF1F304500000000086539
S11344F076616C756174650000B5FEF770F901CFE3
S113450001B440B440CF8048016802B40021016086
S1134510FEF758F900F014F87B4802BC0160043F30
S11345203E6040BC01BC043F3860FEF74BF900BD5F
S11345309C460000000009696E74657270726574AF
S113454030B5724887420BD9FEF702FA10537461F2
S1134550636B20756E646572666C6F770A00B1E0F8
S11345606B4887420AD2FEF7F3F90F537461636B09
S1134570206F766572666C6F770AA3E0654C2568D8
S1134580002D01D13D002560FFF7BEFD002E02D1B4
S1134590043740CF30BD3868043F3E60043F386084
S11345A0FFF782F9310040CF320040CF002A15D105
S11345B038683100FDF773F8FFF709FE320040CF89
S11345C0002ABED1FEF728FAFEF7C2F90C206E6F5E
S11345D07420666F756E642E0A0073E04E4B1B6880
S11345E0002B1DD10025256030230B40302B0ED12C
S11345F0FEF70EFAFEF7ACF91220697320636F6DB3
S113460070696C652D6F6E6C792E0A005AE0043760
S113461040CF043F3E601600FEF725FDFFF791FFF3
S1134620043740CF3D48084001D1FDF738F88020D9
S1134630084008D1EB1B9B084020084009D00F20FC
S11346400840834205D3043F3E601600FEF70BFD8D
S113465077E73348084008D0FBF7EDFEFCF732F863
S113466038002060FBF7F6FE6BE7FBF7E4FEFCF78F
S11346707FF800252560043F3E60160010220A40A2
S113468002D0FEF7F0FC5CE720220A4002D0FEF7DD
S113469050FC56E7FEF736FB53E7C046B846000029
S11346A0810009686F6F6B2D71756974043F3E60FA
S11346B01C4E7047F44600003847000000000471A7
S11346C07569740018488546104FFDF76FFC17484C
S11346D00A2101601048002101600E480160FCF7C6
S11346E0A5F80948016012480160124941600D486B
S11346F000688746FEF782F8FFF722FFFEF728F9E5
S113470005206F6B2E0AF5E7E42F00205CF2FF1FF3
S11347105CF1FF1F08F0FF1FD82F002000040000E9
S113472000020000D42F00205CF3FF1FFC2F0020A8
S1134730DC2F002094F0FF1F5447000000000565A3
S1134740696E743F043F3E60EFF31086013EB6414C
S11347507047C0466447000020000465696E740019
S113476062B670477447000020000464696E7400E8
S113477072B670478C4700002000046970737200A1
S1134780043F3E60EFF305867047C046984700003B
S11347900000036E6F707047DC470000000009756D
S11347A06E68616E646C656400B5FEF7D1F81455EB
S11347B06E68616E646C656420496E7465727275AE
S11347C070742000043F3E60EFF30586FEF738F96D
S11347D0FEF7BEF802210A0000BDC046F047000003
S11347E000000572657365749A489B490160C04670
S11347F01448000081000B6972712D737973746918
S1134800636B043F3E60954E7047A8470000934891
S113481000688746384800008100096972712D6676
S113482061756C74043F3E608D4E7047A84700006C
S11348308B4800688746C0466048000081000E69C6
S113484072712D636F6C6C656374696F6E00043FE5
S11348503E60844E7047A84700008248006887463F
S1134860804800008100076972712D616463043F10
S11348703E607D4E7047A84700007B48006887462D
S1134880A04800008100076972712D636D70043FB8
S11348903E60764E7047A84700007448006887461B
S11348A0C04800008100076972712D646163043F90
S11348B03E606F4E7047A84700006D480068874609
S11348C0E44800008100096972712D706F7274618F
S11348D0043F3E60674E7047A84700006548006883
S11348E08746C046084900008100096972712D702D
S11348F06F727464043F3E605F4E7047A8470000C7
S11349005D4800688746C04600600000FFFF182D20
S11349102D2D20466C6173682044696374696F6E41
S1134920617279202D2D2D00002154480160FDF77E
S113493099FD53488546534F2A26534853490160ED
S1134940534854490160043F3E60524E524DB18871
S1134950524B994224D0524B0B400AD0B01DFEF763
S113496093FFFEF7FAFA0388408800040343ED1A24
S113497016E080230B4013D00F23194089006D1AD1
S1134980B01DFEF781FFFEF7E8FA043F3E60060023
S1134990043F3E602E00043F3E600E00FCF7E0FE44
S11349A0FEF74FFF300040CFD1D03E48066040CFE5
S11349B03D4805603D483E49384A884204D00238A3
S11349C003889342F9D002303A490860FDF7EEFAC1
S11349D0FDF7BEFF514D6563726973702D537465A5
S11349E06C6C6172697320524120302E32206578DC
S11349F0706572696D656E74616C20776974682086
S1134A004D3020636F726520666F72204B4C3235D7
S1134A105A313238206279204D6174746869617347
S1134A20204B6F63680A244800210160FBF7FEFEF7
S1134A30043F3E60214E043F3E600426FEF734FFEF
S1134A4040CF002E02D0FEF70EFB50E640CF39E6F1
S1134A50696E69740CED00E00400FA05D02F0020A3
S1134A60CC2F0020C82F0020C42F0020C02F0020EE
S1134A70BC2F0020B82F0020B42F00200081044058
S1134A805CF3FF1F5CF2FF1F00F0FF1F1CF4FF1F0D
S1134A9004F0FF1F1004000000300020FFFF00009E
S1134AA0000100001CF0FF1F24F0FF1F00000200A3
S1134AB00060000018F0FF1F08F0FF1F504A0000BC
S9030000FC
