S02200006D6563726973702D7374656C6C617269732D6B6C32357A3132382E737265638F
S113000038F3FF1F572900001104000011040000F9
S113001000000000000000000000000000000000DC
S113002000000000000000000000000011040000B7
S11300300000000000000000110400004F2900002F
S1130040FFFFFFFFFFFFFFFFFFFFFFFFFFFFFFFFBC
S1130050FFFFFFFFFFFFFFFFFFFFFFFFFFFFFFFFAC
S1130060FFFFFFFFFFFFFFFFFFFFFFFFFFFFFFFF9C
S1130070FFFFFFFFFFFFFFFFFFFFFFFFFFFFFFFF8C
S113041000B500F01EFF16556E68616E646C65646D
S113042020496E7465727275707420210A0000BDD3
S1130430004000000000056465707468E349C91B4E
S11304408908043F3E600E007047C0463004000037
S1130450610003647570043F3E6070474C04000003
S113046061000464726F700040CF70475C04000048
S11304706100043F64757000002E01D0043F3E60AB
S11304807047C0466C04000062000473776170001A
S113049039683E600E007047840400006200036EF9
S11304A0697004377047C046980400006200046F06
S11304B0766572003968043F3E600E007047C0469E
S11304C0A80400006200047475636B0001CF083F48
S11304D07E6038607047C046C00400004300037269
S11304E06F7403CF083F78603E600E007047C046CB
S11304F0D80400004300042D726F740003CF083F3A
S11305007E60396006007047F0040000200004702B
S113051069636B00B0003E587047C0460805000090
S11305202000023E720040B440CF70471C0500001A
S1130530200002723E00043F3E6040BC7047C0464B
S11305402C050000200002724000043F3E60009E23
S11305507047C04640050000600004747275650071
S1130560043F3E600026F6437047C0465405000031
S113057060000566616C7365043F3E600026704749
S11305806C050000620003616E6401CF0640704791
S11305908005000062000362696301CFB043060076
S11305A07047C046900500006200026F720001CFE0
S11305B006437047A4050000620003786F7201CF00
S11305C046407047B40500006100036E6F74F64343
S11305D07047C046C4050000410003636C7A3000D4
S11305E006D00026400002D001D20136FAE7704757
S11305F020267047D40500006100037368727608F2
S11306007047C046F405000061000373686C76000F
S11306107047C0460406000062000672736869668B
S1130620740001CFF04006007047C0461406000075
S11306306200076172736869667401CF3041060015
S11306407047C0462C0600006200066C7368696639
S1130650740001CFB04006007047C0464406000055
S1130660610002303D00013EB64170475C06000067
S1130670610003303C3E013EB641F6437047C0463C
S11306806C060000610002303C00F6177047C0465B
S1130690800600004200023E3D0001CFB04201DA74
S11306A0002670470026F6437047C04690060000B7
S11306B04200023C3D0001CFB04201DD00267047FC
S11306C00026F6437047C046AC0600004200013CD9
S11306D001CFB04202DA0026F64370470026704785
S11306E0C80600004200013E01CFB04202DD0026F0
S11306F0F643704700267047E00600004200037589
S11307003E3D01CF861BB641F6437047F806000014
S1130710420003753C3D01CF361AB641F64370479B
S11307200C070000620002753C0001CF861BB64135
S11307307047C04620070000620002753E0001CFEA
S1130740361AB6417047C046340700006200023CC6
S11307503E0001CF361A01D00026F6437047C0464A
S1130760480700006200013D01CF361A013EB64140
S11307707047C046600700004200036D696E01CFF8
S1130780B04200DA06007047740700004200036DAF
S1130790617801CFB04200DB060070478807000093
S11307A0420004756D61780001CFB04200D30600A9
S11307B07047C0469C070000420004756D696E00D6
S11307C001CFB04200D806007047000038F2FF1F86
S11307D0B40700000000046D6F7665000FB5324663
S11307E040CF314640CF304640CF002A07D0814227
S11307F005D003780B7001300131013AF9D10FBDF6
S1130800D00700002000014036687047000800004F
S11308102000012103CF30600E0070470C08000057
S11308200000022B210003CF3268121832600E0040
S11308307047C0461C08000020000268400036884B
S11308407047C0463408000020000268210003CF2E
S113085030800E007047C046440800000000036862
S11308602B2103CF3288121832800E007047C04605
S11308705808000020000263400036787047C046E4
S11308807008000020000263210003CF30700E00C6
S11308907047C04680080000000003632B2103CF8B
S11308A03278121832700E007047C0469408000067
S11308B0000004626973210003CF3268024332608E
S11308C00E007047AC080000000004626963210058
S11308D003CF3268824332600E007047C4080000C0
S11308E0000004786F72210003CF32684240326006
S11308F00E007047DC0800002000046269744000A8
S113090001CF3668064001D00026F6437047C04642
S1130910F4080000000005686269732103CF32887F
S1130920024332800E007047100900000000056881
S11309306269632103CF3288824332800E0070479C
S11309402809000000000568786F722103CF3288FF
S1130950424032800E0070474009000020000568C4
S11309606269744001CF3688064001D00026F64300
S11309707047C0465809000000000563626973218E
S113098003CF3278024332700E00704774090000BE
S1130990000005636269632103CF327882433270B9
S11309A00E0070478C09000000000563786F722107
S11309B003CF3278424032700E007047A409000021
S11309C0200005636269744001CF3678064001D087
S11309D00026F6437047C046BC09000000000666C6
S11309E06C6173682100304640CF314640CF854B5F
S11309F0984268D3844B99422ED0032202402CD1D2
S1130A0002689A4246D1814A137880221A40FAD069
S1130A1030221A4002D07D4A302313707C4A0623C8
S1130A2013707C4A1070000A7B4A1070000A7B4ADB
S1130A3010707B4A1170090A7A4A1170090A7A4ABD
S1130A401170090A794A1170704A802313706F4A31
S1130A50137880221A40FAD0704700F0FAFB304134
S1130A606464726573732068617320746F206265B7
S1130A7020342D616C69676E656420666F7220771F
S1130A80726974696E6720666C61736820210A005C
S1130A9001F014FF00F0DDFB29466C617368206CE3
S1130AA06F636174696F6E2063616E6E6F74206230
S1130AB065207772697474656E2074776963652044
S1130AC0210A01F0FBFE00F0C4FB1943616E6E6F56
S1130AD07420777269746520696E746F20636F7215
S1130AE06520210A01F0EAFED809000000000E6624
S1130AF06C617368706167656572617365000FB5D9
S1130B00304640CF3F4B984220D3032398433F4A7B
S1130B10137880221A40FAD030221A4002D03B4A7D
S1130B20302313703A4A092313703A4A1070000AAA
S1130B30394A1070000A394A1070344A80231370FD
S1130B40324A137880221A40FAD00FBD00F081FB9C
S1130B501443616E6E6F7420657261736520636FF8
S1130B60726520210A0001F0A9FEC046E80A0000CF
S1130B7000000A6572617365666C617368002C48D5
S1130B8072B62C492C4A036893421CD0043F3E6041
S1130B900600043F3E6000F05CFB10457261736523
S1130BA020626C6F636B20617420200000F08EFB68
S1130BB000F04FFB0C2066726F6D20466C61736809
S1130BC00A00FFF79CFF04308842DCD100F041FBAF
S1130BD01246696E69736865642E20526573657484
S1130BE020210A0001F0B7FE6C0B000000000E6526
S1130BF072617365666C61736866726F6D0030460E
S1130C0040CFBDE700400000FFFFFFFF00000240AF
S1130C1007000240040002400500024006000240B2
S1130C2008000240090002400A0002400B00024092
S1130C300040000000000200FFFFFFFF6248602147
S1130C400022028002300139FBD170475E486021E6
S1130C500288002A18D000F0FCFA28556E706169E9
S1130C607265642031362D62697420466C61736844
S1130C70207772697465206C65667420616C6F6E90
S1130C80652E0A0001F01AFE02300139E0D17047E6
S1130C904D482021028843881B041A43B24225D0C0
S1130CA006300139F6D100F0D4FA3C446573697218
S1130CB06564206C6F636174696F6E206E6F74205D
S1130CC0666F756E6420696E20466C617368207768
S1130CD07269746520636F6C6C656374696F6E20F0
S1130CE07461626C652E0A0001F0E8FD8688704725
S1130CF0E80B000000000768666C6173682130B57A
S1130D00324640CF0120104013D000F0A2FA1E68F2
S1130D10666C61736821206E656564732065766511
S1130D206E206164647265737365732E0A0001F04A
S1130D30C5FD0223534024482021048845882D04FE
S1130D402C439C422BD006300139F6D11E48202179
S1130D50048845882D042C43002C1AD00630013910
S1130D60F6D100F076FA27546F6F206D616E79200A
S1130D70756E7061697265642031362D6269742004
S1130D80466C617368207772697465732E0A01F08A
S1130D9095FD0280120C4280868040CF30BD022136
S1130DA0114003D0023A8188360401E081880904A5
S1130DB00E43043F3E601600002101804180818083
S1130DC0FFF711FE30BD000000F4FF1FF00C00001F
S1130DD06200012B01CF36187047C046CC0D0000CD
S1130DE06200012D01CF861B7047C046DC0D000058
S1130DF0610002312D00013E7047C046EC0D000039
S1130E00610002312B0001367047C046FC0D000022
S1130E10610002322D00023E7047C0460C0E0000F5
S1130E20610002322B0002367047C0461C0E0000DF
S1130E306100066E65676174650076427047C0465E
S1130E402C0E0000410003616273002E00D576422F
S1130E507047C046400E0000420005752F6D6F6458
S1130E60314640CF002903D1043F3E60534E7047C2
S1130E70012200238E4206D9003104D452004900D5
S1130E8001D48E42FAD88E4201D3761A134349080C
S1130E905208F8D1043F3E601E007047540E000013
S1130EA04200042F6D6F640000B5304640CF002E21
S1130EB01CDA764200280CDA4042043F3E60060009
S1130EC0FFF7CEFF304640CF7642043F3E60060037
S1130ED000BD043F3E600600FFF7C2FF304640CF2E
S1130EE040427642043F3E60060000BD002807DA17
S1130EF04042043F3E600600FFF7B2FF764200BD69
S1130F00043F3E600600FFF7ABFF00BD9C0E0000EF
S1130F104200012F00B5FFF7C7FF043700BDC046EC
S1130F200C0F00006200012A01CF46437047C046FF
S1130F30200F0000610002322A0076007047C0468C
S1130F40300F0000610002322F0076107047C04657
S1130F50400F00006100046576656E000121314098
S1130F6076187047500F00004000046261736500FA
S1130F70043F3E60124E7047640F0000000006629A
S1130F80696E617279000E48022101607047C046A3
S1130F90780F0000000007646563696D616C0848A0
S1130FA00A2101607047C046900F000000000368EA
S1130FB065780348102101607047000000000000BC
S1130FC010F0FF1F2D492E4801602E492E48016064
S1130FD02E492F4801602F492F4801602F48016096
S1130FE000212F4801702F4801702F4801702F48AD
S1130FF0017006212E48017000212E4801701A212B
S11310002D4801700C21264801707047A80F00007C
S1131010000004656D69740007B428480821017054
S1131020802201781140FCD02548314640CF017020
S113103007BC70470C1000000000036B657907B40F
S11310401E4808210170202201781140FCD01C4860
S1131050043F3E600678F6B207BC704734100000C7
S11310600000043F6B657900043F3E60154E134851
S113107020220178114000D0F6437047803F0000E1
S113108038800440300400F0348004400000000440
S113109004800440000200000490044008900440CE
S11310A003A0064002A0064006A0064005A0064094
S11310B00AA0064000A0064001A0064004A0064085
S11310C007A00640000000005C100000000005714D
S11310D0756572790FB5EB4800210170EA49002269
S11310E0FFF7ADFF304640CF202818D20A2822D07F
S11310F00D2820D00828F3D1002AF1D000F0A9F857
S113110003082008002AEBD00B009B181878013A3A
S113111080230340E4D040230340F3D0E0E7C72A10
S1131120DED2043F3E600600FFF776FF01320B007B
S11311309B181870D4E70A7000F044F80FBDC0463D
S1131140C8100000000007636F6D706172650FB511
S1131150304640CF31780278914216D110E0013602
S1131160013032780378412A02D35B2A00D220323C
S1131170412B02D35B2B00D220339A4205D1013993
S11311800029ECD10026F64300E000260FBDC0463E
S11311904011000000000263720000B500F059F82D
S11311A0010A00BD90110000000002626C00043FBF
S11311B03E60B64E7047C046A4110000000005739F
S11311C070616365043F3E60B04E25E7B8110000CE
S11311D05000065B636861725D0005E0CC1100009D
S11311E0000004636861720000B501F087F90136FC
S11311F0367800BDDC11000050000128043F3E6039
S1131200A34E06E0F41100005000015C043F3E6070
S1131210A04E00B501F07EF940CF00BD04120000DD
S11312201000022E22009C4800B5043F3E600600D8
S113123000F0A6F9043F3E60984E01F06BF900F00F
S113124022FD00BD1C12000010000273220094480D
S1131250EAE70EB47246013A043F3E601600137882
S11312600121013319405B187146C9188E460EBC22
S113127016E00EB47246013A043F3E60160013783D
S11312800121013319405B187146C9188E460EBC02
S11312907047C04644120000000004747970650071
S11312A003B5314640CF0878002807D00131043F08
S11312B03E600E78FFF7B0FE0138F7D103BDC0469B
S11312C0941200000000046865782E0007B53146CA
S11312D040CF20200F220438043F3E600E00C64059
S11312E01640092E01D9373600E03036FFF794FE58
S11312F00028F0D1FFF766FF07BDC046C01200000A
S11313000000022E73000FB56649C91B8908664A9E
S1131310106803B40A201060FFF79BFF0853746140
S1131320636B3A205B00043F3E600E0001F0ECF971
S1131330FFF78FFF025D200003BC5B4A10600029A9
S11313400BD05A4A106806B4043F3E60060001F010
S1131350DBF906BC043A0139F4D1FFF77AFF062021
S1131360544F533A2000043F3E60360001F0CCF95C
S1131370FFF76FFF04202A3E0A000FBDFC12000095
S113138000000464756D700000B5304640CF202124
S1131390FFF75FFF072064756D703E0A043F3E60EF
S11313A00600FFF793FFFFF754FF023A200002887C
S11313B0043F3E601600FFF789FFFFF74AFF032052
S11313C03E0A02300139E9D100BDC0467C13000059
S11313D0000005776F72647300B5FFF73AFF067774
S11313E06F7264730A0000F05AFD304640CF817971
S11313F0FF2945D0FFF72DFF0941646472657373BB
S11314003A20043F3E600600FFF760FFFFF721FF2C
S1131410064C696E6B3A200002680430043F3E605B
S11314201600FFF753FF01880230FFF712FF07464B
S11314306C6167733A20043F3E600E00FFF746FF7D
S1131440043F3E60060000F037FDFFF702FF06434D
S11314506F64653A2000043F3E600600FFF736FFE4
S1131460FFF7F7FE064E616D653A2000FFF718FF9F
S1131470FFF7EFFE010A0E48824201D01000B6E7E2
S113148000BD000000F0FF1F70F0FF1F20000000EF
S11314902900000000000000521200002200000099
S11314A07212000038F2FF1F10F0FF1F34F2FF1F0A
S11314B0FFFFFFFFCC130000000010726567697323
S11314C07465726C69746572616C2C001FB5314669
S11314D040CF7B4C0C43C9000C434901304640CFFC
S11314E0020EFF231A40774B0B431343043F3E6025
S11314F01E0000F090FB043F3E60260000F08BFBD2
S1131500020CFF231A40704B0B431343043F3E600D
S11315101E0000F080FB043F3E60260000F07BFBD1
S1131520020AFF231A40684B0B431343043F3E60F7
S11315301E0000F070FB043F3E60260000F06BFBD1
S11315400200FF231A40604B0B431343043F3E60E9
S11315501E0000F060FB1FBD0FB50136043F3E6066
S11315605A4EFFF7B3FF043F3E60594E00F053FB61
S11315700FBDC046B414000000000563616C6C2C00
S11315800FB5330000F042FD304640CF1B1A043B38
S113159050491940002905D04F4A914202D0FFF723
S11315A0DBFF0FBD40CF5B084C484D491940084351
S11315B0DB0A4C491940090408439B0A01211940DC
S11315C089060843043F3E60060000F04CFB0FBD53
S11315D0741500000000086C69746572616C2C005D
S11315E008B5043F3E60404E00F015FB043F3E60EA
S11315F03E4E00F010FBFF2E04D83D4B1E4300F07E
S11316000AFB08BD3B4B3000184098420CD1F6430E
S1131610FF231E40364B1E4300F0FDFA043F3E609C
S1131620354E00F0F8FA08BD043F3E60334EFFF734
S11316304DFF08BDD0150000200005646F65733EA2
S11316401620000253308047043F3E607646013E38
S11316507047043F3E607646013E00F000F9284A98
S11316601368314640CF0220084000D102310231D4
S11316701160FFF771FF136000F009FA00BDC04666
S1131680341600000000073C6275696C647300B591
S113169000F08FFB00F0BAFC0220064040CF04D1DA
S11316A0043F3E60174E00F0B6FA043F3E60164E0B
S11316B000F0B1FA043F3E60144E00F003FB00BD9D
S11316C000020000002000000030000000000000C4
S11316D0804700000100C0FF0000C0FF00F800F0D8
S11316E0FF070000FF030000043F00003E6000000D
S11316F00026000000FFFFFFF64300000600000084
S113170004F0FF1F3600000000B5000010000000C8
S1131710801600005000035B275D03E010170000F3
S11317200000012700B500F0E9FE304640CF017803
S113173000290CD1FFF78DFD102027206E6565640C
S113174073206E616D6520210A0001F0B7F8043F33
S11317503E60060000F0C0FB40CF002E10D1B84818
S1131760043F3E600600FFF79BFDFFF772FD0C206F
S11317706E6F7420666F756E642E0A0001F09EF819
S113178000BDC0461C170000100008706F73747011
S11317906F6E650000B500F0B1FE00F09DFB3046B1
S11317A040CF002EDBD01021014010290ED0202183
S11317B00140202905D1FFF713FF043F3E60A14EED
S11317C004E0FFF70DFF043F3E609F4EFFF7D8FE95
S11317D000BDC04684170000000007696E6C696E86
S11317E0652C00B599499A4A9A4B3088884208D0AA
S11317F0904208D0984206D0043F3E60060000F0B4
S11318000AFA0236F1E740CF00BD0EB4904A914B7C
S113181001880230914201D09942F9D10EBC70473F
S1131820D41700000000047265742C00043F3E606D
S1131830874EF0E1201800003000046578697400D8
S1131840F4E7C0463418000030000772656375720F
S1131850736500B500F003F8FFF792FE00BD0FB505
S11318607D48006806300178FF2909D1043F3E60B5
S1131870060001B4FFF70CFA01BCFF21314040CF50
S1131880013101220A4089184018043F3E600600D5
S11318900FBDC046441800004000057374617465B0
S11318A0043F3E606D4E7047941800000000015DD7
S11318B06A480021C94301607047C046A818000067
S11318C01000015B6548002101607047BC180000EE
S11318D00000013A00B56248076000F06AFA043F6C
S11318E03E605A4E00F097F95C480021C9430160FC
S11318F000BDC046CC1800003000013B00B558487C
S11319000168B9420ED0FFF7A4FC1520537461633B
S11319106B206E6F742062616C616E6365642E0A65
S113192000F0CCFF043F3E60494E00F074F900F033
S1131930AEF84A480021016000BDC046F41800001A
S113194000000765786563757465304640CF0130E3
S11319508746C0463C190000100009696D6D656436
S113196069617465043F3E603E4EBFE05419000057
S1131970100006696E6C696E6500043F3E603A4E65
S1131980B4E0C0466C19000010000B636F6D706901
S11319906C656F6E6C79043F3E60344EA6E0C046C1
S11319A08419000010000A302D666F6C6461626C4B
S11319B06500043F3E602E4E98E0C046A01900002A
S11319C010000A312D666F6C6461626C6500043F1F
S11319D03E60284E8AE0C046BC19000010000A325E
S11319E02D666F6C6461626C6500043F3E60224E3C
S11319F07CE0C046D819000010000A332D666F6CD5
S1131A006461626C6500043F3E601C4E6EE0C0463B
S1131A10F4190000000008636F6E7374616E740043
S1131A2000B500F0C6F9FFF7DBFD043F3E60094E48
S1131A3000F0F1F8FFF7BDFF00F029F800BD000049
S1131A4038F3FF1FE21700008015000000B5000006
S1131A5000BD00007047000008F0FF1F0CF0FF1FDE
S1131A601CF0FF1F100000002000000030000000E8
S1131A70400000004100000042000000430000005C
S1131A80101A0000000006736D756467650049480C
S1131A900168494A91421DD200B502390A88474B70
S1131AA09A4204D1043F3E60454E00F0B4F800F081
S1131AB0A0F844480068043F3E60060042490968B3
S1131AC004313C4A1368116000F0A5F81360FFF775
S1131AD0BDF800BD043F3E60394E07E0801A0000A7
S1131AE0000008736574666C6167730000B5314863
S1131AF00168314A914205D232480168314301609C
S1131B0040CF00BD324640CF2F48006804300188E2
S1131B102A4B994201D1110000E01143018000BD1C
S1131B20DC1A00000000087661726961626C65006D
S1131B3000B500F03EF91F4801681F4A914218D2CF
S1131B4022480168043901600E60043F3E600E00C3
S1131B50FFF746FD043F3E601D4E00F05CF800F0C8
S1131B6073F8043F3E601B4EFFF7C0FFFFF78FFF83
S1131B7000BD00F04BFA0220064040CF04D1043FE0
S1131B803E60154E00F047F8043F3E60134E00F0EF
S1131B906AF8043F3E60124E00F065F8043F3E6070
S1131BA00B4E00F038F800F04FF8FFF702FFFFF794
S1131BB06EFF00BD04F0FF1F00F0FF1FFFFF0000D9
S1131BC00000000028F0FF1F08F0FF1F2CF0FF1F8B
S1131BD07047000081000000360000003E60043FB2
S1131BE002367E46201B0000000007616C69676EA8
S1131BF0342C00B5CE4801680220014004D0043FD3
S1131C003E60CC4E00F007F800BDC046E41B000067
S1131C10000002682C000FB5C5480168C64A91420D
S1131C2005D2043F3E600E00FFF769F802E0324639
S1131C3040CF0A80043F3E60C04E00F043F80FBD21
S1131C400C1C00000000012C00B5043F3E60FFF7AF
S1131C50E2FF360CFFF7DFFF00BDC046401C00006A
S1131C600000033E3C2C00B5043F3E60360CFFF7F9
S1131C70D2FFFFF7D0FF00BD5C1C0000000007731B
S1131C807472696E672C07B5304640CF0178013114
S1131C90022909D30288043F3E601600FFF7BBFF08
S1131CA00230023906D0F3E70278043F3E601600A2
S1131CB0FFF7B1FF07BDC046781C000000000561B6
S1131CC06C6C6F749A4801689B4A91420FD23246F9
S1131CD040CF89189A4A914219D3FFF7BAFA0B46B2
S1131CE06C6173682066756C6C0A00F0E7FD32461F
S1131CF040CF8918934A1268914208D3FFF7A9FA92
S1131D000952616D2066756C6C0A00F0D7FD0160A4
S1131D107047C046B81C000000000C636F6D70690A
S1131D206C65746F72616D008148006882498842F5
S1131D3011D37047141D000000000E636F6D7069AD
S1131D406C65746F666C61736800794800687A49E1
S1131D50884200D270477C487C4902680B680A605C
S1131D60036073487A4902680B680A600360754827
S1131D700068834215D300B5FFF76BFA2320566140
S1131D80726961626C657320636F6C6C6964652051
S1131D90776974682064696374696F6E6172790A23
S1131DA000BD7047341D0000000006637265617455
S1131DB0650000B500F0A2FB304640CF0178002951
S1131DC00ED1FFF746FA1520437265617465206EE3
S1131DD065656473206E616D6520210A00F06EFDF7
S1131DE0043F3E600600043F3E6000F075F840CFBB
S1131DF0304640CF00280ED0FFF72BFA0952656415
S1131E006566696E6520043F3E60FFF749FAFFF797
S1131E1020FA022E0A00FFF7ECFE00F0F7F844481F
S1131E200068454988421DD24A4800210160043FA8
S1131E303E60494EFFF746FF39683E600E46FFF7A5
S1131E4022FF414801680A68444B9A4207D1384A44
S1131E5013681160043F3E60FFF7F6FE13600660EE
S1131E6040CF00BD3848043F3E600668FFF7ECFEF3
S1131E70043F3E603A4EFFF7CEFE3348314640CF32
S1131E800160FFF700FF00BDA41D000000000F4427
S1131E90696374696F6E61727973746172742448D2
S1131EA00068294B1B682449043F3E60884201D2E4
S1131EB02C4E70471E00704706B401780131012290
S1131EC00A408918401806BC7047C046881E0000A6
S1131ED000000466696E64001FB53400FFF7DFFF7D
S1131EE0304640CF002600238179FF291CD0818809
S1131EF01D4A9142026812D00630043F3E6006003B
S1131F00043F3E602600FFF722F9002E40CF06D0A2
S1131F10FFF7D2FF06000B000748864204D20F48A1
S1131F20824201D01000DFE7043F3E601E001FBD67
S1131F3004F0FF1F0000000000F0FF1F020000007B
S1131F40000002002CF0FF1F08F0FF1F24F0FF1F09
S1131F5020F0FF1F28F0FF1F06000000FFFFFFFF17
S1131F60FFFFFFFF30290000FFFF0000CC1E000030
S1131F70000006636A756D702C00324640CF31460E
S1131F8040CF8B1B043B9A49194000290DD0994836
S1131F9081420AD0FFF75DF90D4A756D7020746FA8
S1131FA06F206661720A00F089FC5B10FF210B4010
S1131FB0134330001E0000B58F4A13681060FFF70A
S1131FC02AFE136000BDC0466C1F00000000056AB5
S1131FD0756D702C314640CF304640CF0B1A043B10
S1131FE086491940002902D0854A9142D2D15B101A
S1131FF0844A1340844A1343043F3E601E00DAE7D8
S1132000C81F00000000046865726500043F3E605C
S1132010794E3668704700B5043F3E607B4EFFF74B
S1132020FAFD043F3E607A4EFFF7F5FD00BDEDE793
S113203000B500F037F839683E600E46043F3E6054
S1132040744EFFF79AFF00BD00B500F02BF8396815
S11320503E600E46043F3E606F4EFFF78EFF00BDAC
S113206000B5FFF7D8FF00F01DF839683E600E4652
S1132070043F3E60694EFFF780FF00BD00B500F0ED
S113208011F839683E600E46FFF7A4FF00BD00B5A5
S1132090FFF7C1FFFFF7BAFF043F3E60604EFFF752
S11320A011FE00BD00B5FFF7B1FF043F3E605C4E7A
S11320B0FFF708FE00BD00B5FFF7A8FFFFF78AFF92
S11320C000BD00B5FFF7A2FF043F3E60534EFFF78B
S11320D054FF00BD00B5FFF799FF043F3E604D4E2D
S11320E0FFF74BFF00BDC046002000003000047421
S11320F068656E00052E01D140CFDCE7022E01D1C8
S113210040CFDEE7FFF7A5F8175374727563747553
S113211072657320646F6E2774206D617463680A3E
S113212000F0CCFBE8200000300004656C7365000F
S113213000B5022EE6D140CFFFF7B4FF39683E6008
S11321400E46FFF7BEFF043F3E60364E00BDC0465C
S11321502421000030000269660000B5FFF797FFF4
S1132160043F3E602E4E00BD502100003000067238
S1132170657065617400042EC4D140CF39683E6037
S11321800E4600B5FFF77AFFFFF79BFF00BDC04680
S1132190682100003000057768696C65012EB1D1B3
S11321A040CF00B5FFF7D9FF023600BD90210000F3
S11321B0300005756E74696C012EA3D140CF4FE7D2
S11321C0AC210000300005616761696E012E99D170
S11321D040CF53E7C0210000300005626567696E97
S11321E000B5FFF724FF043F3E600F4E00BD000022
S11321F001FFFFFF00FFFFFF04F0FF1F01F8FFFFD7
S113220000F8FFFFFF07000000E00000002E0000C0
S113221040CF000000D1000000D7000000D0000033
S1132220020000000500000001000000D4210000AD
S11322302000016B043F3E606E46083E36687047DE
S11322402C2200002000016A043F3E60009E70477B
S11322504022000020000169043F3E6026007047D0
S1132260502200003000056C6561766500B5504869
S113227001683B00043F1A68043B1A6004330433CA
S11322808B42F8D103B4FFF70DFF03BC334640CFB4
S113229004390B60016004390A6801320A6000BD28
S11322A060220000200006756E6C6F6F700030BCF9
S11322B07047C046A02200003000052B6C6F6F7081
S11322C0032E00D01EE740CF00B5043F3E60394ED8
S11322D0FFF787FAFFF7B8FE1AE08020000600191E
S11322E0A419401B801940CF7047C046B422000097
S11322F03000046C6F6F7000032E00D002E740CFF3
S113230000B5043F3E602C4EFFF76BFAFFF790FEDA
S113231000F0CEF82648314640CF0160043F3E60CD
S1132320264EFFF75EFA00BD0134AC427047C0464A
S1132330EC220000300002646F0000B5043F3E60F0
S11323401F4EFFF74EFA1A480168043F3E600E0024
S1132350043F3E601B4E0760FFF769FE043F3E608A
S1132360194E00BD30B4344640CF354640CF704797
S1132370302300003000033F646F00B5043F3E602B
S1132380124EFFF72EFA0A480168043F3E600E0021
S1132390FFF788FE0136043F3E600D4E0448076097
S11323A0DAE730B4344640CF354640CFAC427047CC
S11323B018F0FF1FDA22000028230000AE220000DC
S11323C0642300000000000003000000A2230000BA
S11323D00100000070230000300004636173650095
S11323E0043F3E603C4E043F3E603C4E7047C04656
S11323F0D42300003000033F6F6639480AE0013EF1
S1132400B64140CF7047C046F02300003000026F51
S113241066003448082E00D074E640CF00B5043F6F
S11324203E600600FFF7DDF9FFF73CFE39683E60C9
S11324300E460136043F3E602B4E043F3E602B4E59
S1132440FFF7E9FB00BD304640CFB0427047C046BD
S113245008240000300005656E646F66092E00D004
S113246050E640CF00B540B440CFFFF71BFE3968BB
S11324703E600E46FFF72EFE043F3E6040BC043F24
S11324803E60164E00BDC046502400003000076573
S11324906E6463617365082E00D033E640CF00B5E7
S11324A0043F3E60114EFFF7B6FB00F001F800BD9B
S11324B000B5304640CF00280DD003B4012131408F
S11324C0002903D0013EFFF7FCFD01E0FFF7F3FD17
S11324D003BC0138EFE700BD000000000800000065
S11324E0FE230000462400000900000040CF000045
S11324F088240000000005746F6B656E2020043F83
S11325003E60060006E0C046F024000000000570AE
S11325106172736530B510480178104A1278104B17
S113252000248018202E07D1914210D001300132AE
S11325300578B542F8D006E0914208D00130013266
S11325400578B54203D0013301341D70F4E7034824
S11325500270034E347030BD70F0FF1F00F0FF1F97
S113256038F3FF1F082500000000056469676974DB
S1132570704B1B68303E0BD30A2E0BD3073E0A2E3A
S113258006D3242E06D3203E0A2E01D3242E01D3B3
S1132590002670479E42FBD2043F3E60664E704761
S11325A0642500000000066E756D626572001FB53B
S11325B030000178002601225E4B1B68002920D0E0
S11325C00130013904782D2C02D10022D243F5E7E1
S11325D0232C01D10A23F1E7242C01D11023EDE7A8
S11325E0252C01D10223E9E7043F3E602600FFF7D2
S11325F0C1FF002E40CF09D0344640CF5E43361988
S1132600DCE75643043F3E604C4E1FBD00261FBD11
S1132610A02500000000062E6469676974000A2E74
S113262001D2303604E0242E01D2373600E02326CE
S11326307047C04610260000000004686F6C6400F8
S1132640334640CF3E4801783F290DD20131017015
S11326504018012907D0013802780130027001388E
S113266001390129F7D103707047C04634260000B0
S11326700000047369676E00002E01D440CF7047D8
S11326802D26DDE76C260000000002233E002C4EC0
S11326907047C0468426000000000223530000B5A2
S11326A000F008F8002EFBD100BDC04694260000BF
S11326B00000012300B5043F3E601E4E3668FEF75D
S11326C0CFFB39683E600E46FFF7A9FFFFF7B8FF5E
S11326D000BDC046AC2600000000023C23001848A0
S11326E0002101707047C046D42600000000027526
S11326F02E0000B5FFF7F3FFFFF7D1FF00F013F84A
S1132700E82600000000012E00B5043F3E60002EC4
S113271000D57642FFF7E3FFFFF7C1FF39683E605B
S11327200E46FFF7A9FFFFF7B2FFFEF7B9FDFEF76C
S113273049FD00BD10F0FF1FFFFFFFFF0100000077
S113274030F0FF1F00270000000009696E746572F5
S11327507072657430B5654887420CD9FEF779FD0F
S113276010537461636B20756E646572666C6F7769
S11327700A0000F0A3F85E4887420BD2FEF769FD19
S11327800F537461636B206F766572666C6F770AA2
S113279000F094F8FFF7B2FE304640CF01780029EC
S11327A000D130BD534C2568002D01D13D0025607A
S11327B0043F3E600600FFF78FFB314640CF3246B0
S11327C040CF002A18D1043F3E600600FFF7EFFE19
S11327D0324640CF002ABED1043F3E600600FEF7D9
S11327E05FFDFEF736FD0C206E6F7420666F756E0C
S11327F0642E0A0000F062F83F4B1B68002B1FD1C7
S11328000025256030230B40302B12D1043F3E605D
S11328100600FEF745FDFEF71CFD122069732063D8
S11328206F6D70696C652D6F6E6C792E0A0000F007
S113283045F8043F3E601600FFF787F8FFF78BFF6B
S113284080200840802809D0EB1B9B0840200840CA
S1132850402809D10F200840834205D3043F3E603D
S11328601600FFF772F876E7002B0BD0013B043F0C
S11328703E609E00BE59FEF7B3FE002BF6D1043D28
S11328802F0040CF00252560043F3E601600102233
S11328900A40102A02D1FFF758F85CE720220A40C8
S11328A0202A02D1FEF79DFF55E7FEF769FE52E7A5
S11328B04427000000000471756974000F488546C0
S11328C00A4FFEF7BBF90E480A2101600A480021AD
S11328D00160084800210160FEF7FCFBFFF73AFFA6
S11328E0FEF7B7FC05206F6B2E0AF5E738F2FF1FE1
S11328F038F1FF1F14F0FF1F0CF0FF1F38F3FF1F08
S113290010F0FF1FB028000020000465696E7400F9
S113291062B670470429000020000464696E7400E4
S113292072B67047142900000000036E6F70704780
S11329302429000081000B6972712D737973746905
S1132940636B043F3E60474E70472E2900004548A4
S1132950006801308746002143480160FEF732FBDE
S113296042488546424F2A2642484349016043482B
S1132970434901604248434D040002680430018821
S11329800230414B994215D080230B4012D00F23C3
S1132990194089006D1AFFF78FFAFEF736FF043FDE
S11329A03E600600043F3E602E00043F3E600E0081
S11329B0FDF714FF3548824205D010000632127824
S11329C0FF2A00D0D8E73248046032480560324814
S11329D032492D4A884204D0023803889342F9D000
S11329E002302F490860FEF729F9FEF732FC414D09
S11329F06563726973702D5374656C6C617269736D
S1132A0020302E372077697468204D3020636F7230
S1132A106520666F72204B4C32355A313238206251
S1132A2079204D61747468696173204B6F63680A1F
S1132A301C480A2101601C48002101601B48002138
S1132A4001601B48043F3E600600FFF745FA40CF93
S1132A50002E02D0FEF779FF3EE740CF2EE704694F
S1132A606E697400FC2F00200081044038F3FF1FBE
S1132A7038F2FF1F04F0FF1FC0F4FF1F08F0FF1F10
S1132A803029000000300020FFFF0000FFFFFFFF9F
S1132A9024F0FF1F2CF0FF1F000002000040000084
S1132AA020F0FF1F10F0FF1F0CF0FF1F14F0FF1F9A
S1072AB05E2A000096
S9030000FC
