S02200006D6563726973702D7374656C6C617269732D6B6C32357A3132382E737265638F
S113000038F3FF1FFD350000110400001104000047
S113001000000000000000000000000000000000DC
S113002000000000000000000000000011040000B7
S11300300000000000000000110400003F35000033
S11300401104000011040000110400001104000058
S11300501104000011040000110400001104000048
S11300601104000011040000110400001104000038
S113007011040000110400001104000063350000A5
S11300808735000011040000110400001104000071
S11300901104000011040000110400001104000008
S11300A011040000AB35000011040000110400002D
S11300B01104000011040000D1350000F5350000E2
S11300C0FFFFFFFFFFFFFFFFFFFFFFFFFFFFFFFF3C
S11300D0FFFFFFFFFFFFFFFFFFFFFFFFFFFFFFFF2C
S11300E0FFFFFFFFFFFFFFFFFFFFFFFFFFFFFFFF1C
S11300F0FFFFFFFFFFFFFFFFFFFFFFFFFFFFFFFF0C
S113041000B501F0ECFA16556E68616E646C6564A3
S113042020496E7465727275707420210A0000BDD3
S11304300040000042000432647570003868043FD4
S11304403E60043F386070473004000062000532AB
S113045064726F70043740CF7047C0464804000090
S1130460440005327377617007CF043F3860043F5E
S11304703E60043F3A600E007047C0465C040000D2
S1130480620004326E69700007CF043F3860704721
S11304907C040000440005326F766572B868043F3E
S11304A03E60043F3860FE687047C0469004000018
S11304B0440005327475636B07CF043F3860043F12
S11304C03E60043F3A60043F3960043F386070473F
S11304D0AC04000046000432726F74003868B968D6
S11304E03A69B86039613A6079687E60FE68F9609B
S11304F07047C046D0040000460005322D726F7468
S11305003868B9683A6938613960BA60F968FE6078
S11305107E6879607047C046F4040000200003320E
S11305203E7201CF01B440B440CF704718050000BB
S113053020000332723E043F3E6040BC01BC043FD5
S1130540386070472C050000200003327240043FDD
S11305503E60019E043F3E60009E704744050000DB
S1130560200006327264726F700002B07047C04699
S11305705C05000042000364322F3868F1077610EE
S11305804008084338607047700500006200036447
S1130590322A3868001876413860704788050000B0
S11305A042000464736872003868F10776084008F2
S11305B0084338607047C0469C050000620004642C
S11305C073686C0038680018764138607047C0461C
S11305D0B80500004200046461627300002E16D462
S11305E07047C046D00500004300083F646E65674D
S11305F061746500300040CF002808D47047C046BD
S1130600E4050000420007646E656761746538683C
S11306100021C043F64301304E4138607047C04664
S113062000060000640002642D0007CF121AB141D5
S11306300E00043F3A607047200600006400026424
S11306402B0007CF12184E41043F3A607047C04652
S113065038060000610003733E64043F3E60F617F1
S11306607047C04650060000420003756D2A386882
S1130670030073433B60010C320C0B005343B6B2CE
S113068080B24E4350433618360CF6187047C046B5
S1130690640600004200026D2A003868C11705D0C4
S11306A040423860F01704D07642E0E7F017DED01D
S11306B0764200B5FFF7DBFFFFF7A9FF00BDC04698
S11306C09006000044000375642A07CF5643414353
S11306D07618010C130C59437618010C80B292B2AF
S11306E05143434350430022C91852411204B618DF
S11306F00A04090C80184E41043F38607047C04614
S1130700C006000044000475646D2A0010B500247E
S1130710043F3E607E68043F3E603E69FFF7A7FFEA
S1130720310040CF300040CF043F3E603E68043F7C
S11307303E60FE6803B4FFF79AFF03BC330040CF6A
S1130740320040CF043F3E603E68043F3E603E6955
S11307500FB4FFF78CFF0FBC9219634140CF891986
S11307606241634140CF043F3E607E68043F3E6087
S1130770FE680FB4FFF77BFF0FBC9219634140CFB3
S113078089196241634140CF1E003A607960B860C4
S113079010BDC046000700004300022A2F0000B528
S11307A040B440CFFFF779FF043F3E6040BC00F007
S11307B065F8043700BDC046940700004300052ACD
S11307C02F6D6F6400B540B440CFFFF766FF043F60
S11307D03E6040BC00F052F800BDC046B8070000BF
S11307E0430003752A2F00B540B440CFFFF73FFF05
S11307F0043F3E6040BC00F01CF8043700BDC04616
S1130800DC070000430006752A2F6D6F640000B5F5
S113081040B440CFFFF72BFF043F3E6040BC00F0E4
S113082008F800BD00080000430006756D2F6D6FC9
S1130830640010B47868396800220024202364001E
S1130840001849415241964201D8921B0134013BA0
S1130850F5D12023640049185241964201D8921BD5
S11308600134013BF6D104373A60260010BC7047CE
S1130870240800004300056D2F6D6F6400B5F01768
S113088018D0764200F0F4F9F0170DD0FFF7BFFE50
S113089000F0E1F9FFF7CDFF39683E600E4676427D
S11308A039683E600E4600BD00F0D5F9FFF7C1FF80
S11308B0764200BD00F0DCF9F0170ED0FFF7A7FE7A
S11308C000F0C9F9FFF7B5FF764239683E600E467D
S11308D0764239683E600E4600BD00F0BCF9FFF771
S11308E0A8FF00BD7008000044000675642F6D6FFA
S11308F0640030B43C68B86879680022002520237D
S11309006D00001849415241944201D8121B01352F
S1130910013BF5D120B4002520206D004918524137
S11309205B419E4204D8944202D8121BB341013564
S11309300138F2D13D60BA607B6040BC30BC704786
S1130940E4080000440005642F6D6F6400B5F017DF
S113095019D0FFF75CFEFFF787FDF0170CD0FFF707
S113096056FEFFF781FDFFF7C4FFFFF77DFDFFF79C
S11309704EFEFFF779FD00BDFFF776FDFFF7B9FFE7
S1130980FFF745FE00BDFFF76FFDF0170ED0FFF730
S11309903EFEFFF769FDFFF7ACFFFFF738FEFFF7F8
S11309A063FDFFF734FEFFF75FFD00BDFFF75CFD5D
S11309B0FFF79FFF00BDC0464009000044000266E7
S11309C02A0000B5F0170DD0FFF721FEFFF74CFD0C
S11309D0F0170DD0FFF71BFEFFF798FE40CF01CFB5
S11309E0386000BDFFF740FDF017F5D0FFF70FFEAC
S11309F0FFF78CFE40CF01CF3860FFF708FE00BD43
S1130A0030B43C68B9687A680023002520206D0062
S1130A10491852415B419E4204D8944202D8121BA9
S1130A20B34101350138F2D1290020206D0092181C
S1130A305B419E4204D8944202D8121BB341013553
S1130A400138F3D13D60BA607B600E0030BC704762
S1130A50B8090000440002662F0000B5F0170ED05C
S1130A60FFF7D5FDFFF700FDF0170ED0FFF7CFFD20
S1130A70FFF7FAFCFFF7C4FFFFF706FD00BDFFF721
S1130A80F3FCF017F4D0FFF7C2FDFFF7EDFCFFF71E
S1130A90B7FFFFF7BCFDFFF7F7FC00BD500A0000ED
S1130AA020000232210006CF3160726040CF7047CF
S1130AB09C0A0000200002324000043F7068386045
S1130AC036687047B00A000044000364753C07CFE1
S1130AD08E4204D801D1904201D8002670470026E6
S1130AE0F6437047C40A000044000364753E07CF10
S1130AF0B14204D801D1824201D8002670470026B1
S1130B00F6437047E40A0000440002643C0007CF47
S1130B108E4204DC01D1904201DC0026704700269D
S1130B20F6437047040B0000440002643E0007CF04
S1130B30B14204DC01D1824201DC00267047002668
S1130B40F6437047240B000062000364303C043712
S1130B50F6177047440B000042000364303D01CF98
S1130B60002801D000267047013EB6417047C046B8
S1130B70540B0000440003643C3E07CF904201D173
S1130B80761A01D00026F6437047C046700B000069
S1130B90440002643D0007CF904201D00026704714
S1130BA0761A013EB64170478C0B000000000564C4
S1130BB065707468E949C91B8908043F3E600E00EA
S1130BC07047C046A80B0000610003647570043FC1
S1130BD03E607047C40B000061000464726F7000D3
S1130BE040CF7047D40B00006100043F647570006F
S1130BF0002E01D0043F3E607047C046E40B000065
S1130C00620004737761700039683E600E007047BB
S1130C10FC0B00006200036E697004377047C04625
S1130C20100C00006200046F76657200043F3E60A1
S1130C307E687047200C00006200047475636B00CA
S1130C4001CF083F7E6038607047C046340C000016
S1130C50630003726F7403CF083F78603E600E0038
S1130C607047C0464C0C00006300042D726F740082
S1130C7003CF083F7E60396006007047640C0000B3
S1130C802000047069636B00B0003E587047C04692
S1130C907C0C00002000023E720040B440CF70473C
S1130CA0900C0000200002723E00043F3E6040BCF5
S1130CB07047C046A00C0000200002724000043FB0
S1130CC03E60009E7047C046B40C000020000572D0
S1130CD064726F7001B07047C80C00006000047447
S1130CE072756500043F3E600026F6437047C046B7
S1130CF0D80C000060000566616C7365043F3E60BB
S1130D0000267047F00C00006A0003616E6401CF96
S1130D10064070470640C046040D00006A000362A6
S1130D20696301CFB043060070478643180D000085
S1130D306A00026F720001CF064370470643C04643
S1130D402C0D00004A0003786F7201CF46407047B3
S1130D504640C046400D00006100036E6F74F643C8
S1130D607047C046540D0000410003636C7A3000A4
S1130D7006D00026400002D001D20136FAE77047BF
S1130D8020267047640D00006100037368727608C2
S1130D907047C046840D000061000373686C7600E0
S1130DA07047C046940D00006C0006727368696653
S1130DB0740001CFF040060070473608A40D00000F
S1130DC04A00076172736869667401CF3041060096
S1130DD070470641BC0D00006C00066C73686966C0
S1130DE0740001CFB040060070473600D40D0000F7
S1130DF0610002303D00013EB6417047EC0D000039
S1130E00610003303C3E013EB641F6437047C046A4
S1130E10FC0D0000610002303C00F6177047C0462C
S1130E20100E00004200023E3D0001CFB04201DA44
S1130E30002670470026F6437047C046200E000087
S1130E404200023C3D0001CFB04201DD0026704764
S1130E500026F6437047C0463C0E00004200013CA9
S1130E6001CFB04202DA0026F643704700267047ED
S1130E70580E00004200013E01CFB04202DD0026C0
S1130E80F643704700267047700E00006200037539
S1130E903E3D01CF861BB641F6437047880E0000E5
S1130EA0620003753C3D01CF361AB641F6437047E4
S1130EB09C0E0000620002753C0001CF861BB64107
S1130EC07047C046B00E0000620002753E0001CFBC
S1130ED0361AB6417047C046C40E00006B00023C8F
S1130EE03E0001CF361A01D00026F6437047C046B3
S1130EF0D80E00006B00013D01CF361A013EB64109
S1130F007047C046F00E00006200036D696E01CFA9
S1130F10B04200DA06007047040F00006200036D5F
S1130F20617801CFB04200DB06007047180F000063
S1130F30620004756D61780001CFB04200D30600F1
S1130F407047C0462C0F0000620004756D696E0086
S1130F5001CFB04200D806007047000038F2FF1FEE
S1130F60440F00000000046D6F7665000FB5320079
S1130F7040CF310040CF300040CF002A07D081421B
S1130F8005D003780B7001300131013AF9D10FBD5E
S1130F90600F00002000014036687047900F000089
S1130FA06D00012103CF30600E00704706600160C0
S1130FB09C0F00002000022B210003CF326812187E
S1130FC032600E007047C046B00F00002000026877
S1130FD0400036887047C046C80F00006D000268A4
S1130FE0210003CF30800E00704706800180C04688
S1130FF0D80F0000200003682B2103CF3288121879
S113100032800E007047C046F00F000020000263DB
S1131010400036787047C046081000006D00026337
S1131020210003CF30700E00704706700170C04677
S113103018100000200003632B2103CF327812180C
S113104032700E007047C046301000002000046269
S11310506973210003CF3268024332600E00704787
S113106048100000200004626963210003CF326845
S1131070824332600E007047601000002000047844
S11310806F72210003CF3268424032600E00704715
S113109078100000200004626974400001CF3668B3
S11310A0064001D00026F6437047C0469010000069
S11310B0200005686269732103CF328802433280BD
S11310C00E007047AC1000002000056862696321BF
S11310D003CF3288824332800E007047C410000070
S11310E020000568786F722103CF32884240328035
S11310F00E007047DC10000020000568626974402F
S113110001CF3688064001D00026F6437047C0461A
S1131110F4100000200005636269732103CF327864
S1131120024332700E007047101100002000056366
S11311306269632103CF3278824332700E007047B4
S11311402811000020000563786F722103CF3278E4
S1131150424032700E0070474011000020000563C9
S11311606269744001CF3678064001D00026F64308
S11311707047C04658110000000006666C61736831
S11311802100300040CF310040CF854B984268D3D6
S1131190844B99422ED0032202402CD102689A42F9
S11311A046D1814A137880221A40FAD030221A405C
S11311B002D07D4A302313707C4A062313707C4A84
S11311C01070000A7B4A1070000A7B4A10707B4A38
S11311D01170090A7A4A1170090A7A4A1170090AC7
S11311E0794A1170704A802313706F4A13788022F1
S11311F01A40FAD0704700F0FAFB3041646472651B
S113120073732068617320746F20626520342D61CC
S11312106C69676E656420666F72207772697469A1
S11312206E6720666C61736820210A0002F038F949
S113123000F0DDFB29466C617368206C6F63617498
S1131240696F6E2063616E6E6F74206265207772C1
S1131250697474656E20747769636520210A02F0ED
S11312601FF900F0C4FB1943616E6E6F742077722E
S113127069746520696E746F20636F726520210A3A
S113128002F00EF97411000000000E666C617368C0
S1131290706167656572617365000FB5300040CF9A
S11312A03F4B984220D3032398433F4A137880222C
S11312B01A40FAD030221A4002D03B4A302313702D
S11312C03A4A092313703A4A1070000A394A1070D6
S11312D0000A394A1070344A80231370324A137852
S11312E080221A40FAD00FBD00F081FB1443616ED6
S11312F06E6F7420657261736520636F726520215F
S11313000A0002F0CDF8C0468412000000000A650D
S113131072617365666C617368002C4872B62C49FF
S11313202C4A036893421CD0043F3E600600043FED
S11313303E6000F05CFB10457261736520626C6F67
S1131340636B20617420200000F08EFB00F04FFBE3
S11313500C2066726F6D20466C6173680A00FFF79B
S11313609CFF04308842DCD100F041FB1246696ED8
S113137069736865642E20526573657420210A00C0
S113138002F03CF90813000000000E6572617365F9
S1131390666C61736866726F6D00300040CFBDE7A4
S11313A000400000FFFFFFFF000002400700024072
S11313B0040002400500024006000240080002400A
S11313C0090002400A0002400B00024000400000F5
S11313D000000200FFFFFFFF62486021002202803C
S11313E002300139FBD170475E4860210288002A2F
S11313F018D000F0FCFA28556E706169726564209B
S113140031362D62697420466C6173682077726985
S11314107465206C65667420616C6F6E652E0A00BD
S113142002F03EF802300139E0D170474D482021E6
S1131430028843881B041A43B24225D0063001397E
S1131440F6D100F0D4FA3C44657369726564206C8B
S11314506F636174696F6E206E6F7420666F756E52
S11314606420696E20466C617368207772697465C4
S113147020636F6C6C656374696F6E207461626C59
S1131480652E0A0002F00CF8868870478413000069
S113149000000768666C6173682130B5320040CF84
S11314A00120104013D000F0A2FA1E68666C61732C
S11314B06821206E65656473206576656E206164BD
S11314C0647265737365732E0A0001F0E9FF0223E9
S11314D0534024482021048845882D042C439C42F1
S11314E02BD006300139F6D11E48202104884588C6
S11314F02D042C43002C1AD006300139F6D100F00B
S113150076FA27546F6F206D616E7920756E706165
S1131510697265642031362D62697420466C61738A
S113152068207772697465732E0A01F0B9FF02802E
S1131530120C4280868040CF30BD0221114003D07E
S1131540023A8188360401E0818809040E43043F8D
S11315503E6016000021018041808180FFF711FE6A
S113156030BD000000F4FF1F8C1400006900012B43
S113157001CF3618704736180036C046681500008B
S11315806900012D01CF861B7047361A003EC04604
S11315907C150000610002312D00013E7047C046F9
S11315A090150000610002312B0001367047C046DF
S11315B0A0150000610002322D00023E7047C046B3
S11315C0B0150000610002322B0002367047C0469D
S11315D0C01500006100066E65676174650076429F
S11315E07047C046D0150000610003616273002E8D
S11315F000D576427047C046E415000042000575E8
S11316002F6D6F64310040CF002903D1043F3E6049
S113161000267047012200238E4206D9003104D4EB
S11316205200490001D48E42FAD88E4201D3761A70
S1131630134349085208F8D1043F3E601E00704726
S1131640F81500004200042F6D6F640000B53000EF
S113165040CF002E1CDA764200280CDA4042043FC8
S11316603E600600FFF7CEFF300040CF7642043FD5
S11316703E60060000BD043F3E600600FFF7C2FF67
S1131680300040CF40427642043F3E60060000BD39
S1131690002807DA4042043F3E600600FFF7B2FF2D
S11316A0764200BD043F3E600600FFF7ABFF00BD7D
S11316B0401600004200012F00B5FFF7C7FF0437B2
S11316C000BDC046B01600006A00012A01CF46439F
S11316D070474643C4160000610002322A007600B7
S11316E07047C046D4160000610002322F00761005
S11316F07047C046E41600006100046576656E001C
S11317000120304036187047F4160000400004628F
S113171061736500043F3E60114E70470817000076
S113172000000662696E617279000D480221016051
S11317307047C0461C170000000007646563696DAC
S1131740616C07480A2101607047C04634170000E5
S113175000000368657802481021016070470000AA
S113176010F0FF1F2D492E4801602E492E480160BC
S11317702E492F4801602F492F4801602F480160EE
S113178000212F4801702F4801702F4801702F4805
S1131790017006212E48017000212E4801701A2183
S11317A02D4801700C212648017070474C17000029
S11317B0000004656D69740007B4284808210170AD
S11317C0802201781140FCD02548310040CF0170BF
S11317D007BC7047AC1700000000036B657907B4C1
S11317E01E4808210170202201781140FCD01C48B9
S11317F0043F3E600678F6B207BC7047D417000079
S11318000000043F6B657900043F3E6000261348E6
S113181020220178114000D0F6437047803F000039
S113182038800440300400F0348004400000000498
S11318300480044000020000049004400890044026
S113184003A0064002A0064006A0064005A00640EC
S11318500AA0064000A0064001A0064004A00640DD
S113186007A00640FC170000000005717565727939
S11318700FB5F34800210170F2490022FFF7AFFFD2
S1131880300040CF202818D20A2822D00D2820D09A
S11318900828F3D1002AF1D000F0A9F803082008A1
S11318A0002AEBD00B009B181878013A80230340E0
S11318B0E4D040230340F3D0E0E7C72ADED2043F5C
S11318C03E600600FFF778FF01320B009B1818708A
S11318D0D4E70A7000F044F80FBDC0466418000055
S11318E0000007636F6D706172650FB5300040CF03
S11318F031780278914216D110E001360130327805
S11319000378412A02D35B2A00D22032412B02D32E
S11319105B2B00D220339A4205D101390029ECD146
S11319200026F64300E000260FBDC046DC18000088
S113193000000263720000B500F059F8010A00BD0E
S11319402C190000000002626C00043F3E60202657
S11319507047C0464019000000000573706163655C
S1131960043F3E60202627E7541900005000065B20
S1131970636861725D0005E068190000000004639B
S11319806861720000B501F051FA0136367800BD85
S11319907819000050000128043F3E60292606E023
S11319A0901900005000015C043F3E60002600B521
S11319B001F048FA40CF00BDA01900001000022E2B
S11319C02200A14800B5043F3E60060000F0E2F9A1
S11319D0043F3E60222601F035FA00F046FD00BDCA
S11319E0B81900001000027322009848EAE70EB408
S11319F07246013A043F3E60160013780121013318
S1131A0019405B187146C9188E460EBC16E00EB418
S1131A107246013A043F3E601600137801210133F7
S1131A2019405B187146C9188E460EBC7047C046F3
S1131A30E0190000000004747970650003B53100FA
S1131A4040CF0878002807D00131043F3E600E786B
S1131A50FFF7B2FE0138F7D103BDC046301A0000CB
S1131A600000046865782E0007B5310040CF2020BF
S1131A700F220438043F3E600E00C6401640092E73
S1131A8001D9373600E03036FFF796FE0028F0D152
S1131A90FFF766FF07BDC0465C1A0000000003683C
S1131AA02E731FB56A4C0EE0981A000000000375EF
S1131AB02E731FB5674C06E0A81A00000000022E22
S1131AC073001FB5644C6549C91B8908644A1068D2
S1131AD003B40A201060FFF78AFF08537461636B34
S1131AE03A205B00043F3E600E0001F069FBFFF703
S1131AF07EFF025D200003BC594A106000290AD011
S1131B00584A106806B4043F3E600600A04706BC6D
S1131B10043A0139F5D1FFF76AFF0620544F533ACE
S1131B202000043F3E603600A047FFF760FF04201A
S1131B302A3E0A001FBDC046B81A00000000046413
S1131B40756D700000B5300040CF2021FFF74FFFC6
S1131B50072064756D703E0A043F3E600600FFF77F
S1131B6083FFFFF744FF023A20000288043F3E60EF
S1131B701600FFF779FFFFF73AFF03203E0A023011
S1131B800139E9D100BDC046381B000000000577CB
S1131B906F72647300B5FFF72AFF06776F72647380
S1131BA00A0000F0FEFD300040CF8179FF2945D0C6
S1131BB0FFF71DFF09416464726573733A20043FA3
S1131BC03E600600FFF750FFFFF711FF064C696EF9
S1131BD06B3A200002680430043F3E601600FFF7B1
S1131BE043FF01880230FFF702FF07466C61677309
S1131BF03A20043F3E600E00FFF736FF043F3E608C
S1131C00060000F0EBFDFFF7F2FE06436F64653A51
S1131C102000043F3E600600FFF726FFFFF7E7FEC3
S1131C20064E616D653A2000FFF708FFFFF7DFFEFF
S1131C30010A0D48824201D01000B6E700BD000041
S1131C4000F0FF1F70F0FF1FEE1900000E1A0000D5
S1131C50691A0000AF310000C131000038F2FF1FE3
S1131C6010F0FF1F34F2FF1FFFFFFFFF881B00006F
S1131C7000001072656769737465726C69746572CB
S1131C80616C2C003FB5350040CF2900C9002943C1
S1131C902D0295480543FF2300223000D04098438D
S1131CA001D00132F9E73000D04018402843043F06
S1131CB03E60060000F0A1FB8C48054318009040EC
S1131CC0864310D000243000E040984301D0013412
S1131CD0F9E7101B043F3E600E008001064300F04C
S1131CE08CFB2200DFE7002A06D0043F3E600E0092
S1131CF09201164300F081FB40CF3FBD1FB5310078
S1131D0040CF7B4C0C43C9000C434901300040CF09
S1131D10020EFF231A40744B0B431343043F3E60EF
S1131D201E0000F06AFB043F3E60260000F065FBE5
S1131D30020CFF231A406F4B0B431343043F3E60D6
S1131D401E0000F05AFB043F3E60260000F055FBE5
S1131D50020AFF231A40674B0B431343043F3E60C0
S1131D601E0000F04AFB043F3E60260000F045FBE5
S1131D700200FF231A405F4B0B431343043F3E60B2
S1131D801E0000F03AFB1FBD6C1C00000000056340
S1131D90616C6C2C0FB5330000F0B8FD300040CFFF
S1131DA01B1A043B5449194000290ED0534A91424E
S1131DB00BD00136043F3E600026FFF763FF043F6B
S1131DC03E604F4E00F019FB0FBD40CF5B084D48FD
S1131DD04D4919400843DB0A4C491940090408439A
S1131DE09B0A0121194089060843043F3E6006000E
S1131DF000F02BFB0FBDC046881D00000000086CDE
S1131E0069746572616C2C0008B5043F3E60404EF5
S1131E1000F0F3FA043F3E603E4E00F0EEFA3E4B13
S1131E203000184098420BD1F643043F3E6006262A
S1131E30FFF728FF043F3E60384E00F0DEFA08BD8D
S1131E40043F3E600626FFF71DFF08BDF81D000095
S1131E50200005646F65733E1E2000026B308047CE
S1131E60043F3E607646013E7047043F3E6076463E
S1131E70013E00F002F92A4A1368310040CF0220E3
S1131E80084000D10231023111600136043F3E6046
S1131E900026FFF733FF043F3E60194E00F0ADFA11
S1131EA0136000F03EFA00BD4C1E00000000073C29
S1131EB06275696C647300B500F06DFB00F026FD7B
S1131EC00220064040CF04D1043F3E60154E00F08E
S1131ED094FA043F3E60144E00F08FFA043F3E60D3
S1131EE0102600F0E1FA00BD002000000010000000
S1131EF000020000003000000100C0FF0000C0FF2D
S1131F008047000000F800F0FF070000FF03000016
S1131F10043F00003E6000000000FFFFF6430000A5
S1131F2004F0FF1F3600000000B50000A81E0000EA
S1131F305000035B275D03E02C1F00000000012715
S1131F4000B500F073FF300040CF017800290CD1B8
S1131F50FFF74DFD102027206E65656473206E61C8
S1131F606D6520210A0001F09BFA043F3E600600E3
S1131F7000F044FC40CF002E10D1DD48043F3E6009
S1131F800600FFF75BFDFFF732FD0C206E6F742037
S1131F90666F756E642E0A0001F082FA00BDC046B9
S1131FA0381F0000100008706F7374706F6E650046
S1131FB000B500F03BFF00F021FC300040CF002EC4
S1131FC0DBD01021014010290ED02021014020290E
S1131FD005D1FFF719FF043F3E60C64E04E0FFF74A
S1131FE013FF043F3E60C44EFFF7D4FE00BDC0465D
S1131FF0A01F0000000007696E6C696E652C00B5B7
S1132000BE49BF4ABF4B3088884208D0904208D0AE
S1132010984206D0043F3E60060000F0EEF9023616
S1132020F1E740CF00BD0EB4B54AB64B018802308B
S1132030914201D09942F9D10EBC7047F01F0000C3
S11320400000047265742C00043F3E60AC4ED4E181
S11320503C2000003000046578697400F4E7C04651
S1132060502000003000077265637572736500B517
S113207000F003F8FFF78EFE00BD0FB5A24800681C
S113208006300178FF2909D1043F3E60060001B4FF
S1132090FFF7CCF901BCFF21314040CF01310122CF
S11320A00A4089184018043F3E6006000FBDC04630
S11320B0602000004000057374617465043F3E6055
S11320C0924E7047B02000000000015D8F4800214F
S11320D0C94301607047C046C42000001000015B82
S11320E08A48002101607047D82000000000013AAE
S11320F000B58748076000F04EFA043F3E607F4E0B
S113210000F07BF981480021C943016000BDC0464D
S1132110E82000003000013B00B57D480168B94269
S11321200ED0FFF764FC1520537461636B206E6F4F
S1132130742062616C616E6365642E0A01F0B0F90B
S1132140043F3E606E4E00F058F900F0EAF86F4824
S11321500021016000BDC046102100000000076599
S1132160786563757465300040CF01308746C0469A
S113217058210000100009696D6D6564696174651A
S1132180043F3E601026FBE0702100001000066949
S11321906E6C696E6500043F3E602026F0E0C04628
S11321A08821000010000B636F6D70696C656F6EA1
S11321B06C79043F3E603026E2E0C046A021000076
S11321C010000A302D666F6C6461626C6500043F18
S11321D03E604026D4E0C046BC21000010000A3115
S11321E02D666F6C6461626C6500043F3E6041263D
S11321F0C6E0C046D821000010000A322D666F6C7C
S11322006461626C6500043F3E604226B8E0C046EB
S1132210F421000010000A332D666F6C6461626C57
S11322206500043F3E604326AAE0C0461022000039
S113223010000A342D666F6C6461626C6500043FA3
S11322403E6044269CE0C0462C22000010000A3563
S11322502D666F6C6461626C6500043F3E604526C8
S11322608EE0C0464822000010000A362D666F6CCE
S11322706461626C6500043F3E60462680E0C046AF
S11322806422000010000A372D666F6C6461626C72
S11322906500043F3E60472672E0C046802200008D
S11322A0000008636F6E7374616E740000B500F013
S11322B072F9FFF7A9FD043F3E60124E00F09DF84D
S11322C0FFF785FF00F02DF800BDC0469C220000FA
S11322D000000932636F6E7374616E7400B500F0B0
S11322E05AF939683E600E46FFF78EFDE1E70000BB
S11322F038F3FF1FFE1F0000941D000000B500000E
S113230000BD00007047000008F0FF1F0CF0FF1F25
S11323101CF0FF1FCC220000000006736D7564677B
S1132320650024480168244A91421DD200B502394F
S11323300A88224B9A4204D1043F3E60002600F0F2
S11323405CF800F048F81E480068043F3E60060050
S11323501C4909680431174A1368116000F04DF8EC
S11323601360FFF741F800BD043F3E60002607E01C
S113237014230000000008736574666C61677300C1
S113238000B50C4801680C4A914205D20C4801681A
S11323903143016040CF00BD320040CF094800689E
S11323A004300188054B994201D1110000E011432A
S11323B0018000BD04F0FF1F00F0FF1FFFFF0000BD
S11323C028F0FF1F08F0FF1F7023000000000761C2
S11323D06C69676E342C00B5DF4801680220014047
S11323E004D0043F3E60002600F007F800BDC0465C
S11323F0C8230000000002682C000FB5D64801680D
S1132400D64A914205D2043F3E600E00FFF745F8DC
S113241002E0320040CF0A80043F3E60022600F012
S113242043F80FBDF02300000000012C00B5043F69
S11324303E60FFF7E2FF360CFFF7DFFF00BDC0464A
S1132440242400000000033E3C2C00B5043F3E6001
S1132450360CFFF7D2FFFFF7D0FF00BD4024000089
S1132460000007737472696E672C07B5300040CFA3
S113247001780131022909D30288043F3E60160025
S1132480FFF7BBFF0230023906D0F3E70278043FBE
S11324903E601600FFF7B1FF07BDC0465C24000094
S11324A0000005616C6C6F74AB480168AB4A9142E3
S11324B00FD2320040CF8918A94A914219D3FFF7AD
S11324C096FA0B466C6173682066756C6C0A00F0B2
S11324D0E7FF320040CF8918A24A1268914208D31C
S11324E0FFF785FA0952616D2066756C6C0A00F07D
S11324F0D7FF01607047C0469C24000000000C63B5
S11325006F6D70696C65746F72616D0092480068DC
S11325109249884211D37047F824000000000E63EA
S11325206F6D70696C65746F666C617368008A485E
S113253000688A49884200D270478B488B490268F8
S11325400B680A6003608448894902680B680A6062
S1132550036084480068834215D300B5FFF747FA47
S113256023205661726961626C657320636F6C6CC1
S113257069646520776974682064696374696F6E3F
S11325806172790A00BD70471825000000000663D7
S113259072656174650000B500F048FC300040CFFE
S11325A0017800290ED1FFF722FA152043726561E4
S11325B07465206E65656473206E616D6520210A03
S11325C000F06EFF043F3E600600043F3E6000F0F2
S11325D015F940CF300040CF00280ED0FFF707FA9E
S11325E0095265646566696E6520043F3E60FFF7C5
S11325F025FAFFF7FCF9022E0A00FFF7ECFE00F0C3
S113260085F955480068554988421DD2594800212A
S11326100160043F3E600626FFF746FF39683E60CE
S11326200E46FFF722FF504801680A68524B9A424F
S113263007D1494A13681160043F3E60FFF7F6FE74
S11326401360066040CF00BD4748043F3E60066803
S1132650FFF7ECFE043F3E600026F643FFF7CDFE95
S11326604148310040CF0160FFF7FFFE00BDC04686
S1132670882500000000087661726961626C65005B
S1132680043F3E60012613E070260000000009327A
S11326907661726961626C65043F3E60022607E000
S11326A0882600000000096E7661726961626C65BB
S11326B000B5FFF770FF28480168284A914224D2E8
S11326C00F200640B20027480168891A0160043FC0
S11326D03E600E00FFF798FB043F3E60274EFFF775
S11326E08CFE300040CF0200002805D00E6004317B
S11326F0FFF79CFE0138F9D1043F3E608026164363
S1132700FFF73EFEFFF70DFE00BD00F0FFF80220CC
S1132710064040CF04D1043F3E60194EFFF76DFEE2
S1132720043F3E60174EFFF790FE043F3E60164E96
S1132730FFF78BFE043F3E60104EFFF75EFE300055
S113274040CF002803D0FFF771FE0138FBD1FFF71B
S11327503EFDFFF7E6FD00BD04F0FF1F00F0FF1F84
S1132760000002002CF0FF1F08F0FF1F24F0FF1FE1
S113277020F0FF1F28F0FF1FFFFFFFFF704700003E
S1132780360000003E60043F02367E46A02600006C
S113279000000F44696374696F6E617279737461C8
S11327A072742C4800682C4B1B682C49043F3E6013
S11327B0884201D22A4E70471E0070478C270000C1
S11327C000000A736B6970737472696E6700317804
S11327D0013101220A4089187618704706B401783D
S11327E0013101220A408918401806BC7047C046CE
S11327F0BC27000000000466696E64001FB5340045
S1132800FFF7CFFF300040CF002600238179FF2956
S11328101CD08188134A9142026812D00630043FCA
S11328203E600600043F3E602600FFF75EF8002E7F
S113283040CF06D0FFF7D2FF06000B0007488642C0
S113284004D20948824201D01000DFE7043F3E6011
S11328501E001FBD04F0FF1F08F0FF1F00F0FF1F44
S1132860D8350000FFFF0000FFFFFFFFF027000046
S1132870000006636A756D702C00320040CF310091
S113288040CF8B1B043B9A49194000290DD099482D
S113289081420AD0FFF7ABF80D4A756D7020746F52
S11328A06F206661720A00F0FBFD5B10FF210B4094
S11328B0134330001E0000B58F4A13681060FFF701
S11328C09CFD136000BDC0466C2800000000056A32
S11328D0756D702C310040CF300040CF0B1A043B93
S11328E086491940002902D0854A9142D2D15B1011
S11328F0844A1340844A1343043F3E601E00DAE7CF
S1132900C82800000000046865726500043F3E604A
S1132910794E3668704700B5043F3E607B4EFFF742
S11329206CFD043F3E607A4EFFF767FD00BDEDE7A6
S113293000B500F037F839683E600E46043F3E604B
S1132940744EFFF79AFF00BD00B500F02BF839680C
S11329503E600E46043F3E606F4EFFF78EFF00BDA3
S113296000B5FFF7D8FF00F01DF839683E600E4649
S1132970043F3E60694EFFF780FF00BD00B500F0E4
S113298011F839683E600E46FFF7A4FF00BD00B59C
S1132990FFF7C1FFFFF7BAFF043F3E600226FFF7CF
S11329A083FD00BD00B5FFF7B1FF043F3E60022682
S11329B0FFF77AFD00BD00B5FFF7A8FFFFF78AFF18
S11329C000BD00B5FFF7A2FF043F3E60534EFFF782
S11329D054FF00BD00B5FFF799FF043F3E604D4E24
S11329E0FFF74BFF00BDC04600290000300004740F
S11329F068656E00052E01D140CFDCE7022E01D1BF
S1132A0040CFDEE7FEF7F3FF1753747275637475F6
S1132A1072657320646F6E2774206D617463680A35
S1132A2000F03EFDE8290000300004656C73650089
S1132A3000B5022EE6D140CFFFF7B4FF39683E60FF
S1132A400E46FFF7BEFF043F3E60052600BDC046AC
S1132A50242A000030000269660000B5FFF797FFE2
S1132A60043F3E60022600BD502A0000300006727A
S1132A70657065617400042EC4D140CF39683E602E
S1132A800E4600B5FFF77AFFFFF79BFF00BDC04677
S1132A90682A00003000057768696C65012EB1D1A1
S1132AA040CF00B5FFF7D9FF023600BD902A0000E1
S1132AB0300005756E74696C012EA3D140CF4FE7C9
S1132AC0AC2A0000300005616761696E012E99D15E
S1132AD040CF53E7C02A0000300005626567696E85
S1132AE000B5FFF724FF043F3E60012600BD00004F
S1132AF001FFFFFF00FFFFFF04F0FF1F01F8FFFFCE
S1132B0000F8FFFFFF07000000E00000002E0000B7
S1132B1040CF000000D1000000D7000000D000002A
S1132B20D42A00002000016B043F3E606E46083E3C
S1132B3036687047202B00002000016A043F3E6085
S1132B40009E7047342B000020000169043F3E6062
S1132B5026007047442B00003000056C65617665E3
S1132B6000B5504801683B00043F1A68043B1A60F2
S1132B70043304338B42F8D103B4FFF713FF03BCCF
S1132B80330040CF04390B60016004390A68013214
S1132B900A6000BD542B0000200006756E6C6F6F38
S1132BA0700030BC7047C046942B00003000052BE9
S1132BB06C6F6F70032E00D024E740CF00B5043F44
S1132BC03E60394EFFF71BFAFFF7BEFE1AE0802085
S1132BD000060019A419401B801940CF7047C04655
S1132BE0A82B00003000046C6F6F7000032E00D01F
S1132BF008E740CF00B5043F3E602C4EFFF7FFF9D5
S1132C00FFF796FE00F0EEF82648310040CF016051
S1132C10043F3E60264EFFF7F2F900BD0134AC429A
S1132C207047C046E02B0000300002646F0000B51E
S1132C30043F3E601F4EFFF7E2F91A480168043F63
S1132C403E600E00043F3E6000260760FFF76FFE03
S1132C50043F3E60032600BD30B4340040CF35004D
S1132C6040CF7047242C00003000033F646F00B550
S1132C70043F3E60104EFFF7C2F90A480168043F62
S1132C803E600E00FFF78EFE0136043F3E600126D3
S1132C9004480760DAE730B4340040CF350040CF51
S1132CA0AC42704718F0FF1FCE2B00001C2C000014
S1132CB0A22B0000582C0000962C0000642C00006D
S1132CC03000046361736500043F3E600026043FE6
S1132CD03E6008267047C046BC2C00003000033F0D
S1132CE06F664A480AE0013EB64140CF7047C0468D
S1132CF0D82C00007800026F66004548082E00D0EA
S1132D0080E640CF00B5043F3E600600FFF777F948
S1132D10FFF748FE39683E600E460136043F3E60C8
S1132D200926043F3E603B4EFFF767FB00BD00B53C
S1132D30300040CF013B01B400F099FB01BC082EE8
S1132D4000D05FE640CFFF210140884207D13249DD
S1132D500843043F3E600600FFF74FFBD8E7043FFB
S1132D603E600600043F3E600026FEF78BFF043FF2
S1132D703E602A4EFFF741FBCAE7300040CFB04225
S1132D807047C046F02C0000300005656E646F6625
S1132D90092E00D036E640CF00B540B440CFFFF74F
S1132DA001FE39683E600E46FFF714FE043F3E60A4
S1132DB040BC043F3E60082600BDC046842D000090
S1132DC0300007656E6463617365082E00D019E6F0
S1132DD040CF00B5043F3E600E4EFFF70EFB00F0FF
S1132DE001F800BD00B5300040CF00280DD003B479
S1132DF001213140002903D0013EFFF7E2FD01E04B
S1132E00FFF7D9FD03BC0138EFE700BDE62C000055
S1132E107A2D000040CF0000002E0000B0420000D8
S1132E20BC2D0000000005746F6B656E2020043F0C
S1132E303E60060006E0C046202E0000000005703B
S1132E406172736530B510480178104A1278104BDE
S1132E5000248018202E07D1914210D00130013275
S1132E600578B542F8D006E0914208D0013001322D
S1132E700578B54203D0013301341D70F4E70348EB
S1132E800270034E347030BD70F0FF1F00F0FF1F5E
S1132E9038F3FF1F382E0000000005646967697469
S1132EA0C94B1B68303E0BD30A2E0BD3073E0A2EA8
S1132EB006D3242E06D3203E0A2E01D3242E01D37A
S1132EC0002670479E42FBD2043F3E600026F64334
S1132ED07047C046942E00000000066E756D626552
S1132EE072003FB5300001780126012204B4B64BCC
S1132EF01B680024002500293CD0013001390278E8
S1132F002D2A04D101B00022D24304B4F3E7232ACA
S1132F1001D10A23EFE7242A01D11023EBE7252A64
S1132F2001D10223E7E72E2A01D10226E3E72C2A66
S1132F3036D0043F3E601600FFF7B4FF002E40CFAA
S1132F402BD0043F3E602600043F3E602E00043F29
S1132F503E601E00043F3E6000260FB4FDF7B5FB43
S1132F600FBC350040CF340040CF0022A419554196
S1132F7040CFC0E704BC002A04D50022E443ED435B
S1132F800134554133002600012B02D0043F3E603A
S1132F902E00043F3E601E003FBD01B000263FBD31
S1132FA02500002402260029E4D0425C01392E2A9F
S1132FB0F9D0043F3E601600FFF774FF002E40CFA7
S1132FC0EBD0043F3C60043F3E601E000FB4FDF7AD
S1132FD030FC0FBC340040CF40CFE4E7D42E0000D7
S1132FE00000062E6469676974000A2E01D2303627
S1132FF004E0242E01D2373600E023267047C04671
S1133000DC2F0000000004686F6C6400330040CFC4
S11330106E4801783F290DD2013101704018012911
S113302007D00138027801300270013801390129D2
S1133030F7D103707047C0460030000000000568F7
S11330406F6C643C330040CF604801783F2902D262
S1133050013101704354704738300000000004739C
S113306069676E00002E01D440CF70472D26CDE74E
S113307058300000000002233E000437534E7047CE
S11330807030000000000366235310B5202400F0C4
S113309008F8013CFBD110BD80300000000002663E
S11330A0230000B5043F3E60474E3668FDF7DFFA63
S11330B0FFF79BFFFFF7C6FF00BDC0469830000036
S11330C000000223530000B500F00AF8002EFBD1E3
S11330D038680028F8D100BDBC300000000001238E
S11330E000B5043F3E60384E3668043F3E6000261B
S11330F0FDF7FFFBFDF7B8F940CFFFF776FFFFF7C9
S113310085FF00BDD83000000000023C23002F489A
S1133110002101707047C0460431000000000266BF
S11331202E0000B5FDF78CFDFDF758FA043F3E6014
S11331300026FFF7ECFFFFF7C6FF40CF2C26FFF772
S113314081FFFFF7A2FF40CFFFF78CFF043F3E60F3
S1133150043F3E601EE0C0461831000000000375C5
S1133160642E00B5FFF7D3FFFFF7ADFF12E0C046B2
S113317058310000000002642E0000B5FDF760FD28
S1133180FDF72CFAFFF7C3FFFFF79DFFFDF763FD83
S1133190FFF768FFFFF771FFFEF750FCFEF7E0FB57
S11331A000BDC04670310000000002752E00043FCF
S11331B03E600026D5E7C046A43100000000012E81
S11331C0043F3E60F617D8E710F0FF1F30F0FF1FF2
S11331D0B8310000000009696E746572707265741C
S11331E030B5BB4887420CD9FEF701FC105374611B
S11331F0636B20756E646572666C6F770A0000F00D
S11332004FF9B44887420BD2FEF7F1FB0F537461B8
S1133210636B206F766572666C6F770A00F040F915
S1133220FFF704FE300040CF0178002900D130BD03
S1133230A94C2568002D01D13D002560043F3E6066
S11332400600FFF7DBFA310040CF320040CF002AFE
S113325018D1043F3E600600FFF743FE320040CF22
S1133260002ABED1043F3E600600FEF7E7FBFEF7EE
S1133270BEFB0C206E6F7420666F756E642E0A00A0
S113328000F00EF9954B1B68002B1FD1002525601B
S113329030230B40302B12D1043F3E600600FEF772
S11332A0CDFBFEF7A4FB1220697320636F6D706978
S11332B06C652D6F6E6C792E0A0000F0F1F8043FF6
S11332C03E601600FEF74FFFFFF78BFF802008409B
S11332D0802810D0EB1B9B0840200840402810D1C8
S11332E008200840082802D1002B00D01FE00F203E
S11332F00840834205D3043F3E601600FEF733FFC7
S11333006FE700F0B4F8043F3E60160010220A4054
S1133310102A02D1FEF727FF63E720220A40202A61
S113332002D1FEF76CFE5CE7FEF734FD59E7072097
S11333300140012920D1012BDDD1330040CFFF20F2
S11333401840984206D11000FEF76DFE0230008846
S113335018430BE0043F3E601E00043F3E6000261D
S1133360FEF790FC1000FEF75EFE0088043F3E600E
S11333700600FFF742F834E7022902D1012BBAD143
S1133380EBE7032924D1012BB5D1330040CFFF2033
S1133390184098420DD152481843043F3E6006003D
S11333A0FFF72BF80432043F3E601600FEF727FEB9
S11333B017E7043F3E601E00043F3E600026FEF710
S11333C061FC0232043F3E601600FEF718FE08E777
S11333D004291CD1012B8ED1330040CF002B00D106
S11333E0FFE61F201840984205D0043F3E603D4E42
S11333F0FFF703F8F5E61000FEF715FE00889B01C1
S11334001843043F3E600600FEF7F7FFE9E605298E
S113341027D11000FEF707FE012B10D1043F3E60B8
S11334200026FEF72FFC0088043F3E600600FEF7EE
S1133430E4FF043F3E602C4EFEF7DFFFD1E6043F7D
S11334403E600026FEF71EFC043F3E600126FEF7A8
S113345019FC02300088043F3E600600FEF7CDFFF1
S1133460BFE61000FEF7DFFD01308047B9E600B586
S1133470002B0BD0013B043F3E609E00BE59FEF77B
S1133480C3FC002BF6D1043D2F0040CF002525605E
S113349000BDC046D031000000000471756974009D
S11334A0124885460A4FFDF797FF11480A2101602B
S11334B00A4800210160084800210160FEF7D8F99C
S11334C0FFF78EFEFEF793FA05206F6B2E0AF5E7E1
S11334D038F2FF1F38F1FF1F14F0FF1F0CF0FF1F1D
S11334E0003E00000026000040CF000038F3FF1F1C
S11334F010F0FF1F9434000020000465696E74000E
S113350062B67047F434000020000464696E7400ED
S113351072B67047043500000000036E6F70704788
S11335201435000081000B6972712D73797374690D
S1133530636B043F3E60754E70471E350000734850
S1133540006801308746C0462035000081000769C5
S113355072712D616463043F3E606D4E70471E3589
S113356000006B48006801308746C04648350000BB
S11335708100076972712D636D70043F3E60654E72
S113358070471E3500006348006801308746C04616
S11335906C3500008100076972712D646163043F1A
S11335A03E605D4E70471E3500005B480068013088
S11335B08746C046903500008100096972712D70FC
S11335C06F727461043F3E60544E70471E350000B4
S11335D05248006801308746B4350000810009690B
S11335E072712D706F727464043F3E604C4E70476C
S11335F01E3500004A4800680130874600214948CA
S11336000160FEF7AFF848488546484F2A264848E7
S1133610484901604848494901604848484D040008
S11336200268043001880230464B994215D0802349
S11336300B4012D00F23194089006D1AFFF7CEF802
S1133640FEF7F1FC043F3E600600043F3E602E009E
S1133650043F3E600E00FDF789FC3B48824205D0E2
S1133660100006321278FF2A00D0D8E737480460E9
S11336703748056037483849324A884204D002380E
S113368003889342F9D0023034490860FDF7A4FE60
S1133690FEF7ADF9414D6563726973702D5374651E
S11336A06C6C6172697320302E39207769746820DC
S11336B04D3020636F726520666F72204B4C32353B
S11336C05A313238206279204D61747468696173AB
S11336D0204B6F63680A22480A21016021480021B7
S11336E001602148002101602048043F3E6006003B
S11336F0FFF784F840CF002E02D0FEF734FDDDE65C
S113370040CFCDE604696E6974000000FC2F0020F0
S1133710F82F0020F42F0020F02F0020EC2F0020A1
S1133720E82F00200081044038F3FF1F38F2FF1F08
S113373004F0FF1FC0F4FF1F08F0FF1FD83500007E
S113374000300020FFFF0000FFFFFFFF24F0FF1FF9
S11337502CF0FF1F000002000040000020F0FF1FBB
S113376010F0FF1F0CF0FF1F14F0FF1F04370000C0
S9030000FC
