S02200006D6563726973702D7374656C6C617269732D6B6C32357A3132382E737265638F
S113000058F3FF1FB1460000B9450000B945000090
S113001000000000000000000000000000000000DC
S1130020000000000000000000000000E3450000A4
S11300300000000000000000E345000097450000B8
S1130040E3450000E3450000E3450000E34500000C
S1130050E3450000E3450000E3450000E3450000FC
S1130060E3450000E3450000E3450000E3450000EC
S1130070E3450000E3450000E345000003460000BB
S113008023460000E3450000E3450000E34500008B
S1130090E3450000E3450000E3450000E3450000BC
S11300A0E345000043460000E3450000E34500004B
S11300B0E3450000E3450000654600008946000072
S11300C0FFFFFFFFFFFFFFFFFFFFFFFFFFFFFFFF3C
S11300D0FFFFFFFFFFFFFFFFFFFFFFFFFFFFFFFF2C
S11300E0FFFFFFFFFFFFFFFFFFFFFFFFFFFFFFFF1C
S11300F0FFFFFFFFFFFFFFFFFFFFFFFFFFFFFFFF0C
S1130410C8060000FFFF1E2D2D2D204D6563726957
S113042073702D5374656C6C6172697320436F72C1
S113043065202D2D2D0007B55048002B09D000F064
S11304402EF800F034F800F01EF842612821016112
S1130450F3E707BD07B549480169282905D1426971
S113046000F004F800F0FCF8F6E707BD03B5043F1C
S11304703E601600043F3E601E0008B400F0B8FE63
S113048008BC013303BD03B5013B043F3E601E00BD
S113049008B400F097FE08BC320040CF03BD03B59A
S11304A0374801681E2901D000F016F803BD8169A0
S11304B0016201698161C16941624169C1611E21B1
S11304C0016170470FB52D4801691E2903D0FFF75C
S11304D0E6FFFFF7ECFF0FBD08B501681E220260BE
S11304E008290BD2043F3E60264E02F010FE043F62
S11304F03E60254E0E4302F00AFE08BD28290DD1A8
S1130500043F3E601F4E02F002FE436800F007F80D
S1130510043F3E601C4E1E4302F0F9FD08BD07B5C2
S113052000F017F84360282101600023043F3E6077
S11305301E0002F055FA07BD07B500F00AF8C360C3
S1130540282181600123043F3E601E0002F048FA26
S113055007BD0A4801681E2904D04168994201D1A7
S1130560002307BD81681E2904D0C168994201D1C6
S1130570012307BD043F3E601E00704728F0FF1FA3
S113058048F0FF1F043F00003860000007B5214811
S113059001698269036A062905D0062A03D0062B5D
S11305A001D0062307BD032905D0032A03D0032B5A
S11305B001D0032307BD022307BD00B5FFF7E6FF03
S11305C0036001219940043F3E60134E0E4302F044
S11305D09EFD00BD0FB50F4801691E2902D10F48C9
S11305E0FFF7EBFF0FBD0FB50A4881691E2904D13F
S11305F0FFF7F0FF0A48FFF7E0FF0FBD0FB505480E
S1130600016A1E2904D1FFF7EEFF0648FFF7D5FF64
S11306100FBD000028F0FF1F00CF000038F0FF1FBF
S113062040F0FF1F48F0FF1F00B50169282903D1DE
S11306304369FFF774FF190000BD00B581692829DB
S113064003D1C369FFF76BFF190000BD00B503694F
S1130650282B02D14369FFF76FFFDB001E4300BD67
S113066003B5584881690161C169416101E003B57D
S11306705448016A8161416AC1611E21016203BD5E
S11306800EB58269036A9A420AD1072A08D8043F40
S11306903E60D600FFF77AFF1E43836102F037FD08
S11306A00EBD0EB501698269036A914202D0994276
S11306B000D00EBD043F3E60CE00FFF767FF1E432F
S11306C0036102F024FD0EBDC807000000000961AB
S11306D06C6C6F6361746F720FB5100002F033FBC2
S11306E00200043F3E601688090B3648032918D1DE
S11306F0FFF779FF0169062901D100F091FC8269B5
S1130700282A01D100F08CFCFFF7BAFFFFF78CFF19
S1130710C90082690E43164302F0F9FCFFF7A0FFFB
S11307200FBD04291CD1FFF75EFFFFF7A9FFFFF7F8
S11307307BFF8269282A0BD1043F3E60C669FFF71C
S113074025FF8361043F3E601E001A0002F048F951
S1130750C9000E43164302F0DAFCFFF781FF0FBD18
S113076006290ED1FFF736FFFFF770FFFFF778FF7A
S1130770FFF7A8FEFFF70AFF03611E4302F0C7FC60
S11307800FBD072911D1FFF72EFFFFF75FFF836924
S1130790282B02D1C369FFF7C2FE1E4302F0B7FC47
S11307A0FFF75EFFFFF75CFF0FBD40CF01329047BC
S11307B00FBD0FB59CE70FB5B5E70FB5D2E70FB581
S11307C0E1E7000028F0FF1F78080000000009742A
S11307D069647975702D726100B500F005F800F058
S11307E008F800F00BF800BD0FB52F48FFF774FEB2
S11307F00FBD0FB52D48FFF76FFE0FBD0FB52C4889
S11308000169062202611E2905D1043F3E60294E7A
S113081002F07DFC2CE0282921D1436901681E29BE
S113082008D041688B4205D1043F3E60224E02F05D
S11308306EFC1DE081681E2908D0C1688B4205D179
S1130840043F3E601D4E02F062FC11E0043F3E6036
S11308501E00043F3E60062602F0C2F808E00629A6
S113086006D0043F3E60144EC9000E4302F04FFC14
S113087000F010F80FBDC046C00800000000156964
S11308806E69747265676973746572616C6C6F63A9
S113089061746F7206481E2101608160016281618A
S11308A0062101617047000048F0FF1F40F0FF1F60
S11308B028F0FF1F40CF0000064600000E4600004F
S11308C0D808000042000432647570003868043FA0
S11308D03E60043F38607047EC0800006200053257
S11308E064726F70043740CF7047C0460C09000033
S11308F0440005327377617007CF043F3860043FCA
S11309003E60043F3A600E007047C0462009000074
S1130910620004326E69700007CF043F386070478C
S11309203C090000440005326F766572B868043FE4
S11309303E60043F3860FE687047C04660090000AE
S1130940440005327475636B07CF043F3860043F7D
S11309503E60043F3A60043F3960043F38607047AA
S11309608409000046000432726F74003868B96864
S11309703A69B86039613A6079687E60FE68F96006
S11309807047C046A8090000460005322D726F74F6
S11309903868B9683A6938613960BA60F968FE60E4
S11309A07E6879607047C046BC09000020000332AD
S11309B03E7201CF01B440B440CF7047D409000067
S11309C020000332723E043F3E6040BC01BC043F41
S11309D038607047EC090000200003327240043F85
S11309E03E60019E043F3E60009E7047000A000086
S11309F0200006327264726F700002B07047C04605
S1130A00180A000042000364322F3868F107761098
S1130A1040080843386070472C0A000062000364F1
S1130A20322A38680018764138607047480A000056
S1130A3042000464736872003868F107760840085D
S1130A40084338607047C046600A000062000464CE
S1130A5073686C0038680018764138607047C04687
S1130A60740A00004200046461627300002E08D41A
S1130A707047C046940A0000420007646E656761CF
S1130A80746538680021C043F64301304E41386034
S1130A907047C046AC0A0000640002642D0007CF12
S1130AA0121AB1410E00043F3A607047C40A0000B4
S1130AB0640002642B0007CF12184E41043F3A60D1
S1130AC07047C046D80A0000610003733E64043FC7
S1130AD03E60F6177047C046040B000042000375E1
S1130AE06D2A3868030073433B60010C320C0B0021
S1130AF05343B6B280B24E4350433618360CF61800
S1130B007047C046340B00004200026D2A0038686A
S1130B10C11705D040423860F01704D07642E0E7B0
S1130B20F017DED0764200B5FFF7DBFFFFF7A9FF31
S1130B3000BDC046740B000044000375642A07CF4F
S1130B40564341437618010C130C59437618010C93
S1130B5080B292B25143434350430022C9185241D8
S1130B601204B6180A04090C80184E41043F386078
S1130B707047C046080C000044000475646D2A00E8
S1130B8010B50024043F3E607E68043F3E603E6929
S1130B90FFF7A7FF310040CF300040CF043F3E6055
S1130BA03E68043F3E60FE6803B4FFF79AFF03BC4F
S1130BB0330040CF320040CF043F3E603E68043FE4
S1130BC03E603E690FB4FFF78CFF0FBC921963417E
S1130BD040CF89196241634140CF043F3E607E6843
S1130BE0043F3E60FE680FB4FFF77BFF0FBC921911
S1130BF0634140CF89196241634140CF1E003A608E
S1130C007960B86010BDC0462C0C00004300022A75
S1130C102F0000B540B440CFFFF779FF043F3E609A
S1130C2040BC00F04FF8043700BDC046500C000033
S1130C304300052A2F6D6F6400B540B440CFFFF721
S1130C4066FF043F3E6040BC00F03CF800BDC04677
S1130C50740C0000430003752A2F00B540B440CF44
S1130C60FFF73FFF043F3E6040BC00F01CF8043730
S1130C7000BDC046980C0000430006752A2F6D6F16
S1130C80640000B540B440CFFFF72BFF043F3E6043
S1130C9040BC00F008F800BDB80C00004300067525
S1130CA06D2F6D6F640000B5043F3E60002600F0B8
S1130CB01AF840CF043700BDD80C00004300056D7E
S1130CC02F6D6F6400B5043F3E60F61700F034F8F2
S1130CD040CF043700BDC0462C0D0000440006750B
S1130CE0642F6D6F640030B4002300227968B86803
S1130CF035003C6840264000494152415B41AB42CB
S1130D0002D804D3A24202D3121BAB410130013EEC
S1130D10F1D10E0038607B60BA6030BC704730B4EB
S1130D2000237A68B9680020E2E7C046A40D0000F9
S1130D30440005642F6D6F6400B5F01719D0FFF7F8
S1130D40A0FEFFF7D9FDF0170CD0FFF79AFEFFF7CE
S1130D50D3FDFFF7C8FFFFF7CFFDFFF792FEFFF7C4
S1130D60CBFD00BDFFF7C8FDFFF7BDFFFFF789FE10
S1130D7000BDFFF7C1FDF0170ED0FFF782FEFFF7AD
S1130D80BBFDFFF7B0FFFFF77CFEFFF7B5FDFFF7F4
S1130D9078FEFFF7B1FD00BDFFF7AEFDFFF7A3FF3F
S1130DA000BDC046BC0D0000440002642F0000B525
S1130DB0FFF7C2FFFFF7B0FD00BDC046040E000000
S1130DC0440002662A0000B5F0170DD0FFF759FE63
S1130DD0FFF792FDF0170DD0FFF753FEFFF7D0FE9B
S1130DE040CF01CF386000BDFFF786FDF017F5D086
S1130DF0FFF747FEFFF7C4FE40CF01CF3860FFF78F
S1130E0040FE00BD500E0000440002662F0000B5F5
S1130E10F0170ED0FFF735FEFFF76EFDF0170ED07A
S1130E20FFF72FFEFFF768FDFFF779FFFFF774FD6B
S1130E3000BDFFF761FDF017F4D0FFF722FEFFF7C6
S1130E405BFDFFF76CFFFFF71CFEFFF765FD00BDC0
S1130E50640E000020000232210006CF316072606F
S1130E6040CF7047780E0000200002324000043F5B
S1130E707068386036687047980E00004400036458
S1130E80753C07CF8E4204D801D1904201D8002688
S1130E9070470026F6437047B80E00004400036410
S1130EA0753E07CFB14204D801D1824201D8002651
S1130EB070470026F6437047D80E000044000264D1
S1130EC03C0007CF8E4204DC01D1904201DC0026B5
S1130ED070470026F6437047F80E00004400026491
S1130EE03E0007CFB14204DC01D1824201DC00267E
S1130EF070470026F6437047080F00006200036441
S1130F00303C0437F6177047240F00004200036496
S1130F10303D01CF002801D000267047013EB64184
S1130F207047C046400F0000440003643C3E07CFB6
S1130F30904201D1761A01D00026F6437047C0468C
S1130F405C0F0000440002643D0007CF904201D0D2
S1130F5000267047761A013EB6417047700F0000B4
S1130F60200003737040043F3E603E007047C0465B
S1130F70800F0000200003737021370040CF7047BA
S1130F80940F0000200003727040043F3E606E46E0
S1130F907047C046A40F0000200003727021B546BC
S1130FA040CF7047C80F0000610203647570043FAE
S1130FB03E60704706B5FFF70DFB01694269FFF714
S1130FC081FA0161426106BDF40F0000610204640C
S1130FD0726F700040CF704700B501691E2905D1BA
S1130FE0043F3E60894E02F092F800BDFFF738FBE3
S1130FF000BDC0460C1000006100043F6475700021
S1131000002E01D0043F3E607047C04638100000F7
S1131010620204737761700039683E600E007047A5
S11310200CB5FFF7E0FA02698369036182614269E2
S1131030C3694361C2610CBD641000006202036EA7
S113104069700437704700B5FFF7C4FA81691E2937
S113105002D0FFF70CFB00BD043F3E606B4E02F074
S113106056F800BD8C1000006202046F76657200B1
S1131070043F3E607E68704700B5FFF7B4FA8169AB
S1131080C269FFF71FFA0161426100BDB810000098
S11310906202047475636B0001CF083F7E603860A0
S11310A0704700B5FFF79FFAFFF7F9F9016901628C
S11310B04169416200BDC046F01000006302037242
S11310C06F7403CF083F78603E600E0070470EB522
S11310D0FFF794FA01698269036A8161026203611C
S11310E04169C269436AC161426243610EBDC0463F
S11310F0141100006302042D726F740003CF083FC3
S11311007E6039600600704700B5FFF7E0FFFFF727
S1131110DEFF00BD281100002000047069636B002D
S1131120B0003E587047C0464011000000000564FE
S1131130657074683649C91B043F3E608E08704769
S11311405C11000000000672646570746800043F5E
S11311503E606E462F49891B8E0870476C11000053
S11311602000023E720040B440CF7047801100005E
S1131170200002723E00043F3E6040BC7047C046FF
S113118094110000200002724000043F3E60009E63
S11311907047C046A41100002000057264726F708D
S11311A001B07047B8110000200005727069636BCC
S11311B0B6006E4436687047E41100000000047203
S11311C06F6C6C00002E01D140CF7047B0003958CD
S11311D0C019031F1A6802600438013EF9D10437AC
S11311E00E007047181200000000052D726F6C6C21
S11311F0002E01D140CF7047386839464A680A60EA
S11312000431013EFAD1086040CF70470437000032
S113121058F2FF1F58F3FF1F3012000060000474DF
S113122072756500043F3E600026F6437047C04671
S11312304412000060000566616C7365043F3E6003
S11312400026704758120000203203616E6401CFFB
S1131250064070470040C0466C1200002042036202
S1131260696301CFB04306007047804380120000D9
S11312702032026F720001CF064370470043C0461C
S113128094120000203203786F7201CF46407047F9
S11312904040C046B4120000410003636C7A300041
S11312A006D00026400002D001D20136FAE770478A
S11312B020267047C4120000610003726F7201207F
S11312C0C6417047D8120000610003726F6C0020A1
S11312D0B61946417047C0460C130000620207610C
S11312E072736869667401CF30410600704700B5B7
S11312F0043F3E60FD4E043F3E60FD4EFFF773F930
S113130041691F2928D91F21416125E034130000B8
S11313106202067273686966740001CFF0400600C9
S1131320704700B5043F3E60F24E043F3E60F24E0B
S113133012E0C046C01300006202066C736869665E
S1131340740001CFB0400600704700B5043F3E6012
S1131350EA4E043F3E600026FFF745F9016928295B
S113136003D040CFFFF727FA00BD04374169FFF7E8
S113137077F9002901D140CF00BD1F290FD8890179
S11313800E430269D2001643FFF76AF9FFF79AF891
S1131390FFF7FCF803611E4301F0B9FE00BD40CF26
S11313A0FFF75EF9FFF78EF8FFF7F0F80361043FEB
S11313B03E60D34E1B021E4301F0A9FE00BDC04691
S11313C0E4130000610202303D00013EB641704763
S11313D000B500F0CCFD043F3E60CA4E00F012FEA2
S11313E000BDC04604140000610203303C3E013ECF
S11313F0B641F643704700B5FFF7EAFF00F015FE6B
S113140000BDC04620140000610202303C00F61703
S1131410704700B5043F3E60BB4E00F0F3FD00BDD5
S1131420541400004202023E3D0001CFB04201DAF2
S1131430002601E00026F6437047043F3E60B34EA9
S1131440043F3E60B24E00B500F0D0F800F00FF952
S113145000BDC046881400004202023C3D0001CF9A
S1131460B04201DD002601E00026F6437047043F48
S11314703E60A84E043F3E60A74E00B500F0B6F8AB
S113148000F0F5F800BDC046B81400004202013C6B
S113149001CFB04202DA0026F64300E0002670478E
S11314A0043F3E609D4E043F3E609D4E00B500F0FB
S11314B09DF800F0C9F800BDE81400004202013EA6
S11314C001CFB04202DD0026F64300E0002670475B
S11314D0043F3E60934E043F3E60934E00B500F0DF
S11314E085F800F0B1F800BD141500006202037520
S11314F03E3D01CF861BB641F6437047043F3E6034
S11315008A4E043F3E608A4E00B500F06FF800F04A
S1131510AEF800BD40150000620203753C3D01CFEA
S1131520361AB641F6437047043F3E60814E043F8D
S11315303E60814E00B500F059F800F098F800BD07
S11315406C150000620202753C0001CF861BB64197
S11315507047043F3E60794E043F3E60784E00B5CC
S113156000F044F800F070F800BDC0469815000083
S1131570620202753E0001CF361AB6417047043F3D
S11315803E60704E043F3E606F4E00B500F02EF892
S113159000F05AF800BDC046C41500006202023CC7
S11315A03E0001CF361A01D00026F6437047043FAF
S11315B03E60664E043F3E6000B500F017F800F050
S11315C043F800BD941600006202013D01CF361AB3
S11315D0013EB6417047043F3E605D4E043F3E60AD
S11315E000B500F003F800F02FF800BD00B5FEF7D9
S11315F0FAFF8269282A03D1FFF712FD043700E0BD
S113160040CF0169282909D14169FF2906D8043F3F
S11316103E60504E0E438169090206E0FFF704F86C
S1131620043F3E604C4ED20016430E4301F06FFD62
S1131630FFF716F8FFF714F8FEF744FFFEF7A6FFCE
S1131640036101F064FD00BD00B5043F3E602C4E13
S113165000F090FC043F3E60404E01F058FD043F12
S11316603E60274E00F086FC00F0DFFC00BD00B5B4
S1131670043F3E60224E00F07DFC00F0D6FC043FA7
S11316803E60374E01F043FD043F3E601C4E00F0C7
S113169071FC00BDA81600006200036D696E01CFE5
S11316A0B04200DA06007047BC1600006200036D09
S11316B0617801CFB04200DB06007047D416000009
S11316C0620004756D61780001CFB04200D306005A
S11316D07047C04664170000620004756D696E00AF
S11316E001CFB04200D8060070470000004100005E
S11316F000100000C040000000080000804000000E
S11317000020000080410000C017000002DB000040
S113171002DA000002DC000002DD000001DB000050
S113172001DA000001DC000001DD000002D300004A
S113173002D2000002D8000002D9000001D3000048
S113174001D2000001D8000001D9000001D100003D
S113175001D00000002800008042000001E00000E9
S113176000E00000A41700000000046D6F7665001F
S113177007B5310040CF320040CF00290FD0B2422C
S11317800DD006D3013E013A705C50540139FBD1AF
S113179005E030781070013601320139F9D140CFBB
S11317A007BDC046C817000000000466696C6C00E1
S11317B0300040CF310040CF002902D001397054AD
S11317C0FCD140CF7047C046D817000020620140CA
S11317D0366870470068C046EC170000207201218B
S11317E003CF30600E0070470060C0463018000020
S11317F02002022B210003CF3268121832600E003F
S11318007047043F3E60C24E043F3E60C14E00B587
S1131810FEF7E9FEFFF7CEFBFEF7CFFFFFF757FC1D
S113182000F051FBFFF7FCFBFEF7C9FF00BDC0460B
S11318304018000020620268400036887047008823
S11318405418000020720268210003CF30800E007B
S11318507047008078180000200203682B2103CF12
S11318603288121832800E007047043F3E60AA4E40
S1131870043F3E60A94ECAE7881800002062026354
S113188040003678704700789C180000207202638C
S1131890210003CF30700E0070470070C0180000A4
S11318A0200203632B2103CF3278121832700E000A
S11318B07047043F3E609A4E043F3E60994EA6E74F
S11318C00C190000200204626973210003CF3268FE
S11318D0024332600E007047043F3E608C4E043F6A
S11318E03E60914E043F3E608A4E00B5FEF77BFE9B
S11318F0FFF760FBFEF761FFFFF7E9FBFEF759FF17
S1131900FFF78EFBFEF75BFF00BDC04658190000D1
S1131910200204626963210003CF3268824332608B
S11319200E007047043F3E60794E043F3E607F4E98
S1131930043F3E60774E00B5FEF755FEFFF73AFBD5
S1131940FEF73BFFFFF7C3FBFEF735FFFFF768FB2E
S1131950FEF735FF00BDC04684190000200204785C
S11319606F72210003CF3268424032600E0070472C
S1131970043F3E60664E043F3E606D4E043F3E6051
S1131980644EB2E7C019000020020462697440008A
S113199001CF36680640013EB641F6437047043F26
S11319A03E605C4E00B5FEF71EFEFEF706FF043FE8
S11319B03E60604EFEF7FDFEFFF71DFD00BDC04614
S11319C0EC190000200205686269732103CF328894
S11319D0024332800E007047043F3E604E4E043F87
S11319E03E60514E043F3E604C4E7EE7181A0000A4
S11319F0200205686269632103CF32888243328002
S1131A000E007047043F3E60434E043F3E60474E25
S1131A10043F3E60414E8EE7441A000020020568F0
S1131A20786F722103CF3288424032800E007047B3
S1131A30043F3E60384E043F3E603D4E043F3E60EE
S1131A40364E52E7681A0000200205686269744045
S1131A5001CF36880640013EB641F6437047043F45
S1131A603E602E4E9EE7C046941A00002002056395
S1131A706269732103CF3278024332700E007047DB
S1131A80043F3E60264E043F3E60274E043F3E60C6
S1131A90244E2AE7C01A000020020563626963210C
S1131AA003CF3278824332700E007047043F3E60A9
S1131AB01B4E043F3E601D4E043F3E60194E3AE704
S1131AC0EC1A000020020563786F722103CF32788C
S1131AD0424032700E007047043F3E60104E043F97
S1131AE03E60134E043F3E600E4EFEE6381B00007F
S1131AF0200205636269744001CF36780640013ED6
S1131B00B641F6437047043F3E60064E4AE7000084
S1131B1000600000006800000080000000880000F1
S1131B2000700000007800000043000080430000C3
S1131B304040000000400000481C00000000066611
S1131B406C6173682100300040CF310040CF854B79
S1131B50984268D3844B99422ED0032202402CD160
S1131B6002689A4246D1814A137880221A40FAD0F8
S1131B7030221A4002D07D4A302313707C4A062357
S1131B8013707C4A1070000A7B4A1070000A7B4A6A
S1131B9010707B4A1170090A7A4A1170090A7A4A4C
S1131BA01170090A794A1170704A802313706F4AC0
S1131BB0137880221A40FAD0704700F0BFFD3041FC
S1131BC06464726573732068617320746F20626546
S1131BD020342D616C69676E656420666F722077AE
S1131BE0726974696E6720666C61736820210A00EB
S1131BF002F02EFC00F0A2FD29466C617368206C93
S1131C006F636174696F6E2063616E6E6F742062BE
S1131C1065207772697474656E20747769636520D2
S1131C20210A02F015FC00F089FD1943616E6E6F04
S1131C307420777269746520696E746F20636F72A3
S1131C406520210A02F004FCCC1C000000000E6692
S1131C506C617368706167656572617365000FB567
S1131C60300040CF3F4B984220D3032398433F4A50
S1131C70137880221A40FAD030221A4002D03B4A0C
S1131C80302313703A4A092313703A4A1070000A39
S1131C90394A1070000A394A1070344A802313708C
S1131CA0324A137880221A40FAD00FBD00F046FD64
S1131CB01443616E6E6F7420657261736520636F87
S1131CC0726520210A0002F0C3FBC046481D0000D3
S1131CD000000A6572617365666C6173680021486F
S1131CE072B62B492B4A036893421CD0043F3E60D2
S1131CF00600043F3E6000F021FD104572617365EB
S1131D0020626C6F636B20617420200000F08EFDF4
S1131D1000F014FD0C2066726F6D20466C617368D0
S1131D200A00FFF79CFF04308842DCD100F006FD76
S1131D301246696E69736865642E20526573657412
S1131D4020210A0002F014FCE01D000000000E65D2
S1131D5072617365666C61736866726F6D003000E2
S1131D6040CFBDE700600000FFFFFFFF000002401E
S1131D700700024004000240050002400600024041
S1131D8008000240090002400A0002400B00024021
S1131D9000000200FFFFFFFF46486021002202808E
S1131DA002300139FBD17047424860210288002A81
S1131DB012D000F0C3FC1D556E7061697265642019
S1131DC031362D62697420466C61736820777269BC
S1131DD074652E0A02F03CFB02300139E6D17047EB
S1131DE0B81E000000000768666C6173682130B596
S1131DF0320040CF500813D300F0A0FC1E68666C7C
S1131E0061736821206E65656473206576656E2054
S1131E106164647265737365732E0A0002F018FBC3
S1131E200223534023482021048845882D042C4351
S1131E309C422AD006300139F6D11E48202104885C
S1131E4045882D042C431AD006300139F7D100F00F
S1131E5075FC27546F6F206D616E7920756E70610B
S1131E60697265642031362D62697420466C617331
S1131E7068207772697465732E0A02F0E9FA0280A9
S1131E80120C4280868040CF30BD0221114003D025
S1131E90023A8188360401E0818809040E43043F34
S1131EA03E6016000021018041808180FFF74BFED7
S1131EB030BD000058F3FF1FE41E00006202012B36
S1131EC001CF3618704700B5FEF78DFB043F3E6026
S1131ED0D14E043F3E60D14E8169282912D1FFF7CB
S1131EE09FF80FE0601F00006202012D01CF861BE6
S1131EF0704700B5FEF777FB043F3E60C84E043FD1
S1131F003E60C84E016928290ED14169FF290BD8CA
S1131F1040CFFEF7B5FB0E43816909020E4301F081
S1131F20F6F8FEF79DFB00BD0437FEF77DFB8269E2
S1131F30282A03D1C369FEF7F2FA1A008901D200F4
S1131F400E431643FEF78CFBFEF78AFBFEF7BAFA44
S1131F50FEF71CFB03611E4301F0D9F800BDC04627
S1131F608C1F0000610202312D00013E7047043FC6
S1131F703E60AD4E00B5FEF72DFBFEF792FB016906
S1131F8009020E4301F0C3F800BDC046A41F0000BF
S1131F9061020563656C6C2B04367047043F3E6038
S1131FA0A24EE7E7BC1F0000610202312B0001369C
S1131FB07047043F3E609E4EDCE7C046D41F0000DD
S1131FC0610202322D00023E7047043F3E60994E8A
S1131FD0D0E7C046EC1F0000610202322B0002363B
S1131FE07047043F3E60944EC4E7C0461C20000086
S1131FF06100066E65676174650076427047043F50
S11320003E608E4E00B5FEF7E5FAFEF74AFB016925
S11320100E43C9000E4301F07AF800BD34200000DD
S11320206102036E6F74F6437047043F3E60844E52
S1132030E8E7C0464C20000061020373687276082A
S11320407047043F3E607F4EDCE7C0465C200000E2
S113205061020373686C7600704706E07420000028
S1132060610202322A0076007047043F3E60402637
S1132070C8E7C0468C20000061020563656C6C7380
S1132080B6007047043F3E608026BBE7A4200000F2
S1132090610202322F0076107047043F3E606A4EA0
S11320A0B0E7C046B8200000610003616273F01716
S11320B0361846407047C0460021000042000575AE
S11320C02F6D6F64310040CF002903D1043F3E607F
S11320D000267047012200238E4206D9003104D421
S11320E05200490001D48E42FAD88E4201D3761AA6
S11320F0134349085208F8D1043F3E601E0070475C
S1132100702100004200042F6D6F640000B53000A0
S113211040CF002E1CDA764200280CDA4042043FFD
S11321203E600600FFF7CEFF300040CF7642043F0A
S11321303E60060000BD043F3E600600FFF7C2FF9C
S1132140300040CF40427642043F3E60060000BD6E
S1132150002807DA4042043F3E600600FFF7B2FF62
S1132160764200BD043F3E600600FFF7ABFF00BDB2
S1132170842100004200036D6F6400B5FFF7C6FFC1
S113218040CF00BD982100004200012F00B5FFF7A9
S1132190BDFF043700BDC046A82100002032012A3B
S11321A001CF464370474043BC21000061000465F1
S11321B076656E000120304036187047D421000047
S11321C08100046261736500043F3E601F4E7047E6
S11321D00A000000EC21000000000662696E6172D2
S11321E079001A48022101607047C04604220000A9
S11321F0000007646563696D616C14480A2101601D
S11322007047C046982200000000036865780F48B4
S11322101021016070470000003000000018000029
S113222000380000001A00000138000004300000EB
S1132230013000000238000002300000404200007B
S1132240C04300004008000040100000FC2F0020A4
S113225080498148016081498148016081498248FF
S113226001608249824801608248016000218248FD
S11322700170824801708248017082480170062111
S1132280814801700021814801701A218048017041
S11322900C21794801707047B4220000810009685C
S11322A06F6F6B2D656D6974043F3E60794E7047A6
S11322B0AA230000D0220000810008686F6F6B2DF4
S11322C06B657900043F3E60734E7047D223000073
S11322D0F022000081000A686F6F6B2D656D6974D0
S11322E03F00043F3E606D4E704700240000C0462E
S11322F00C230000810009686F6F6B2D6B65793FBB
S1132300043F3E60664E7047322400002C230000D8
S113231081000A686F6F6B2D706175736500043FEF
S11323203E60604E70471E450000C04644230000D6
S1132330000004656D6974000FB5564800F029F873
S11323400FBDC046582300000000036B65790FB52C
S1132350514800F01EF80FBD6C2300000000056515
S11323606D69743F4D4800688746C046802300006D
S11323700000046B65793F00494800688746C04601
S11323809823000000000570617573654548006876
S1132390874600688746C046C023000000000B73D0
S11323A0657269616C2D656D697400B500F028F87B
S11323B0002E40CFFAD03C48067040CF00BDC04646
S11323C0EC23000000000A73657269616C2D6B6573
S11323D0790000B500F02DF8002E40CFFAD0324835
S11323E0043F3E600678F6B200BDC04620240000DB
S11323F000000C73657269616C2D656D69743F0032
S113240000B5FFF7C3FF294808210170043F3E606F
S11324100026264880220178114000D0F64300BDF2
S1132420B024000000000B73657269616C2D6B654C
S1132430793F00B5FFF7AAFF1C4808210170043F4B
S11324403E600026194820220178114000D0F6434E
S113245000BD0000803F000038800440300400F0DC
S113246034800440000000040480044000020000A2
S1132470049004400890044003A0064002A00640D3
S113248006A0064005A006400AA0064000A006409B
S113249001A00640F82F0020F42F0020F02F002088
S11324A0EC2F0020E82F002007A0064004A00640DF
S11324B0D42400000000076365787065637400B578
S11324C0386801B40130386000F00BF801BC0670C4
S11324D040CF00BD4C2500000000066163636570B9
S11324E0740000B502CF01390022FFF730FF30003D
S11324F040CF7F2809D0202819D2092816D00A28CD
S11325001FD00D281DD00828EFD1002AEDD000F0EF
S113251015F903082008002AE7D0885C013A8023D3
S11325200340E2D040230340F5D0DEE72020B2424E
S1132530DBD2043F3E600600FFF7FEFE0132885402
S1132540D3E7160000F0A8F800BDC04660250000DF
S1132550400003746962043F3E602B4E7047C046DE
S1132560782500008100033E696E043F3E60274EDB
S1132570704700000000C046A025000082000E63E2
S1132580757272656E742D736F7572636500043FA6
S11325903E601F4E70470000000090F0FF1FC046D1
S11325A0BC250000000009736574736F7572636560
S11325B0174802CF0660416040CF7047DC25000019
S11325C0000006736F7572636500043F3E60104E31
S11325D0043F7068386036687047C04614260000AF
S11325E000000571756572790FB508480021016016
S11325F0FFF7B1FF043F3E60043F3E60C826FFF78B
S113260070FFFFF7D5FF0FBD90F0FF1FE42F0020F0
S1132610DC2F002064260000000007636F6D7061EA
S113262072650FB5310040CF01CF884202D040CF50
S113263000260FBD02CF002810D001380A5C335C9D
S1132640412A02D35B2A00D22032412B02D35B2BD6
S113265000D220339A42EED000260FBD0026F64366
S11326600FBDC0467826000000000263720000B56A
S113267000F064F8010A00BD8C260000000002622C
S11326806C00043F3E6020267047C046A026000030
S11326900000057370616365043F3E6020264BE6CD
S11326A0C02600000000067370616365730000B506
S11326B0002E03DDFFF7F0FF013EFBD140CF00BD4C
S11326C0D02600005000065B636861725D0005E07F
S11326D0E8260000000004636861720000B501F0A0
S11326E0CFFB40CF367800BDF8260000500001280B
S11326F0043F3E60292606E0142700005000015CD8
S1132700043F3E60002600B501F0C4FB043740CF0F
S113271000BDC0465C2700001000022E2200A14824
S113272000B5043F3E60060000F0E2F9043F3E605D
S1132730222601F0AFFB00F024FD00BD0AB4043FE3
S11327403E607646013E33780121013319405B181F
S11327507146C9188E460ABC3CE0C0468427000076
S11327601000026322009048DAE7043F3E60764698
S1132770013E33780121013319405B187146C918B1
S11327808E467047B027000010000273220087486D
S1132790C6E7043F3E607646043F3E60013E36781D
S11327A00121731C19405B187146C9188E46704785
S11327B0C8270000000005636F756E740136043F7E
S11327C03E60013E36787047F02700000000056344
S11327D07479706501B53078002807D00136043F5C
S11327E03E603678FFF7A8FD0138F7D140CF01BD30
S11327F0202800000000047479706500310040CF87
S1132800300040CF00B5002908D00022043F3E60CC
S1132810865CFFF791FD01329142F7D100BDC046BD
S11328205C2800000000046865782E0007B53100BC
S113283040CF20200F220438043F3E600E00C640E3
S11328401640092E01D9373600E03036FFF774FD03
S11328500028F0D1FFF720FF07BDC0466C28000018
S1132860000003682E731FB5514C0EE07C28000055
S1132870000003752E731FB54E4C06E0FC280000C3
S11328800000022E73001FB54B4C4C49C91B89082C
S11328904B4A106803B40A201060FFF74FFF085337
S11328A07461636B3A205B00043F3E600E0001F0EC
S11328B0CFFCFFF743FF025D200003BC404A1060D9
S11328C000290AD03F4A106806B4043F3E6006005F
S11328D0A04706BC043A0139F5D1FFF72FFF0620C3
S11328E0544F533A2000043F3E603600A047FFF7A0
S11328F025FF04202A3E0A001FBDC046C829000047
S1132900000005776F72647300B5FFF717FF067751
S11329106F7264730A0000F072FEFFF70FFF094143
S11329206464726573733A20043F3E60FFF77EFF70
S1132930FFF704FF064C696E6B3A2000043F3E60CB
S11329403668FFF773FFFFF7F9FE07466C6167739C
S11329503A20043F3E60B688FFF768FFFFF7EEFEBB
S113296006436F64653A2000B01D00F083FE043F07
S11329703E600600FFF75AFFFFF7E0FE064E616D6A
S1132980653A2000043F3E600636FFF723FFFFF759
S1132990D5FE010A00F04BFE300040CFBDD040CF41
S11329A000BD00003C2700006A27000092270000B9
S11329B02D2800003F4200005142000058F2FF1F42
S11329C0FC2F002054F2FF1FE42A000000001072C4
S11329D0656769737465726C69746572616C2C00E7
S11329E03FB5350040CF2900C90029432D029E4838
S11329F00543FF2300223000D040984301D0013228
S1132A00F9E73000D04018402843043F3E600600F8
S1132A1000F07DFB9548054318009040864310D094
S1132A2000243000E040984301D00134F9E7101B42
S1132A30043F3E600E008001064300F068FB220064
S1132A40DFE7002A06D0043F3E600E0092011643E1
S1132A5000F05DFB40CF3FBD1FB5310040CF844C3B
S1132A600C43C9000C434901300040CF020EFF2340
S1132A701A407D4B0B431343043F3E601E0000F09D
S1132A8046FB043F3E60260000F041FB020CFF239E
S1132A901A40784B0B431343043F3E601E0000F082
S1132AA036FB043F3E60260000F031FB020AFF23A0
S1132AB01A40704B0B431343043F3E601E0000F06A
S1132AC026FB043F3E60260000F021FB0200FF23AA
S1132AD01A40684B0B431343043F3E601E0000F052
S1132AE016FB1FBD542B000000000563616C6C2CA9
S1132AF00FB5330000F062FE300040CF1B1A043BD8
S1132B005D49194000290ED05C4A91420BD0013630
S1132B10043F3E600026FFF763FF043F3E60584ECB
S1132B2000F0F5FA0FBD40CF5B08564856491940EE
S1132B300843DB0A55491940090408439B0A01214B
S1132B40194089060843043F3E60060000F009FB73
S1132B500FBDC046A82B00000000086C69746572A4
S1132B60616C2C0008B5043F3E60494E00F0CFFA7A
S1132B70043F3E60474E00F0CAFA474B300018400D
S1132B8098420BD1F643043F3E600626FFF728FF28
S1132B90043F3E60414E00F0BAFA08BD043F3E6077
S1132BA00626FFF71DFF08BDD02B000000000663BA
S1132BB072656174650000B500F03DF82B200002D9
S1132BC0EF308047043F3E607646013E00BDC0467C
S1132BD0282C0000200005646F65733E2B20000242
S1132BE0EF308047043F3E607646013E7047043F25
S1132BF03E607646013E2A4A13682A490968022043
S1132C00084000D10231023111600136043F3E60B8
S1132C100026FFF721FF043F3E60194E00F077FACB
S1132C20136000F0E0F900BDAC2C00000000073C8C
S1132C306275696C647300B500F06EFB00F0BEFD54
S1132C400220064040CF04D1043F3E60362600F007
S1132C505EFA043F3E60144E00F059FA043F3E60B1
S1132C60102600F0C1FA00BD002000000010000092
S1132C7000020000003000000100C0FF0000C0FF9F
S1132C808047000000F800F0FF070000FF03000089
S1132C90043F00003E6000000000FFFFF643000018
S1132CA000F0FF1F14F0FF1F00B50000B82C000057
S1132CB05000035B275D03E0D02C000000000127D7
S1132CC000B501F0DDF800F014FD300040CF00BD88
S1132CD0102D0000100008706F7374706F6E650023
S1132CE000B5FFF7EDFF102101400DD12021014077
S1132CF005D0FFF737FF043F3E60E04E04E0FFF7E6
S1132D0031FF043F3E60DE4EFFF7F2FE00BDC046D9
S1132D105C2D0000000007696E6C696E652C00B5BF
S1132D20D849D94AD94B3088884208D0904208D033
S1132D30984206D0043F3E60060000F0E8F90236EF
S1132D40F1E740CF00BD0EB4CF4AD04B018802302A
S1132D50914201D09942F9D10EBC7047702D000008
S1132D600000047265742C00043F3E60C64ECEE140
S1132D70802D00003000046578697400F4E7C046D3
S1132D80982D000030000772656375727365043F07
S1132D903E60BF4E3668ABE6B02D0000810005737F
S1132DA074617465043F3E60BA4E704700000000D1
S1132DB0C42D00000000015DB6480021C943016034
S1132DC07047C046D42D00001000015BB1480021BB
S1132DD001607047FC2D00000000013A00B5AE48C8
S1132DE0076000F099FA043F3E60A64E00F08FF9A8
S1132DF0A8480021C943016000BDC046442E00001C
S1132E003000013B00B5A4480168B9420ED0FFF779
S1132E1095FC1520537461636B206E6F742062619E
S1132E206C616E6365642E0A01F012FB043F3E6020
S1132E30954E00F06CF900F0D6F896480021016038
S1132E4000BDC046582E0000000007657865637514
S1132E507465300040CF8746702E00001000096969
S1132E606D6D656469617465043F3E601026EBE036
S1132E70882E0000100006696E6C696E6500043FC0
S1132E803E602026E0E0C046A42E000010000B6344
S1132E906F6D70696C656F6E6C79043F3E603026AF
S1132EA0D2E0C046C02E000010000A302D666F6CC0
S1132EB06461626C6500043F3E604026C4E0C04625
S1132EC0DC2E000010000A312D666F6C6461626CA8
S1132ED06500043F3E604126B6E0C046F82E00007F
S1132EE010000A322D666F6C6461626C6500043FE9
S1132EF03E604226A8E0C046142F000010000A33AA
S1132F002D666F6C6461626C6500043F3E6043260D
S1132F109AE0C046302F000010000A342D666F6C12
S1132F206461626C6500043F3E6044268CE0C046E8
S1132F304C2F000010000A352D666F6C6461626CC2
S1132F406500043F3E6045267EE0C046682F0000D1
S1132F5010000A362D666F6C6461626C6500043F74
S1132F603E60462670E0C046842F000010000A37F9
S1132F702D666F6C6461626C6500043F3E60472699
S1132F8062E0C046B42F0000000008636F6E7374E3
S1132F90616E740000B500F0BFF9FFF7E3FD043F74
S1132FA03E603A4E00F0B3F8FFF785FF00F01BF8DF
S1132FB000BDC046D82F000000000932636F6E7355
S1132FC074616E7400B500F0A7F939683E600E466E
S1132FD0FFF7C8FDE1E7C046383000000000067383
S1132FE06D756467650000B52C4801682B4A9142F1
S1132FF01CD202390A882A4B9A4204D1043F3E600B
S1133000284E00F084F800F070F827480068043F68
S11330103E600600254909680431204A136811609E
S113302000F075F81360FEF7BFFE00BD00F05DF818
S1133030043F3E60002608E0B03000000000087342
S11330406574666C6167730000B514480168134ABF
S1133050914205D2144801683143016040CF00BD5C
S1133060320040CF11480068043001880C4B99426B
S113307001D1110000E01143018000BD1E2D0000AC
S1133080F02A000000B5000000BD000070470000F9
S113309014F0FF1FD82F002010F0FF1F00F0FF1FB7
S11330A0FFFF00000000000020F0FF1F04F0FF1FDE
S11330B0C0300000000005616C69676E15E0C04611
S11330C0DC300000410007616C69676E65640120B3
S11330D03040361802203040361870470431000062
S11330E0000007616C69676E342C00B58048016884
S11330F00220014004D0043F3E60002600F007F89F
S113310000BDC0463C310000000002682C000FB531
S1133110B6B277480168764A914205D2043F3E60D0
S11331200E00FEF764FE02E0320040CF0A80043F46
S11331303E60022600F058F80FBDC046583100002A
S11331400000012C00B5043F3E60FFF7E0FF360CA1
S1133150FFF7DDFF00BDC046743100000000033EF0
S11331603C2C00B5043F3E60360CFFF7D0FFFFF760
S1133170CEFF00BDDC310000000007737472696E7D
S1133180672C07B5FF21314040CF300040CF0029E4
S113319005D1043F3E600026FFF7B9FF07BD043F99
S11331A03E60067836020E43FFF7B1FF0130013965
S11331B002290AD3043F3E60467836020278164359
S11331C0FFF7A5FF02300239F2E7002900D107BD5D
S11331D0043F3E600678FFF79AFF07BD38320000CF
S11331E0000005616C6C6F7441480168404A91426B
S11331F00FD2320040CF89183E4A914219D3FFF7CB
S11332009DFA0B466C6173682066756C6C0A01F05C
S11332101FF9320040CF8918374A1268914208D307
S1133220FFF78CFA0952616D2066756C6C0A01F027
S11332300FF901607047C0466032000000000D6362
S11332406F6D70696C65746F72616D3F043F3E60B1
S11332500026274800682649884248D3F643704729
S11332608032000000000C636F6D70696C65746FD0
S113327072616D001E4800681D49884211D3704771
S11332800833000000000E636F6D70696C65746F25
S1133290666C61736800164800681549884200D25C
S11332A070471648164902680B680A6003601048A4
S11332B0144902680B680A6003600F48006883427F
S11332C015D300B5FFF73AFA23205661726961629B
S11332D06C657320636F6C6C6964652077697468CE
S11332E02064696374696F6E6172790A00BD704706
S11332F000F0FF1F0000020024F0FF1F04F0FF1F76
S11333001CF0FF1F18F0FF1FF43300000000082812
S1133310637265617465290000B500F0B1FD002E8B
S11333200ED1FFF70BFA1520437265617465206EA8
S113333065656473206E616D6520210A01F088F86B
S11333403868043F3E60043F386000F0A3F940CF82
S1133350002E40CF11D03868043F3E60043F3860EF
S1133360FFF7ECF9095265646566696E6520FFF73D
S113337045FAFFF7E3F9022E0A00FFF7B6FE00F064
S11333801DFA8D4800688C4988421CD28B48002164
S11333900160043F3E600626FFF726FFFDF7AEFE00
S11333A0FFF7EFFE864801680A68864B9A4207D108
S11333B0814A13681160043F3E60FFF7C3FE136047
S11333C0066040CF10E07E48043F3E600668FFF789
S11333D0B9FE043F3E607C4EFFF799FE7848310009
S11333E040CF0160FFF7CDFE734801687748016064
S11333F000BDC0460C3400000000087661726961AB
S1133400626C6500043F3E60012613E02434000032
S1133410000009327661726961626C65043F3E6046
S1133420022607E0FC3400000000096E7661726930
S113343061626C6500B5FFF76FFF5F4801685E4A23
S1133440914233D20F200640B20061480168891AC4
S1133450604A91420BD2FFF771F90F4E6F742065E9
S11334606E6F7567682052414D0A00F0F1FF0160EC
S1133470043F3E600E00FFF775FB043F3E60564E6E
S1133480FFF745FE300040CF0200002805D00E6053
S11334900431FFF757FE0138F9D1043F3E6080261E
S11334A01643FFF7D1FDFFF79EFD00BD00F086F93E
S11334B00220064040CF04D1043F3E603626FFF789
S11334C026FE043F3E60454EFFF74BFE043F3E6040
S11334D0434EFFF746FE043F3E603F4EFFF717FEA4
S11334E0300040CF002803D0FFF72CFE0138FBD179
S11334F0FFF7E1FCFFF777FD00BDC046E8350000AB
S11335000000076275666665723A00B5FFF704FF4E
S11335100120304036180220304036182648016811
S1133520254A914226D22A480168891B294A914298
S11335300BD2FFF703F90F4E6F7420656E6F75673A
S1133540682052414D0A00F083FF0160043F3E6051
S11335500E00FFF707FB043F3E601F4EFFF7D7FD49
S1133560FFF7F0FD043F3E601E4EFFF76DFDFFF7D1
S11335703AFD00BD00F022F90220064040CF04D1FC
S1133580043F3E603626FFF7C2FD043F3E60134E03
S1133590FFF7E7FD043F3E60114EFFF7E2FD043FF5
S11335A03E600D4EFFF7B3FDFFF71EFEFFF783FCF1
S11335B0FFF719FD00BD000000F0FF1F20F0FF1F02
S11335C004F0FF1FFFFFFFFFFFFF000014F0FF1FC9
S11335D024F0FF1F18F4FF1F704700003E60043FF3
S11335E002367E46400100001836000000000F64D9
S11335F0696374696F6E617279737461727442483D
S113360000684149043F3E60884201D23F4E704702
S11336103F4E36687047C0465436000000000E64C2
S1133620696374696F6E6172796E6578740003B54D
S113363031683848814207D08879FF2804D00E00C9
S1133640043F3E60002603BD043F3E600026F6436F
S113365003BDC0468836000000000A736B697073AE
S11336607472696E67003178013101220A40891849
S11336707618704706B40178013101220A4089188E
S1133680401806BC7047C0461C37000000000466A2
S1133690696E64003FB500220023350040CF34003A
S11336A040CFFFF7ACFF1C48B188884217D0043FD5
S11336B03E600636FFF782F8043F3E602600043F72
S11336C03E602E00FEF7ADFF002E40CF07D0B01DA8
S11336D0FFF7D0FF02000B000B48824204D2FFF731
S11336E0A6FF300040CFDED01600043F3E601E002F
S11336F03FBD00B531003868FFF7CCFF3A68002AB7
S113370001D100F019FE00BD00F0FF1F10040000FD
S113371004F0FF1FFFFFFFFFFFFF000078370000EA
S1133720000006636A756D702C00320040CF3100D2
S113373040CF8B1B043BC949194000290DD0C84810
S113374081420AD0FEF7FAFF0D4A756D7020746F3E
S11337506F206661720A00F07BFE5B10FF210B4054
S1133760134330001E0000B5BE4A13681060FFF713
S1133770CEFC136000BDC046B03700000000056AEF
S1133780756D702C310040CF300040CF0B1A043BD4
S1133790B5491940002902D0B44A9142D2D15B10F4
S11337A0B34A1340B34A1343043F3E601E00DAE7B2
S11337B0C83700000000046865726500043F3E607D
S11337C0A84E36687047C0460439000000000D66F4
S11337D06C6173687661722D68657265043F3E6042
S11337E0A54E3668704700B5043F3E60A34EFFF710
S11337F08EFC043F3E60A24EFFF789FC00BDDDE76E
S113380000B500F037F839683E600E46043F3E606C
S11338109C4EFFF78AFF00BD00B500F02BF8396815
S11338203E600E46043F3E60974EFFF77EFF00BDAC
S113383000B5FFF7D8FF00F01DF839683E600E466A
S1133840043F3E60914EFFF770FF00BD00B500F0ED
S113385011F839683E600E46FFF794FF00BD00B5CD
S1133860FFF7C1FFFFF7AAFF043F3E600226FFF700
S1133870BBFC00BD00B5FFF7A1FF043F3E6002267C
S1133880FFF7B2FC00BD00B5FFF798FFFFF77AFF22
S113389000BD00B5FFF792FF043F3E607B4EFFF78B
S11338A044FF00BD00B5FFF789FF043F3E60754E3D
S11338B0FFF73BFF00BD00B5FCF78CFE01694269D0
S11338C0FCF7CEFEFCF790FFFCF793FF0369282B6F
S11338D002D14369FCF723FE282908D1043F3E6046
S11338E06B4E002A00D00136FFF711FC06E0043FBE
S11338F03E60684E09020E43FFF709FCFCF77EFFA9
S113390000BDC0463839000030020269660000B5C7
S1133910FFF7A5FF043F3E60022600BD00B5FFF798
S1133920CAFFFFF74BFF043F3E600226FFF75CFC33
S1133930043F3E60022600BD643900003000046587
S11339406C73650000B5022E1AD140CFFFF792FFC9
S113395039683E600E46FFF79CFF043F3E60052633
S113396000BDC046A03900003000047468656E00D4
S1133970052E01D140CF86E7022E01D140CF88E742
S1133980FEF7DCFE175374727563747572657320E9
S1133990646F6E2774206D617463680A00F058FDCB
S11339A0C839000030000672657065617400042E29
S11339B0E6D140CF39683E600E4600B5FFF746FFBA
S11339C0FFF767FF00BDC046F439000030020577F9
S11339D068696C65012ED3D140CF00B5FFF797FF1E
S11339E0023600BD012ECBD140CF00B5FFF796FFC4
S11339F0023600BD2C3A0000300205756E74696C05
S1133A00012EBDD140CF13E77047012EB8D140CF6E
S1133A1000B5FFF750FFFFF72DFF39683E600E46F3
S1133A20043F3E60194EFFF780FE00BD403A00009F
S1133A30300005616761696E012EA1D140CF05E7B1
S1133A40983A0000300005626567696E00B5FFF7BB
S1133A50D6FE043F3E60012600BD000001FFFFFFCB
S1133A6000FFFFFF00F0FF1F01F8FFFF00F8FFFF5A
S1133A70FF07000000E0000024F0FF1F002E0000FC
S1133A8040CF000000D1000000D7000000D00000AB
S1133A900022000000280000B43A00002002016B5C
S1133AA0043F3E60029E704700B5043F3E608C4E6A
S1133AB00CE0C046E03A00002002016A043F3E6088
S1133AC0009E704700B5043F3E60864EFCF7FAFC4A
S1133AD0FCF75CFD03611B021E43FFF718FB00BDEE
S1133AE00C3B000020020169043F3E602600704741
S1133AF000B5043F3E607C4EFCF7E4FCFCF746FD59
S1133B0003611E43FFF703FB00BDC0464C3B0000AE
S1133B103000056C6561766500B5744801683B004A
S1133B20043F1A68043B1A6008338B42F9D103B48A
S1133B30FFF7A0FE03BC330040CF04390B600160E3
S1133B4004390A6801320A6000BDC046603B0000C7
S1133B50200006756E6C6F6F700030BC7047C046F5
S1133B60983B00003000052B6C6F6F70032E00D063
S1133B7006E740CF00B5043F3E605D4EFFF7CFF847
S1133B80FFF74AFE1AE0802000060019A419401B22
S1133B90801940CF7047C046DC3B00003000046C05
S1133BA06F6F7000032E00D0EAE640CF00B5043FEB
S1133BB03E60504EFFF7B3F8FFF722FE00F046F9DF
S1133BC04A48310040CF0160043F3E604A4EFFF74F
S1133BD0A6F800BD0134AC427047C046243C000046
S1133BE0300202646F0000B5043F3E60434EFFF7AD
S1133BF096F83E480168043F3E600E00043F3E6074
S1133C0000260760FFF7FBFD043F3E60032600BD6E
S1133C1000B500F02EF8ECE730B4340040CF3500A6
S1133C2040CF7047103D00003002033F646F00B581
S1133C30043F3E60314EFFF772F8043F3E60304E61
S1133C40FFF765FA29480168043F3E600E00FFF75C
S1133C5011FE0136043F3E60012624480760FFF749
S1133C60CEFD043F3E60032600BD00B500F001F820
S1133C70E3E700B5FCF7B7FCFCF7B6FD043F3E6094
S1133C80204EFFF744FA0169282907D0043F3E601B
S1133C901D4EC9000E43FFF73AFA07E0043F3E60A9
S1133CA04669043F3E600426FEF79AFE816928298E
S1133CB007D0043F3E60154EC9000E43FFF727FAB4
S1133CC007E0043F3E60C669043F3E600526FEF7F8
S1133CD087FEFCF7C5FCFCF7C3FCFCF78FFD00BDB9
S1133CE00298000000980000200000000CF0FF1F64
S1133CF0863B0000D43B00005A3B0000183C000007
S1133D00AC42000030B400000400000005000000D4
S1133D102C3D00003000046361736500043F3E6085
S1133D200026043F3E6008267047C046443D00001C
S1133D303000033F6F666A480AE0013EB64140CF57
S1133D407047C046EC3D00003002026F66006548D3
S1133D50082E00D014E640CF00B5043F3E600600B4
S1133D60FEF7DDFFFFF786FD39683E600E4601363B
S1133D70043F3E600926043F3E605B4EFFF7C7F9EF
S1133D8000BD082E00D0FBE540CF00B5FCF72BFCAE
S1133D90FCF72AFD043F3E60544EFCF74EFC0E43F4
S1133DA00269282A15D14269FF2A07D840CF043F67
S1133DB03E604F4E164309020E430CE0043F3E6042
S1133DC01600FCF7E3FB1A00043F3E601E00FEF7FA
S1133DD007FED2001643FFF79AF9FCF741FCFCF703
S1133DE00DFDBFE7300040CFB0427047243E0000D5
S1133DF0300005656E646F66092E00D0C0E540CFC3
S1133E0000B540B440CFFFF735FD39683E600E463B
S1133E10FFF748FD043F3E6040BC043F3E60082677
S1133E2000BDC046743E0000300007656E646361E7
S1133E307365082E00D0A3E540CF00B5043F3E6073
S1133E40294EFFF764F900F001F800BD00B5300019
S1133E5040CF00280DD003B401213140002903D004
S1133E60013EFFF716FD01E0FFF70DFD03BC01382D
S1133E70EFE700BD883E0000000005746F6B656EBF
S1133E80043F3E60202605E0F83E00000000057077
S1133E906172736510B5FEF798FB310040CF3000B6
S1133EA040CF144A12688418202E07D191420FD0B3
S1133EB0835CB34202D101328418F7E7914207D000
S1133EC0835C0132B342F9D18618361B013E01E00E
S1133ED08618361B043F3C600648026010BD000093
S1133EE03A3D0000E43D000040CF00008042000065
S1133EF000280000E42F0020383F00000000056483
S1133F0069676974D44B1B68303E0BD30A2E0BD3FC
S1133F10073E0A2E06D3242E06D3203E0A2E01D3B2
S1133F20242E01D3002670479E42FBD2043F3E60FC
S1133F300026F6437047C046444000000000066E69
S1133F40756D626572003FB5310040CF701E012669
S1133F50012204B4C04B1B680024002500293CD076
S1133F600130013902782D2A04D101B00022D24354
S1133F7004B4F3E7232A01D10A23EFE7242A01D169
S1133F801023EBE7252A01D10223E7E72E2A01D1EA
S1133F900226E3E72C2A36D0043F3E601600FFF7E2
S1133FA0B3FF002E40CF2BD0043F3E602600043FD9
S1133FB03E602E00043F3E601E00043F3E6000262B
S1133FC00FB4FCF7BCFD0FBC350040CF340040CF2C
S1133FD00022A419554140CFC0E704BC002A04D5EF
S1133FE00022E443ED430134554133002600012B04
S1133FF002D0043F3E602E00043F3E601E003FBDE1
S113400001B000263FBD2500002402260029E4D08B
S1134010425C01392E2AF9D0043F3E601600FFF7B6
S113402073FF002E40CFEBD0043F3C60043F3E6062
S11340301E000FB4FCF737FE0FBC340040CF40CF56
S1134040E4E7C046684000000000062E6469676922
S113405074000A2E01D2303604E0242E01D2373601
S113406000E023267047C046A0400000000004681A
S11340706F6C6400330040CF784801783F290DD23B
S1134080013101704018012907D00138027801304C
S11340900270013801390129F7D103707047C04615
S11340A0C0400000000005686F6C643C330040CFE2
S11340B06A4801783F2902D20131017043547047A4
S11340C0D84000000000047369676E00002E01D41C
S11340D040CF70472D26CDE7EC40000000000223BE
S11340E03E005E48067801303860704704410000A5
S11340F000000366235310B5202400F008F8013CA7
S1134100FBD110BD2841000000000266230000B569
S1134110043F3E60504E3668FCF7E3FCFFF799FF1E
S1134120FFF7C4FF00BDC046444100000000022365
S1134130530000B500F00AF8002EFBD138680028BF
S1134140F8D100BD704100000000012300B5043F18
S11341503E60414E3668043F3E600026FCF7C3FDD6
S1134160FCF7CAFB40CFFFF774FFFFF783FF00BDE6
S1134170844100000000023C230038480021017003
S11341807047C04698410000000002662E00043FBC
S11341903E60202605E0C046E841000000000366BA
S11341A02E6E00B510B4340040CFFCF775FFFCF759
S11341B05DFC043F3E600026FFF7DFFFFFF7B9FF19
S11341C040CF2C26FFF772FF002C03D0FFF79FFF90
S11341D0013CFBD110BC40CFFFF778FF043F3E60A9
S11341E0043F3E601EE0C04600420000000003752C
S11341F0642E00B5FFF7C1FFFFF79BFF12E0C04636
S113420034420000000002642E0000B5FCF744FFB5
S1134210FCF72CFCFFF7B1FFFFF78BFFFCF751FF16
S1134220FFF754FFFFF75DFFFEF7E8FAFEF734FAF5
S113423000BDC04648420000000002752E00043F45
S11342403E600026D5E7C046604200000000012E13
S1134250043F3E60F617D8E7FC2F002050F0FF1F04
S1134260A84200000000086576616C756174650001
S113427000B5FEF7AAF901CF01B440B440CF854898
S1134280016802B400210160FEF792F900F014F80D
S1134290804802BC0160043F3E6040BC01BC043F56
S11342A03860FEF785F900BD284400000000096964
S11342B06E7465727072657430B5774887420BD935
S11342C0FEF73CFA10537461636B20756E6465727B
S11342D0666C6F770A00BBE0704887420AD2FEF72B
S11342E02DFA0F537461636B206F766572666C6F81
S11342F0770AADE06A4C2568002D01D13D002560A8
S1134300FFF7BEFD002E02D1043740CF30BD386820
S1134310043F3E60043F3860FFF7BCF9310040CFF2
S1134320320040CF002A13D138683100FFF70BFE6A
S1134330320040CF002AC0D1FEF764FAFEF7FEF93E
S11343400C206E6F7420666F756E642E0A007FE019
S1134350544B1B68002B1DD10025256030230B40D6
S1134360302B0ED1FEF74AFAFEF7E8F912206973F2
S113437020636F6D70696C652D6F6E6C792E0A0009
S113438066E0043740CF043F3E601600FEF761FD4F
S1134390FFF793FF043740CF8020084008D1EB1B80
S11343A09B084020084009D00F200840834205D3D1
S11343B0043F3E601600FEF74CFD7EE73A48084095
S11343C008D0FCF738F8FCF787F938002060FCF7D0
S11343D041F872E7FCF72FF8FCF7FEF900F012F849
S11343E0043F3E60160010220A4002D0FEF731FD61
S11343F063E720220A4002D0FEF791FC5DE7FEF756
S113440077FB5AE700B5002B0BD0013B043F3E601D
S11344109E00BE59FEF7A6FB002BF6D1043D2F00EB
S113442040CF0025256000BD444400008100096898
S11344306F6F6B2D71756974043F3E601B4E70473E
S113444080440000C04400000000047175697400D9
S113445017488546104FFDF79FFC16480A21016056
S11344601048002101600E480160FCF713FA094866
S1134470016011480160114941600C480068874699
S1134480FEF7B2F8FFF718FFFEF758F905206F6B37
S11344902E0AF5E7E42F002058F2FF1F58F1FF1F02
S11344A008F0FF1FD82F002000020000D42F0020A6
S11344B058F3FF1FFC2F0020DC2F002090F0FF1F7B
S11344C0DC44000000000565696E743F043F3E60F3
S11344D0EFF31086013EB6417047C046EC4400003D
S11344E020000465696E740062B67047FC440000E5
S11344F020000464696E740072B6704714450000AD
S11345002000046970737200043F3E60EFF3058677
S11345107047C046204500000000036E6F7070476E
S113452064450000000009756E68616E646C656422
S113453000B5FEF703F914556E68616E646C65642A
S113454020496E746572727570742000043F3E6079
S1134550EFF30586FEF76AF9FEF7F0F802210A0088
S113456000BDC0467845000000000572657365749F
S11345709A489B490160C0469C45000081000B6934
S113458072712D7379737469636B043F3E60954E49
S1134590704730450000934800688746C0450000D6
S11345A08100096972712D6661756C74043F3E6007
S11345B08D4E7047304500008B4800688746C046E2
S11345C0E845000081000E6972712D636F6C6C65A3
S11345D06374696F6E00043F3E60844E70473045DB
S11345E00000824800688746084600008100076989
S11345F072712D616463043F3E607D4E70473045A7
S113460000007B480068874628460000810007694F
S113461072712D636D70043F3E60764E7047304575
S11346200000744800688746484600008100076916
S113463072712D646163043F3E606F4E7047304574
S113464000006D48006887466C46000081000969D7
S113465072712D706F727461043F3E60674E7047D3
S113466030450000654800688746C0469046000013
S11346708100096972712D706F727464043F3E6029
S11346805F4E7047304500005D4800688746C0466D
S113469000600000FFFF182D2D2D20466C6173680B
S11346A02044696374696F6E617279202D2D2D0029
S11346B0002154480160FDF7CBFD53488546534F14
S11346C02A26534853490160534854490160043F22
S11346D03E60524E524DB188524B994224D0524BB7
S11346E00B400AD0B01DFEF7C5FFFEF72CFB038874
S11346F0408800040343ED1A16E080230B4013D0D6
S11347000F23194089006D1AB01DFEF7B3FFFEF7A1
S11347101AFB043F3E600600043F3E602E00043F47
S11347203E600E00FDF724F8FEF781FF300040CF15
S1134730D1D03E48066040CF3D4805603D483E49E3
S1134740384A884204D0023803889342F9D00230B0
S11347503A490860FDF720FBFDF7F0FF514D656312
S1134760726973702D5374656C6C61726973205235
S11347704120302E31206578706572696D656E74E4
S1134780616C2077697468204D3020636F726520F6
S1134790666F72204B4C32355A31323820627920A0
S11347A04D61747468696173204B6F63680A2448AF
S11347B000210160FCF76EF8043F3E60214E043F87
S11347C03E600426FEF766FF40CF002E02D0FEF7BF
S11347D040FB52E640CF3BE6696E69740CED00E0A5
S11347E00400FA05D02F0020CC2F0020C82F002071
S11347F0C42F0020C02F0020BC2F0020B82F002081
S1134800B42F00200081044058F3FF1F58F2FF1F0B
S113481000F0FF1F18F4FF1F04F0FF1F1004000036
S113482000300020FFFF0000000100001CF0FF1F0B
S113483024F0FF1F000002000060000018F0FF1FBA
S10B484008F0FF1FD847000037
S9030000FC
